{
  "contractName": "MarketCollateralPool",
  "abi": [
    {
      "constant": true,
      "inputs": [],
      "name": "MKT_TOKEN_ADDRESS",
      "outputs": [
        {
          "name": "",
          "type": "address"
        }
      ],
      "payable": false,
      "stateMutability": "view",
      "type": "function"
    },
    {
      "constant": true,
      "inputs": [],
      "name": "linkedAddress",
      "outputs": [
        {
          "name": "",
          "type": "address"
        }
      ],
      "payable": false,
      "stateMutability": "view",
      "type": "function"
    },
    {
      "constant": true,
      "inputs": [],
      "name": "collateralPoolBalance",
      "outputs": [
        {
          "name": "",
          "type": "uint256"
        }
      ],
      "payable": false,
      "stateMutability": "view",
      "type": "function"
    },
    {
      "constant": true,
      "inputs": [
        {
          "name": "",
          "type": "address"
        }
      ],
      "name": "userAddressToAccountBalance",
      "outputs": [
        {
          "name": "",
          "type": "uint256"
        }
      ],
      "payable": false,
      "stateMutability": "view",
      "type": "function"
    },
    {
      "inputs": [
        {
          "name": "marketContractAddress",
          "type": "address"
        }
      ],
      "payable": false,
      "stateMutability": "nonpayable",
      "type": "constructor"
    },
    {
      "anonymous": false,
      "inputs": [
        {
          "indexed": true,
          "name": "user",
          "type": "address"
        },
        {
          "indexed": false,
          "name": "balance",
          "type": "uint256"
        }
      ],
      "name": "UpdatedUserBalance",
      "type": "event"
    },
    {
      "anonymous": false,
      "inputs": [
        {
          "indexed": false,
          "name": "balance",
          "type": "uint256"
        }
      ],
      "name": "UpdatedPoolBalance",
      "type": "event"
    },
    {
      "constant": true,
      "inputs": [
        {
          "name": "userAddress",
          "type": "address"
        }
      ],
      "name": "getUserPosition",
      "outputs": [
        {
          "name": "",
          "type": "int256"
        }
      ],
      "payable": false,
      "stateMutability": "view",
      "type": "function"
    },
    {
      "constant": true,
      "inputs": [
        {
          "name": "userAddress",
          "type": "address"
        }
      ],
      "name": "getUserAccountBalance",
      "outputs": [
        {
          "name": "",
          "type": "uint256"
        }
      ],
      "payable": false,
      "stateMutability": "view",
      "type": "function"
    },
    {
      "constant": false,
      "inputs": [
        {
          "name": "depositAmount",
          "type": "uint256"
        }
      ],
      "name": "depositTokensForTrading",
      "outputs": [],
      "payable": false,
      "stateMutability": "nonpayable",
      "type": "function"
    },
    {
      "constant": false,
      "inputs": [],
      "name": "settleAndClose",
      "outputs": [],
      "payable": false,
      "stateMutability": "nonpayable",
      "type": "function"
    },
    {
      "constant": false,
      "inputs": [
        {
          "name": "maker",
          "type": "address"
        },
        {
          "name": "taker",
          "type": "address"
        },
        {
          "name": "qty",
          "type": "int256"
        },
        {
          "name": "price",
          "type": "uint256"
        }
      ],
      "name": "updatePositions",
      "outputs": [],
      "payable": false,
      "stateMutability": "nonpayable",
      "type": "function"
    },
    {
      "constant": false,
      "inputs": [
        {
          "name": "withdrawAmount",
          "type": "uint256"
        }
      ],
      "name": "withdrawTokens",
      "outputs": [],
      "payable": false,
      "stateMutability": "nonpayable",
      "type": "function"
    }
  ],
  "bytecode": "0x608060405234801561001057600080fd5b50604051602080611fe38339810180604052810190808051906020019092919050505080600073ffffffffffffffffffffffffffffffffffffffff168173ffffffffffffffffffffffffffffffffffffffff161415151561007057600080fd5b806000806101000a81548173ffffffffffffffffffffffffffffffffffffffff021916908373ffffffffffffffffffffffffffffffffffffffff1602179055505080600560006101000a81548173ffffffffffffffffffffffffffffffffffffffff021916908373ffffffffffffffffffffffffffffffffffffffff160217905550600560009054906101000a900473ffffffffffffffffffffffffffffffffffffffff1673ffffffffffffffffffffffffffffffffffffffff1663798ddbc86040518163ffffffff167c0100000000000000000000000000000000000000000000000000000000028152600401602060405180830381600087803b15801561017857600080fd5b505af115801561018c573d6000803e3d6000fd5b505050506040513d60208110156101a257600080fd5b8101908080519060200190929190505050600460006101000a81548173ffffffffffffffffffffffffffffffffffffffff021916908373ffffffffffffffffffffffffffffffffffffffff16021790555050611de0806102036000396000f3006080604052600436106100a4576000357c0100000000000000000000000000000000000000000000000000000000900463ffffffff168063315a095d146100a95780633bc6db30146100d65780633f7f4f17146100ed5780635b7c2dad14610144578063798ddbc81461019b5780637bb55cd2146101f25780638af6375f14610249578063a68e5ad014610274578063aafff7e1146102a1578063eeaba083146102f8575b600080fd5b3480156100b557600080fd5b506100d46004803603810190808035906020019092919050505061036f565b005b3480156100e257600080fd5b506100eb610546565b005b3480156100f957600080fd5b5061012e600480360381019080803573ffffffffffffffffffffffffffffffffffffffff1690602001909291905050506108fa565b6040518082815260200191505060405180910390f35b34801561015057600080fd5b50610185600480360381019080803573ffffffffffffffffffffffffffffffffffffffff169060200190929190505050610943565b6040518082815260200191505060405180910390f35b3480156101a757600080fd5b506101b061098f565b604051808273ffffffffffffffffffffffffffffffffffffffff1673ffffffffffffffffffffffffffffffffffffffff16815260200191505060405180910390f35b3480156101fe57600080fd5b506102076109b5565b604051808273ffffffffffffffffffffffffffffffffffffffff1673ffffffffffffffffffffffffffffffffffffffff16815260200191505060405180910390f35b34801561025557600080fd5b5061025e6109da565b6040518082815260200191505060405180910390f35b34801561028057600080fd5b5061029f600480360381019080803590602001909291905050506109e0565b005b3480156102ad57600080fd5b506102e2600480360381019080803573ffffffffffffffffffffffffffffffffffffffff169060200190929190505050610d12565b6040518082815260200191505060405180910390f35b34801561030457600080fd5b5061036d600480360381019080803573ffffffffffffffffffffffffffffffffffffffff169060200190929190803573ffffffffffffffffffffffffffffffffffffffff1690602001909291908035906020019092919080359060200190929190505050610d2a565b005b60006103c382600360003373ffffffffffffffffffffffffffffffffffffffff1673ffffffffffffffffffffffffffffffffffffffff16815260200190815260200160002054610dc390919063ffffffff16565b905080600360003373ffffffffffffffffffffffffffffffffffffffff1673ffffffffffffffffffffffffffffffffffffffff168152602001908152602001600020819055506104f43383600560009054906101000a900473ffffffffffffffffffffffffffffffffffffffff1673ffffffffffffffffffffffffffffffffffffffff16636cee3abb6040518163ffffffff167c0100000000000000000000000000000000000000000000000000000000028152600401602060405180830381600087803b15801561049457600080fd5b505af11580156104a8573d6000803e3d6000fd5b505050506040513d60208110156104be57600080fd5b810190808051906020019092919050505073ffffffffffffffffffffffffffffffffffffffff16610ddc9092919063ffffffff16565b3373ffffffffffffffffffffffffffffffffffffffff167f60ede3b17b4e31768b93d5237d5fceb759f4d879bc5bb7c916a42ebaa311e6e6826040518082815260200191505060405180910390a25050565b6000600560009054906101000a900473ffffffffffffffffffffffffffffffffffffffff1673ffffffffffffffffffffffffffffffffffffffff16633270bb5b6040518163ffffffff167c0100000000000000000000000000000000000000000000000000000000028152600401602060405180830381600087803b1580156105ce57600080fd5b505af11580156105e2573d6000803e3d6000fd5b505050506040513d60208110156105f857600080fd5b8101908080519060200190929190505050151561061457600080fd5b600460009054906101000a900473ffffffffffffffffffffffffffffffffffffffff1673ffffffffffffffffffffffffffffffffffffffff1663cfab472f600560009054906101000a900473ffffffffffffffffffffffffffffffffffffffff16336040518363ffffffff167c0100000000000000000000000000000000000000000000000000000000028152600401808373ffffffffffffffffffffffffffffffffffffffff1673ffffffffffffffffffffffffffffffffffffffff1681526020018273ffffffffffffffffffffffffffffffffffffffff1673ffffffffffffffffffffffffffffffffffffffff16815260200192505050602060405180830381600087803b15801561072757600080fd5b505af115801561073b573d6000803e3d6000fd5b505050506040513d602081101561075157600080fd5b8101908080519060200190929190505050151561076d57600080fd5b600260003373ffffffffffffffffffffffffffffffffffffffff1673ffffffffffffffffffffffffffffffffffffffff1681526020019081526020016000209050600081600201541415156108af576108ae81337fffffffffffffffffffffffffffffffffffffffffffffffffffffffffffffffff846002015402600560009054906101000a900473ffffffffffffffffffffffffffffffffffffffff1673ffffffffffffffffffffffffffffffffffffffff1663f348e8b26040518163ffffffff167c0100000000000000000000000000000000000000000000000000000000028152600401602060405180830381600087803b15801561086e57600080fd5b505af1158015610882573d6000803e3d6000fd5b505050506040513d602081101561089857600080fd5b8101908080519060200190929190505050610ec7565b5b6108f7600360003373ffffffffffffffffffffffffffffffffffffffff1673ffffffffffffffffffffffffffffffffffffffff1681526020019081526020016000205461036f565b50565b6000600360008373ffffffffffffffffffffffffffffffffffffffff1673ffffffffffffffffffffffffffffffffffffffff168152602001908152602001600020549050919050565b6000600260008373ffffffffffffffffffffffffffffffffffffffff1673ffffffffffffffffffffffffffffffffffffffff168152602001908152602001600020600201549050919050565b600460009054906101000a900473ffffffffffffffffffffffffffffffffffffffff1681565b6000809054906101000a900473ffffffffffffffffffffffffffffffffffffffff1681565b60015481565b6000600460009054906101000a900473ffffffffffffffffffffffffffffffffffffffff1673ffffffffffffffffffffffffffffffffffffffff1663cfab472f600560009054906101000a900473ffffffffffffffffffffffffffffffffffffffff16336040518363ffffffff167c0100000000000000000000000000000000000000000000000000000000028152600401808373ffffffffffffffffffffffffffffffffffffffff1673ffffffffffffffffffffffffffffffffffffffff1681526020018273ffffffffffffffffffffffffffffffffffffffff1673ffffffffffffffffffffffffffffffffffffffff16815260200192505050602060405180830381600087803b158015610af557600080fd5b505af1158015610b09573d6000803e3d6000fd5b505050506040513d6020811015610b1f57600080fd5b81019080805190602001909291905050501515610b3b57600080fd5b610b8d82600360003373ffffffffffffffffffffffffffffffffffffffff1673ffffffffffffffffffffffffffffffffffffffff1681526020019081526020016000205461149e90919063ffffffff16565b9050610c7c333084600560009054906101000a900473ffffffffffffffffffffffffffffffffffffffff1673ffffffffffffffffffffffffffffffffffffffff16636cee3abb6040518163ffffffff167c0100000000000000000000000000000000000000000000000000000000028152600401602060405180830381600087803b158015610c1b57600080fd5b505af1158015610c2f573d6000803e3d6000fd5b505050506040513d6020811015610c4557600080fd5b810190808051906020019092919050505073ffffffffffffffffffffffffffffffffffffffff166114bc909392919063ffffffff16565b80600360003373ffffffffffffffffffffffffffffffffffffffff1673ffffffffffffffffffffffffffffffffffffffff168152602001908152602001600020819055503373ffffffffffffffffffffffffffffffffffffffff167f60ede3b17b4e31768b93d5237d5fceb759f4d879bc5bb7c916a42ebaa311e6e6826040518082815260200191505060405180910390a25050565b60036020528060005260406000206000915090505481565b6000809054906101000a900473ffffffffffffffffffffffffffffffffffffffff1673ffffffffffffffffffffffffffffffffffffffff163373ffffffffffffffffffffffffffffffffffffffff16141515610d8557600080fd5b610d908483836115dc565b610dbd837fffffffffffffffffffffffffffffffffffffffffffffffffffffffffffffffff8402836115dc565b50505050565b6000828211151515610dd157fe5b818303905092915050565b8273ffffffffffffffffffffffffffffffffffffffff1663a9059cbb83836040518363ffffffff167c0100000000000000000000000000000000000000000000000000000000028152600401808373ffffffffffffffffffffffffffffffffffffffff1673ffffffffffffffffffffffffffffffffffffffff16815260200182815260200192505050602060405180830381600087803b158015610e7f57600080fd5b505af1158015610e93573d6000803e3d6000fd5b505050506040513d6020811015610ea957600080fd5b81019080805190602001909291905050501515610ec257fe5b505050565b60008060008092508491506000876001018054905014151515610ee657fe5b5b60008214151561148057866001016001886001018054905003815481101515610f0c57fe5b90600052602060002090600202019050610f258261170b565b610f32826001015461170b565b1115156111d45761119c61118d600560009054906101000a900473ffffffffffffffffffffffffffffffffffffffff1673ffffffffffffffffffffffffffffffffffffffff1663c32b1dfa6040518163ffffffff167c0100000000000000000000000000000000000000000000000000000000028152600401602060405180830381600087803b158015610fc557600080fd5b505af1158015610fd9573d6000803e3d6000fd5b505050506040513d6020811015610fef57600080fd5b8101908080519060200190929190505050600560009054906101000a900473ffffffffffffffffffffffffffffffffffffffff1673ffffffffffffffffffffffffffffffffffffffff1663b5471dee6040518163ffffffff167c0100000000000000000000000000000000000000000000000000000000028152600401602060405180830381600087803b15801561108657600080fd5b505af115801561109a573d6000803e3d6000fd5b505050506040513d60208110156110b057600080fd5b8101908080519060200190929190505050600560009054906101000a900473ffffffffffffffffffffffffffffffffffffffff1673ffffffffffffffffffffffffffffffffffffffff1663ca361d676040518163ffffffff167c0100000000000000000000000000000000000000000000000000000000028152600401602060405180830381600087803b15801561114757600080fd5b505af115801561115b573d6000803e3d6000fd5b505050506040513d602081101561117157600080fd5b8101908080519060200190929190505050856001015489611729565b8461149e90919063ffffffff16565b92506111b581600101548361179290919063ffffffff16565b9150866001018054809190600190036111ce9190611d53565b5061147b565b6111eb82826001015461179290919063ffffffff16565b8160010181905550611474611465600560009054906101000a900473ffffffffffffffffffffffffffffffffffffffff1673ffffffffffffffffffffffffffffffffffffffff1663c32b1dfa6040518163ffffffff167c0100000000000000000000000000000000000000000000000000000000028152600401602060405180830381600087803b15801561127f57600080fd5b505af1158015611293573d6000803e3d6000fd5b505050506040513d60208110156112a957600080fd5b8101908080519060200190929190505050600560009054906101000a900473ffffffffffffffffffffffffffffffffffffffff1673ffffffffffffffffffffffffffffffffffffffff1663b5471dee6040518163ffffffff167c0100000000000000000000000000000000000000000000000000000000028152600401602060405180830381600087803b15801561134057600080fd5b505af1158015611354573d6000803e3d6000fd5b505050506040513d602081101561136a57600080fd5b8101908080519060200190929190505050600560009054906101000a900473ffffffffffffffffffffffffffffffffffffffff1673ffffffffffffffffffffffffffffffffffffffff1663ca361d676040518163ffffffff167c0100000000000000000000000000000000000000000000000000000000028152600401602060405180830381600087803b15801561140157600080fd5b505af1158015611415573d6000803e3d6000fd5b505050506040513d602081101561142b57600080fd5b81019080805190602001909291905050507fffffffffffffffffffffffffffffffffffffffffffffffffffffffffffffffff870289611729565b8461149e90919063ffffffff16565b9250611480565b610ee7565b6000831415156114955761149486846117fa565b5b50505050505050565b60008082840190508381101515156114b257fe5b8091505092915050565b8373ffffffffffffffffffffffffffffffffffffffff166323b872dd8484846040518463ffffffff167c0100000000000000000000000000000000000000000000000000000000028152600401808473ffffffffffffffffffffffffffffffffffffffff1673ffffffffffffffffffffffffffffffffffffffff1681526020018373ffffffffffffffffffffffffffffffffffffffff1673ffffffffffffffffffffffffffffffffffffffff1681526020018281526020019350505050602060405180830381600087803b15801561159357600080fd5b505af11580156115a7573d6000803e3d6000fd5b505050506040513d60208110156115bd57600080fd5b810190808051906020019092919050505015156115d657fe5b50505050565b600080600260008673ffffffffffffffffffffffffffffffffffffffff1673ffffffffffffffffffffffffffffffffffffffff1681526020019081526020016000209150600082600201541480611646575061164584836002015461193b90919063ffffffff16565b5b1561165c5761165782868686611955565b6116e5565b7fffffffffffffffffffffffffffffffffffffffffffffffffffffffffffffffff8402826002015412151561169c5761169782868686610ec7565b6116e4565b6116ce82867fffffffffffffffffffffffffffffffffffffffffffffffffffffffffffffffff85600201540286610ec7565b8382600201540190506116e382868386611955565b5b5b6116fc84836002015461179290919063ffffffff16565b82600201819055505050505050565b60008082121561172057816000039050611724565b8190505b919050565b60008060008413156117595786831115156117475760009050611754565b6117518388610dc3565b90505b611779565b858310151561176b5760009050611778565b6117758684610dc3565b90505b5b846117838561170b565b82020291505095945050505050565b60008082840190506117a4848461193b565b15156117b2578091506117f3565b6000841215156117d8578360ff60019060020a02190383131515156117d357fe5b6117ef565b8360ff60019060020a020383121515156117ee57fe5b5b8091505b5092915050565b600061184e82600360008673ffffffffffffffffffffffffffffffffffffffff1673ffffffffffffffffffffffffffffffffffffffff1681526020019081526020016000205461149e90919063ffffffff16565b905080600360008573ffffffffffffffffffffffffffffffffffffffff1673ffffffffffffffffffffffffffffffffffffffff168152602001908152602001600020819055506118a982600154610dc390919063ffffffff16565b6001819055508273ffffffffffffffffffffffffffffffffffffffff167f60ede3b17b4e31768b93d5237d5fceb759f4d879bc5bb7c916a42ebaa311e6e6826040518082815260200191505060405180910390a27fc6203b6a88d29510779ca9dba6a5e132f609c335e49a244d6d9e842ebaabb2706001546040518082815260200191505060405180910390a1505050565b60008183148061194d57506000828402135b905092915050565b6000611ba4600560009054906101000a900473ffffffffffffffffffffffffffffffffffffffff1673ffffffffffffffffffffffffffffffffffffffff1663c32b1dfa6040518163ffffffff167c0100000000000000000000000000000000000000000000000000000000028152600401602060405180830381600087803b1580156119e057600080fd5b505af11580156119f4573d6000803e3d6000fd5b505050506040513d6020811015611a0a57600080fd5b8101908080519060200190929190505050600560009054906101000a900473ffffffffffffffffffffffffffffffffffffffff1673ffffffffffffffffffffffffffffffffffffffff1663b5471dee6040518163ffffffff167c0100000000000000000000000000000000000000000000000000000000028152600401602060405180830381600087803b158015611aa157600080fd5b505af1158015611ab5573d6000803e3d6000fd5b505050506040513d6020811015611acb57600080fd5b8101908080519060200190929190505050600560009054906101000a900473ffffffffffffffffffffffffffffffffffffffff1673ffffffffffffffffffffffffffffffffffffffff1663ca361d676040518163ffffffff167c0100000000000000000000000000000000000000000000000000000000028152600401602060405180830381600087803b158015611b6257600080fd5b505af1158015611b76573d6000803e3d6000fd5b505050506040513d6020811015611b8c57600080fd5b81019080805190602001909291905050508686611729565b9050611bb08482611c12565b846001016040805190810160405280848152602001858152509080600181540180825580915050906001820390600052602060002090600202016000909192909190915060008201518160000155602082015181600101555050505050505050565b6000611c6682600360008673ffffffffffffffffffffffffffffffffffffffff1673ffffffffffffffffffffffffffffffffffffffff16815260200190815260200160002054610dc390919063ffffffff16565b905080600360008573ffffffffffffffffffffffffffffffffffffffff1673ffffffffffffffffffffffffffffffffffffffff16815260200190815260200160002081905550611cc18260015461149e90919063ffffffff16565b6001819055508273ffffffffffffffffffffffffffffffffffffffff167f60ede3b17b4e31768b93d5237d5fceb759f4d879bc5bb7c916a42ebaa311e6e6826040518082815260200191505060405180910390a27fc6203b6a88d29510779ca9dba6a5e132f609c335e49a244d6d9e842ebaabb2706001546040518082815260200191505060405180910390a1505050565b815481835581811115611d8057600202816002028360005260206000209182019101611d7f9190611d85565b5b505050565b611db191905b80821115611dad57600080820160009055600182016000905550600201611d8b565b5090565b905600a165627a7a723058201cf256c8b313c06b466d100fe5f83e6b0070a3b7374abd9da178a093c4ae68ce0029",
  "source": "/*\n    Copyright 2017-2018 Phillip A. Elsasser\n\n    Licensed under the Apache License, Version 2.0 (the \"License\");\n    you may not use this file except in compliance with the License.\n    You may obtain a copy of the License at\n\n    http://www.apache.org/licenses/LICENSE-2.0\n\n    Unless required by applicable law or agreed to in writing, software\n    distributed under the License is distributed on an \"AS IS\" BASIS,\n    WITHOUT WARRANTIES OR CONDITIONS OF ANY KIND, either express or implied.\n    See the License for the specific language governing permissions and\n    limitations under the License.\n*/\n\npragma solidity ^0.4.23;\n\nimport \"./libraries/MathLib.sol\";\nimport \"./tokens/MarketToken.sol\";\nimport \"./Linkable.sol\";\nimport \"./MarketContract.sol\";\n\nimport \"openzeppelin-solidity/contracts/token/ERC20/SafeERC20.sol\";\nimport \"openzeppelin-solidity/contracts/token/ERC20/ERC20.sol\";\n\n\n/// @title MarketCollateralPool is a contract controlled by a specific Market Contract.  It holds collateral balances\n/// as well as user balances and open positions.  It should be instantiated and then linked by a MarketContract.\n/// @author Phil Elsasser <phil@marketprotocol.io>\ncontract MarketCollateralPool is Linkable {\n    using MathLib for uint;\n    using MathLib for int;\n    using SafeERC20 for ERC20;\n\n    struct UserNetPosition {\n        address userAddress;\n        Position[] positions;   // all open positions (lifo upon exit - allows us to not reindex array!)\n        int netPosition;        // net position across all prices / executions\n    }\n\n    struct Position {\n        uint price;\n        int qty;\n    }\n\n    uint public collateralPoolBalance;                                 // current balance of all collateral committed\n    mapping(address => UserNetPosition) addressToUserPosition;\n    mapping(address => uint) public userAddressToAccountBalance;       // stores account balances allowed to be allocated to orders\n    address public MKT_TOKEN_ADDRESS;\n    MarketContract MKT_CONTRACT;\n\n    event UpdatedUserBalance(address indexed user, uint balance);\n    event UpdatedPoolBalance(uint balance);\n\n    /// @dev instantiates a collateral pool that is unique to the supplied address of a MarketContract. This pairing\n    /// is 1:1\n    /// @param marketContractAddress deployed address of a MarketContract\n    constructor(address marketContractAddress) Linkable(marketContractAddress) public {\n        MKT_CONTRACT = MarketContract(marketContractAddress);\n        MKT_TOKEN_ADDRESS = MKT_CONTRACT.MKT_TOKEN_ADDRESS();\n    }\n\n    /// @notice get the net position for a give user address\n    /// @param userAddress address to return position for\n    /// @return the users current open position.\n    function getUserPosition(address userAddress) external view returns (int) {\n        return addressToUserPosition[userAddress].netPosition;\n    }\n\n    /// @param userAddress address of user\n    /// @return the users currently unallocated token balance\n    function getUserAccountBalance(address userAddress) external view returns (uint) {\n        return userAddressToAccountBalance[userAddress];\n    }\n\n    /*\n    // EXTERNAL METHODS\n    */\n\n    /// @notice deposits tokens to the smart contract to fund the user account and provide needed tokens for collateral\n    /// pool upon trade matching.\n    /// @param depositAmount qty of ERC20 tokens to deposit to the smart contract to cover open orders and collateral\n    function depositTokensForTrading(uint256 depositAmount) external {\n        // user must call approve!\n        require(MarketToken(MKT_TOKEN_ADDRESS).isUserEnabledForContract(MKT_CONTRACT, msg.sender));\n        uint256 balanceAfterDeposit = userAddressToAccountBalance[msg.sender].add(depositAmount);\n        ERC20(MKT_CONTRACT.BASE_TOKEN_ADDRESS()).safeTransferFrom(msg.sender, this, depositAmount);\n        userAddressToAccountBalance[msg.sender] = balanceAfterDeposit;\n        emit UpdatedUserBalance(msg.sender, balanceAfterDeposit);\n    }\n\n    // @notice called by a user after settlement has occurred.  This function will finalize all accounting around any\n    // outstanding positions and return all remaining collateral to the caller. This should only be called after\n    // settlement has occurred.\n    function settleAndClose() external {\n        require(MKT_CONTRACT.isSettled());\n        require(MarketToken(MKT_TOKEN_ADDRESS).isUserEnabledForContract(MKT_CONTRACT, msg.sender));\n        UserNetPosition storage userNetPos = addressToUserPosition[msg.sender];\n        if (userNetPos.netPosition != 0) {\n            // this user has a position that we need to settle based upon the settlement price of the contract\n            reduceUserNetPosition(\n                userNetPos,\n                msg.sender,\n                userNetPos.netPosition * - 1,\n                MKT_CONTRACT.settlementPrice()\n            );\n        }\n        // transfer all balances back to user.\n        withdrawTokens(userAddressToAccountBalance[msg.sender]);\n    }\n\n    /// @dev called by our linked MarketContract when a trade occurs to update both maker and takers positions.\n    /// @param maker address of the maker in the trade\n    /// @param taker address of the taker in the trade\n    /// @param qty quantity transacted between parties\n    /// @param price agreed price of the matched trade.\n    function updatePositions(\n        address maker,\n        address taker,\n        int qty,\n        uint price\n    ) external onlyLinked\n    {\n        updatePosition(\n            maker,\n            qty,\n            price\n        );\n        // continue process for taker, but qty is opposite sign for taker\n        updatePosition(\n            taker,\n            qty * -1,\n            price\n        );\n    }\n\n    /*\n    // PUBLIC METHODS\n    */\n\n    /// @notice removes token from users trading account\n    /// @param withdrawAmount qty of token to attempt to withdraw\n    function withdrawTokens(uint256 withdrawAmount) public {\n        //require(userAddressToAccountBalance[msg.sender] >= withdrawAmount);  subtract call below will enforce this\n        uint256 balanceAfterWithdrawal = userAddressToAccountBalance[msg.sender].subtract(withdrawAmount);\n        userAddressToAccountBalance[msg.sender] = balanceAfterWithdrawal;   // update balance before external call!\n        ERC20(MKT_CONTRACT.BASE_TOKEN_ADDRESS()).safeTransfer(msg.sender, withdrawAmount);\n        emit UpdatedUserBalance(msg.sender, balanceAfterWithdrawal);\n    }\n\n    /*\n    // PRIVATE METHODS\n    */\n\n    /// @notice moves collateral from a user's account to the pool upon trade execution.\n    /// @param fromAddress address of user entering trade\n    /// @param collateralAmount amount of collateral to transfer from user account to collateral pool\n    function commitCollateralToPool(\n        address fromAddress,\n        uint collateralAmount\n    ) private\n    {\n        //require(MKT_TOKEN.isUserEnabledForContract(MKT_CONTRACT, msg.sender)); already confirmed higher in call stack!\n        //require(userAddressToAccountBalance[fromAddress] >= collateralAmount);   // ensure sufficient balance\n        // subtract call will enforce sufficient balance.\n        uint newBalance = userAddressToAccountBalance[fromAddress].subtract(collateralAmount);\n        userAddressToAccountBalance[fromAddress] = newBalance;\n        collateralPoolBalance = collateralPoolBalance.add(collateralAmount);\n        emit UpdatedUserBalance(fromAddress, newBalance);\n        emit UpdatedPoolBalance(collateralPoolBalance);\n    }\n\n    /// @notice withdraws collateral from pool to a user account upon exit or trade settlement\n    /// @param toAddress address of user\n    /// @param collateralAmount amount to transfer from pool to user.\n    function withdrawCollateralFromPool(\n        address toAddress,\n        uint collateralAmount\n    ) private\n    {\n        //require(MKT_TOKEN.isUserEnabledForContract(MKT_CONTRACT, msg.sender)); already confirmed higher in call stack!\n        // require(collateralPoolBalance >= collateralAmount); subtract call below will enforce this!\n        uint newBalance = userAddressToAccountBalance[toAddress].add(collateralAmount);\n        userAddressToAccountBalance[toAddress] = newBalance;\n        collateralPoolBalance = collateralPoolBalance.subtract(collateralAmount);\n        emit UpdatedUserBalance(toAddress, newBalance);\n        emit UpdatedPoolBalance(collateralPoolBalance);\n    }\n\n    /// @dev handles all needed internal accounting when a user enters into a new trade\n    /// @param userAddress storage struct containing position information for this user\n    /// @param qty signed quantity this users position is changing by, + for buy and - for sell\n    /// @param price transacted price of the new position / trade\n    function updatePosition(\n        address userAddress,\n        int qty,\n        uint price\n    ) private\n    {\n        UserNetPosition storage userNetPosition = addressToUserPosition[userAddress];\n        if (userNetPosition.netPosition == 0 || userNetPosition.netPosition.isSameSign(qty)) {\n            // new position or adding to open pos\n            addUserNetPosition(\n                userNetPosition,\n                userAddress,\n                qty,\n                price\n            );\n        } else {  // opposite side from open position, reduce, flattened, or flipped.\n            if (userNetPosition.netPosition >= qty * -1) { // pos is reduced or flattened\n                reduceUserNetPosition(\n                    userNetPosition,\n                    userAddress,\n                    qty,\n                    price\n                );\n            } else {    // pos is flipped, reduce and then create new open pos!\n\n                reduceUserNetPosition(\n                    userNetPosition,\n                    userAddress,\n                    userNetPosition.netPosition * -1,\n                    price\n                ); // flatten completely\n\n                int newNetPos = userNetPosition.netPosition + qty;            // the portion remaining after flattening\n                addUserNetPosition(\n                    userNetPosition,\n                    userAddress,\n                    newNetPos,\n                    price\n                );\n            }\n        }\n        userNetPosition.netPosition = userNetPosition.netPosition.add(qty);   // keep track of total net pos across all prices for user.\n    }\n\n    /// @dev calculates the needed collateral for a new position and commits it to the pool removing it from the\n    /// users account and creates the needed Position struct to record the new position.\n    /// @param userNetPosition current positions held by user\n    /// @param userAddress address of user entering into the position\n    /// @param qty signed quantity of the trade\n    /// @param price agreed price of trade\n    function addUserNetPosition(\n        UserNetPosition storage userNetPosition,\n        address userAddress,\n        int qty,\n        uint price\n    ) private\n    {\n        uint neededCollateral = MathLib.calculateNeededCollateral(\n            MKT_CONTRACT.PRICE_FLOOR(),\n            MKT_CONTRACT.PRICE_CAP(),\n            MKT_CONTRACT.QTY_MULTIPLIER(),\n            qty,\n            price\n        );\n        commitCollateralToPool(userAddress, neededCollateral);\n        userNetPosition.positions.push(Position(price, qty));   // append array with new position\n    }\n\n    /// @dev reduces net position correctly allocating collateral back to user\n    /// @param userNetPos storage struct for this users position\n    /// @param userAddress address of user who is reducing their pos\n    /// @param qty signed quantity of the qty to reduce this users position by\n    /// @param price transacted price\n    function reduceUserNetPosition(\n        UserNetPosition storage userNetPos,\n        address userAddress,\n        int qty,\n        uint price\n    ) private\n    {\n        uint collateralToReturnToUserAccount = 0;\n        int qtyToReduce = qty;                      // note: this sign is opposite of our users position\n        assert(userNetPos.positions.length != 0);   // sanity check\n        while (qtyToReduce != 0) {   //TODO: ensure we dont run out of gas here!\n            Position storage position = userNetPos.positions[userNetPos.positions.length - 1];  // get the last pos (LIFO)\n            if (position.qty.abs() <= qtyToReduce.abs()) {   // this position is completely consumed!\n                collateralToReturnToUserAccount = collateralToReturnToUserAccount.add(\n                    MathLib.calculateNeededCollateral(\n                        MKT_CONTRACT.PRICE_FLOOR(),\n                        MKT_CONTRACT.PRICE_CAP(),\n                        MKT_CONTRACT.QTY_MULTIPLIER(),\n                        position.qty,\n                        price\n                    )\n                );\n                qtyToReduce = qtyToReduce.add(position.qty);\n                userNetPos.positions.length--;  // remove this position from our array.\n            } else {  // this position stays, just reduce the qty.\n                position.qty = position.qty.add(qtyToReduce);\n                // pos is opp sign of qty we are reducing here!\n                collateralToReturnToUserAccount = collateralToReturnToUserAccount.add(\n                    MathLib.calculateNeededCollateral(\n                        MKT_CONTRACT.PRICE_FLOOR(),\n                        MKT_CONTRACT.PRICE_CAP(),\n                        MKT_CONTRACT.QTY_MULTIPLIER(),\n                        qtyToReduce * -1,\n                        price\n                    )\n                );\n//                qtyToReduce = 0; // completely reduced now!\n                break;\n            }\n        }\n\n        if (collateralToReturnToUserAccount != 0) {  // allocate funds back to user acct.\n            withdrawCollateralFromPool(userAddress, collateralToReturnToUserAccount);\n        }\n    }\n}\n",
  "sourcePath": "/home/pelsasser/MARKETProtocol/contracts/MarketCollateralPool.sol",
  "compiler": {
    "name": "solc",
    "version": "0.4.23+commit.124ca40d.Emscripten.clang"
  },
  "schemaVersion": "2.0.0",
  "updatedAt": "2018-05-25T01:35:13.872Z"
}