{
  "contractName": "MarketContractRegistry",
  "abi": [
    {
      "constant": true,
      "inputs": [],
      "name": "owner",
      "outputs": [
        {
          "name": "",
          "type": "address"
        }
      ],
      "payable": false,
      "stateMutability": "view",
      "type": "function"
    },
    {
      "constant": false,
      "inputs": [
        {
          "name": "newOwner",
          "type": "address"
        }
      ],
      "name": "transferOwnership",
      "outputs": [],
      "payable": false,
      "stateMutability": "nonpayable",
      "type": "function"
    },
    {
      "anonymous": false,
      "inputs": [
        {
          "indexed": true,
          "name": "contractAddress",
          "type": "address"
        }
      ],
      "name": "AddressAddedToWhitelist",
      "type": "event"
    },
    {
      "anonymous": false,
      "inputs": [
        {
          "indexed": true,
          "name": "contractAddress",
          "type": "address"
        }
      ],
      "name": "AddressRemovedFromWhitelist",
      "type": "event"
    },
    {
      "anonymous": false,
      "inputs": [
        {
          "indexed": true,
          "name": "previousOwner",
          "type": "address"
        },
        {
          "indexed": true,
          "name": "newOwner",
          "type": "address"
        }
      ],
      "name": "OwnershipTransferred",
      "type": "event"
    },
    {
      "constant": true,
      "inputs": [
        {
          "name": "contractAddress",
          "type": "address"
        }
      ],
      "name": "isAddressWhiteListed",
      "outputs": [
        {
          "name": "",
          "type": "bool"
        }
      ],
      "payable": false,
      "stateMutability": "view",
      "type": "function"
    },
    {
      "constant": true,
      "inputs": [],
      "name": "getAddressWhiteList",
      "outputs": [
        {
          "name": "",
          "type": "address[]"
        }
      ],
      "payable": false,
      "stateMutability": "view",
      "type": "function"
    },
    {
      "constant": false,
      "inputs": [
        {
          "name": "contractAddress",
          "type": "address"
        },
        {
          "name": "whiteListIndex",
          "type": "uint256"
        }
      ],
      "name": "removeContractFromWhiteList",
      "outputs": [
        {
          "name": "",
          "type": "bool"
        }
      ],
      "payable": false,
      "stateMutability": "nonpayable",
      "type": "function"
    },
    {
      "constant": false,
      "inputs": [
        {
          "name": "contractAddress",
          "type": "address"
        }
      ],
      "name": "addAddressToWhiteList",
      "outputs": [],
      "payable": false,
      "stateMutability": "nonpayable",
      "type": "function"
    }
  ],
  "bytecode": "0x6060604052336000806101000a81548173ffffffffffffffffffffffffffffffffffffffff021916908373ffffffffffffffffffffffffffffffffffffffff160217905550610a3e806100536000396000f300606060405260043610610078576000357c0100000000000000000000000000000000000000000000000000000000900463ffffffff1680638da5cb5b1461007d5780639244f496146100d2578063ad23de631461010b578063c6f5d91f1461015c578063d8fbbf31146101c6578063f2fde38b14610220575b600080fd5b341561008857600080fd5b610090610259565b604051808273ffffffffffffffffffffffffffffffffffffffff1673ffffffffffffffffffffffffffffffffffffffff16815260200191505060405180910390f35b34156100dd57600080fd5b610109600480803573ffffffffffffffffffffffffffffffffffffffff1690602001909190505061027e565b005b341561011657600080fd5b610142600480803573ffffffffffffffffffffffffffffffffffffffff169060200190919050506104c4565b604051808215151515815260200191505060405180910390f35b341561016757600080fd5b61016f61051a565b6040518080602001828103825283818151815260200191508051906020019060200280838360005b838110156101b2578082015181840152602081019050610197565b505050509050019250505060405180910390f35b34156101d157600080fd5b610206600480803573ffffffffffffffffffffffffffffffffffffffff169060200190919080359060200190919050506105ae565b604051808215151515815260200191505060405180910390f35b341561022b57600080fd5b610257600480803573ffffffffffffffffffffffffffffffffffffffff1690602001909190505061082c565b005b6000809054906101000a900473ffffffffffffffffffffffffffffffffffffffff1681565b6000809054906101000a900473ffffffffffffffffffffffffffffffffffffffff1673ffffffffffffffffffffffffffffffffffffffff163373ffffffffffffffffffffffffffffffffffffffff161415156102d957600080fd5b600160008273ffffffffffffffffffffffffffffffffffffffff1673ffffffffffffffffffffffffffffffffffffffff16815260200190815260200160002060009054906101000a900460ff1615151561033257600080fd5b8073ffffffffffffffffffffffffffffffffffffffff16633b3c4ae96000604051602001526040518163ffffffff167c0100000000000000000000000000000000000000000000000000000000028152600401602060405180830381600087803b151561039e57600080fd5b6102c65a03f115156103af57600080fd5b5050506040518051905015156103c457600080fd5b60018060008373ffffffffffffffffffffffffffffffffffffffff1673ffffffffffffffffffffffffffffffffffffffff16815260200190815260200160002060006101000a81548160ff0219169083151502179055506002805480600101828161042f9190610981565b9160005260206000209001600083909190916101000a81548173ffffffffffffffffffffffffffffffffffffffff021916908373ffffffffffffffffffffffffffffffffffffffff160217905550508073ffffffffffffffffffffffffffffffffffffffff167f534d18c8ff24ba5980906d732f3075704749427353734fbbf05d50485643b12460405160405180910390a250565b6000600160008373ffffffffffffffffffffffffffffffffffffffff1673ffffffffffffffffffffffffffffffffffffffff16815260200190815260200160002060009054906101000a900460ff169050919050565b6105226109ad565b60028054806020026020016040519081016040528092919081815260200182805480156105a457602002820191906000526020600020905b8160009054906101000a900473ffffffffffffffffffffffffffffffffffffffff1673ffffffffffffffffffffffffffffffffffffffff168152602001906001019080831161055a575b5050505050905090565b60008060009054906101000a900473ffffffffffffffffffffffffffffffffffffffff1673ffffffffffffffffffffffffffffffffffffffff163373ffffffffffffffffffffffffffffffffffffffff1614151561060b57600080fd5b600160008473ffffffffffffffffffffffffffffffffffffffff1673ffffffffffffffffffffffffffffffffffffffff16815260200190815260200160002060009054906101000a900460ff16151561066357600080fd5b8273ffffffffffffffffffffffffffffffffffffffff1660028381548110151561068957fe5b906000526020600020900160009054906101000a900473ffffffffffffffffffffffffffffffffffffffff1673ffffffffffffffffffffffffffffffffffffffff161415156106d757600080fd5b6000600160008573ffffffffffffffffffffffffffffffffffffffff1673ffffffffffffffffffffffffffffffffffffffff16815260200190815260200160002060006101000a81548160ff021916908315150217905550600260016002805490500381548110151561074657fe5b906000526020600020900160009054906101000a900473ffffffffffffffffffffffffffffffffffffffff1660028381548110151561078157fe5b906000526020600020900160006101000a81548173ffffffffffffffffffffffffffffffffffffffff021916908373ffffffffffffffffffffffffffffffffffffffff16021790555060016002818180549050039150816107e291906109c1565b508273ffffffffffffffffffffffffffffffffffffffff167f535611fb62fa2a833988f283b779e417e996813e44046f521d76c17b5943b08c60405160405180910390a292915050565b6000809054906101000a900473ffffffffffffffffffffffffffffffffffffffff1673ffffffffffffffffffffffffffffffffffffffff163373ffffffffffffffffffffffffffffffffffffffff1614151561088757600080fd5b600073ffffffffffffffffffffffffffffffffffffffff168173ffffffffffffffffffffffffffffffffffffffff16141515156108c357600080fd5b8073ffffffffffffffffffffffffffffffffffffffff166000809054906101000a900473ffffffffffffffffffffffffffffffffffffffff1673ffffffffffffffffffffffffffffffffffffffff167f8be0079c531659141344cd1fd0a4f28419497f9722a3daafe3b4186f6b6457e060405160405180910390a3806000806101000a81548173ffffffffffffffffffffffffffffffffffffffff021916908373ffffffffffffffffffffffffffffffffffffffff16021790555050565b8154818355818115116109a8578183600052602060002091820191016109a791906109ed565b5b505050565b602060405190810160405280600081525090565b8154818355818115116109e8578183600052602060002091820191016109e791906109ed565b5b505050565b610a0f91905b80821115610a0b5760008160009055506001016109f3565b5090565b905600a165627a7a723058201725b34993853db7344c35e7100f0050e5aa1c152376eb5b78276dde68617cc50029",
  "source": "/*\n    Copyright 2017-2018 Phillip A. Elsasser\n\n    Licensed under the Apache License, Version 2.0 (the \"License\");\n    you may not use this file except in compliance with the License.\n    You may obtain a copy of the License at\n\n    http://www.apache.org/licenses/LICENSE-2.0\n\n    Unless required by applicable law or agreed to in writing, software\n    distributed under the License is distributed on an \"AS IS\" BASIS,\n    WITHOUT WARRANTIES OR CONDITIONS OF ANY KIND, either express or implied.\n    See the License for the specific language governing permissions and\n    limitations under the License.\n*/\n\npragma solidity ^0.4.18;\n\nimport \"./MarketContract.sol\";\nimport \"zeppelin-solidity/contracts/ownership/Ownable.sol\";\n\n\n/// @title MarketContractRegistry\n/// @author Phil Elsasser <phil@marketprotocol.io>\ncontract MarketContractRegistry is Ownable {\n\n    mapping(address => bool) isWhiteListed;\n    address[] addressWhiteList;            // record of currently deployed addresses;\n\n    // events\n    event AddressAddedToWhitelist(address indexed contractAddress);\n    event AddressRemovedFromWhitelist(address indexed contractAddress);\n\n    /// @notice determines if an address is a valid MarketContract\n    /// @return false if the address is not white listed.\n    function isAddressWhiteListed(address contractAddress) external view returns (bool) {\n        return isWhiteListed[contractAddress];\n    }\n\n    /// @notice all currently whitelisted addresses\n    /// returns array of addresses\n    function getAddressWhiteList() external view returns (address[]) {\n        return addressWhiteList;\n    }\n\n    /// @dev allows for the owner to remove a white listed contract, eventually ownership could transition to\n    /// a decentralized smart contract of community members to vote\n    /// @param contractAddress contract to removed from white list\n    /// @param whiteListIndex of the contractAddress in the addressWhiteList to be removed.\n    function removeContractFromWhiteList(address contractAddress, uint whiteListIndex) external onlyOwner returns (bool) {\n        require(isWhiteListed[contractAddress]);\n        require(addressWhiteList[whiteListIndex] == contractAddress);\n        isWhiteListed[contractAddress] = false;\n\n        // push the last item in array to replace the address we are removing and then trim the array.\n        addressWhiteList[whiteListIndex] = addressWhiteList[addressWhiteList.length - 1];\n        addressWhiteList.length -= 1;\n        AddressRemovedFromWhitelist(contractAddress);\n    }\n\n    /// @dev allows for the owner to add a white listed contract, eventually ownership could transition to\n    /// a decentralized smart contract of community members to vote\n    /// @param contractAddress contract to removed from white list\n    function addAddressToWhiteList(address contractAddress) external onlyOwner {\n        require(!isWhiteListed[contractAddress]);\n        require(MarketContract(contractAddress).isCollateralPoolContractLinked());\n        isWhiteListed[contractAddress] = true;\n        addressWhiteList.push(contractAddress);\n        AddressAddedToWhitelist(contractAddress);\n    }\n}\n",
  "sourcePath": "/home/pelsasser/MARKETProtocol/contracts/MarketContractRegistry.sol",
  "compiler": {
    "name": "solc",
    "version": "0.4.19+commit.c4cbbb05.Emscripten.clang"
  },
  "schemaVersion": "2.0.0",
  "updatedAt": "2018-04-11T18:55:19.683Z"
}