{
  "contractName": "MarketContractFactoryOraclize",
  "abi": [
    {
      "constant": true,
      "inputs": [],
      "name": "MKT_TOKEN_ADDRESS",
      "outputs": [
        {
          "name": "",
          "type": "address"
        }
      ],
      "payable": false,
      "stateMutability": "view",
      "type": "function"
    },
    {
      "constant": true,
      "inputs": [],
      "name": "owner",
      "outputs": [
        {
          "name": "",
          "type": "address"
        }
      ],
      "payable": false,
      "stateMutability": "view",
      "type": "function"
    },
    {
      "constant": true,
      "inputs": [],
      "name": "marketContractRegistry",
      "outputs": [
        {
          "name": "",
          "type": "address"
        }
      ],
      "payable": false,
      "stateMutability": "view",
      "type": "function"
    },
    {
      "constant": false,
      "inputs": [
        {
          "name": "newOwner",
          "type": "address"
        }
      ],
      "name": "transferOwnership",
      "outputs": [],
      "payable": false,
      "stateMutability": "nonpayable",
      "type": "function"
    },
    {
      "inputs": [
        {
          "name": "registryAddress",
          "type": "address"
        },
        {
          "name": "mktTokenAddress",
          "type": "address"
        }
      ],
      "payable": false,
      "stateMutability": "nonpayable",
      "type": "constructor"
    },
    {
      "anonymous": false,
      "inputs": [
        {
          "indexed": true,
          "name": "previousRegistry",
          "type": "address"
        },
        {
          "indexed": true,
          "name": "newRegistry",
          "type": "address"
        }
      ],
      "name": "RegistryChanged",
      "type": "event"
    },
    {
      "anonymous": false,
      "inputs": [
        {
          "indexed": true,
          "name": "contractAddress",
          "type": "address"
        }
      ],
      "name": "MarketContractCreated",
      "type": "event"
    },
    {
      "anonymous": false,
      "inputs": [
        {
          "indexed": true,
          "name": "previousOwner",
          "type": "address"
        },
        {
          "indexed": true,
          "name": "newOwner",
          "type": "address"
        }
      ],
      "name": "OwnershipTransferred",
      "type": "event"
    },
    {
      "constant": false,
      "inputs": [
        {
          "name": "contractName",
          "type": "string"
        },
        {
          "name": "baseTokenAddress",
          "type": "address"
        },
        {
          "name": "contractSpecs",
          "type": "uint256[5]"
        },
        {
          "name": "oracleDataSource",
          "type": "string"
        },
        {
          "name": "oracleQuery",
          "type": "string"
        }
      ],
      "name": "deployMarketContractOraclize",
      "outputs": [],
      "payable": false,
      "stateMutability": "nonpayable",
      "type": "function"
    },
    {
      "constant": false,
      "inputs": [
        {
          "name": "registryAddress",
          "type": "address"
        }
      ],
      "name": "setRegistryAddress",
      "outputs": [],
      "payable": false,
      "stateMutability": "nonpayable",
      "type": "function"
    }
  ],
  "bytecode": "0x608060405234801561001057600080fd5b50604051604080615ed98339810180604052810190808051906020019092919080519060200190929190505050336000806101000a81548173ffffffffffffffffffffffffffffffffffffffff021916908373ffffffffffffffffffffffffffffffffffffffff16021790555081600160006101000a81548173ffffffffffffffffffffffffffffffffffffffff021916908373ffffffffffffffffffffffffffffffffffffffff16021790555080600260006101000a81548173ffffffffffffffffffffffffffffffffffffffff021916908373ffffffffffffffffffffffffffffffffffffffff1602179055505050615dc9806101106000396000f3006080604052600436106200007f576000357c0100000000000000000000000000000000000000000000000000000000900463ffffffff168063798ddbc814620000845780638da5cb5b14620000de578063ab7b49931462000138578063ceaaa915146200017e578063f2fde38b14620001d8578063fdea945f146200021e575b600080fd5b3480156200009157600080fd5b506200009c620002b6565b604051808273ffffffffffffffffffffffffffffffffffffffff1673ffffffffffffffffffffffffffffffffffffffff16815260200191505060405180910390f35b348015620000eb57600080fd5b50620000f6620002dc565b604051808273ffffffffffffffffffffffffffffffffffffffff1673ffffffffffffffffffffffffffffffffffffffff16815260200191505060405180910390f35b3480156200014557600080fd5b506200017c600480360381019080803573ffffffffffffffffffffffffffffffffffffffff16906020019092919050505062000301565b005b3480156200018b57600080fd5b50620001966200045a565b604051808273ffffffffffffffffffffffffffffffffffffffff1673ffffffffffffffffffffffffffffffffffffffff16815260200191505060405180910390f35b348015620001e557600080fd5b506200021c600480360381019080803573ffffffffffffffffffffffffffffffffffffffff16906020019092919050505062000480565b005b3480156200022b57600080fd5b50620002b4600480360381019080803590602001908201803590602001919091929391929390803573ffffffffffffffffffffffffffffffffffffffff1690602001909291908060a001909192919290803590602001908201803590602001919091929391929390803590602001908201803590602001919091929391929390505050620005d7565b005b600260009054906101000a900473ffffffffffffffffffffffffffffffffffffffff1681565b6000809054906101000a900473ffffffffffffffffffffffffffffffffffffffff1681565b6000809054906101000a900473ffffffffffffffffffffffffffffffffffffffff1673ffffffffffffffffffffffffffffffffffffffff163373ffffffffffffffffffffffffffffffffffffffff161415156200035d57600080fd5b600073ffffffffffffffffffffffffffffffffffffffff168173ffffffffffffffffffffffffffffffffffffffff16141515156200039a57600080fd5b8073ffffffffffffffffffffffffffffffffffffffff16600160009054906101000a900473ffffffffffffffffffffffffffffffffffffffff1673ffffffffffffffffffffffffffffffffffffffff167f4803049971913703d2dd43c06110dc7fad451e4603e9f485cbeebdda11263ab060405160405180910390a380600160006101000a81548173ffffffffffffffffffffffffffffffffffffffff021916908373ffffffffffffffffffffffffffffffffffffffff16021790555050565b600160009054906101000a900473ffffffffffffffffffffffffffffffffffffffff1681565b6000809054906101000a900473ffffffffffffffffffffffffffffffffffffffff1673ffffffffffffffffffffffffffffffffffffffff163373ffffffffffffffffffffffffffffffffffffffff16141515620004dc57600080fd5b600073ffffffffffffffffffffffffffffffffffffffff168173ffffffffffffffffffffffffffffffffffffffff16141515156200051957600080fd5b8073ffffffffffffffffffffffffffffffffffffffff166000809054906101000a900473ffffffffffffffffffffffffffffffffffffffff1673ffffffffffffffffffffffffffffffffffffffff167f8be0079c531659141344cd1fd0a4f28419497f9722a3daafe3b4186f6b6457e060405160405180910390a3806000806101000a81548173ffffffffffffffffffffffffffffffffffffffff021916908373ffffffffffffffffffffffffffffffffffffffff16021790555050565b6000888833600260009054906101000a900473ffffffffffffffffffffffffffffffffffffffff168a8a8a8a8a8a6200060f62000860565b80806020018a73ffffffffffffffffffffffffffffffffffffffff1673ffffffffffffffffffffffffffffffffffffffff1681526020018973ffffffffffffffffffffffffffffffffffffffff1673ffffffffffffffffffffffffffffffffffffffff1681526020018873ffffffffffffffffffffffffffffffffffffffff1673ffffffffffffffffffffffffffffffffffffffff168152602001876005602002808284378201915050806020018060200184810384528e8e82818152602001925080828437820191505084810383528888828181526020019250808284378201915050848103825286868281815260200192508082843782019150509d5050505050505050505050505050604051809103906000f08015801562000738573d6000803e3d6000fd5b509050600160009054906101000a900473ffffffffffffffffffffffffffffffffffffffff1673ffffffffffffffffffffffffffffffffffffffff16639244f496826040518263ffffffff167c0100000000000000000000000000000000000000000000000000000000028152600401808273ffffffffffffffffffffffffffffffffffffffff1673ffffffffffffffffffffffffffffffffffffffff168152602001915050600060405180830381600087803b158015620007f957600080fd5b505af11580156200080e573d6000803e3d6000fd5b505050508073ffffffffffffffffffffffffffffffffffffffff167fd9209e7a166f308dcc8da530a64b12ef0c798fc9050cd52470e60f371161111160405160405180910390a2505050505050505050565b60405161552c806200087283390190560060806040526000600c60006101000a81548160ff0219169083151502179055506000600c60016101000a81548160ff0219169083151502179055503480156200004757600080fd5b506040516200552c3803806200552c8339810180604052810190808051820192919060200180519060200190929190805190602001909291908051906020019092919091908260a001805182019291906020018051820192919050505060008787878787336000806101000a81548173ffffffffffffffffffffffffffffffffffffffff021916908373ffffffffffffffffffffffffffffffffffffffff16021790555082600160006101000a81548173ffffffffffffffffffffffffffffffffffffffff021916908373ffffffffffffffffffffffffffffffffffffffff16021790555082600260006101000a81548173ffffffffffffffffffffffffffffffffffffffff021916908373ffffffffffffffffffffffffffffffffffffffff160217905550600260009054906101000a900473ffffffffffffffffffffffffffffffffffffffff1673ffffffffffffffffffffffffffffffffffffffff166384281dcc336040518263ffffffff167c0100000000000000000000000000000000000000000000000000000000028152600401808273ffffffffffffffffffffffffffffffffffffffff1673ffffffffffffffffffffffffffffffffffffffff168152602001915050602060405180830381600087803b1580156200022b57600080fd5b505af115801562000240573d6000803e3d6000fd5b505050506040513d60208110156200025757600080fd5b810190808051906020019092919050505015156200027457600080fd5b8060006005811015156200028457fe5b60200201516006819055508060016005811015156200029f57fe5b6020020151600581905550600654600554111515620002bd57600080fd5b806002600581101515620002cd57fe5b6020020151600781905550806003600581101515620002e857fe5b60200201516008819055508060046005811015156200030357fe5b6020020151600981905550426009541115156200031f57600080fd5b84600390805190602001906200033792919062001582565b5081600460006101000a81548173ffffffffffffffffffffffffffffffffffffffff021916908373ffffffffffffffffffffffffffffffffffffffff160217905550836000806101000a81548173ffffffffffffffffffffffffffffffffffffffff021916908373ffffffffffffffffffffffffffffffffffffffff16021790555050505050506200042060017f01000000000000000000000000000000000000000000000000000000000000000260107f01000000000000000000000000000000000000000000000000000000000000000217620004a4640100000000026401000000009004565b82601390805190602001906200043892919062001582565b5081601490805190602001906200045192919062001582565b50426009541115156200046357600080fd5b624f1a009050804260095403111515156200047d57600080fd5b620004966200085c640100000000026401000000009004565b505050505050505062001631565b6000601060009054906101000a900473ffffffffffffffffffffffffffffffffffffffff1673ffffffffffffffffffffffffffffffffffffffff161480620005275750600062000525601060009054906101000a900473ffffffffffffffffffffffffffffffffffffffff1662000a0d640100000000026401000000009004565b145b156200054a5762000548600062000a18640100000000026401000000009004565b505b601060009054906101000a900473ffffffffffffffffffffffffffffffffffffffff1673ffffffffffffffffffffffffffffffffffffffff166338cc48316040518163ffffffff167c0100000000000000000000000000000000000000000000000000000000028152600401602060405180830381600087803b158015620005d157600080fd5b505af1158015620005e6573d6000803e3d6000fd5b505050506040513d6020811015620005fd57600080fd5b810190808051906020019092919050505073ffffffffffffffffffffffffffffffffffffffff16601160009054906101000a900473ffffffffffffffffffffffffffffffffffffffff1673ffffffffffffffffffffffffffffffffffffffff161415156200076a57601060009054906101000a900473ffffffffffffffffffffffffffffffffffffffff1673ffffffffffffffffffffffffffffffffffffffff166338cc48316040518163ffffffff167c0100000000000000000000000000000000000000000000000000000000028152600401602060405180830381600087803b158015620006ec57600080fd5b505af115801562000701573d6000803e3d6000fd5b505050506040513d60208110156200071857600080fd5b8101908080519060200190929190505050601160006101000a81548173ffffffffffffffffffffffffffffffffffffffff021916908373ffffffffffffffffffffffffffffffffffffffff1602179055505b601160009054906101000a900473ffffffffffffffffffffffffffffffffffffffff1673ffffffffffffffffffffffffffffffffffffffff1663688dcfd7826040518263ffffffff167c010000000000000000000000000000000000000000000000000000000002815260040180827effffffffffffffffffffffffffffffffffffffffffffffffffffffffffffff19167effffffffffffffffffffffffffffffffffffffffffffffffffffffffffffff19168152602001915050600060405180830381600087803b1580156200084057600080fd5b505af115801562000855573d6000803e3d6000fd5b5050505050565b6000620009bc60095460138054600181600116156101000203166002900480601f016020809104026020016040519081016040528092919081815260200182805460018160011615610100020316600290048015620008ff5780601f10620008d357610100808354040283529160200191620008ff565b820191906000526020600020905b815481529060010190602001808311620008e157829003601f168201915b505050505060148054600181600116156101000203166002900480601f0160208091040260200160405190810160405280929190818152602001828054600181600116156101000203166002900480156200099e5780601f1062000972576101008083540402835291602001916200099e565b820191906000526020600020905b8154815290600101906020018083116200098057829003601f168201915b5050505050620249f062000a3a640100000000026401000000009004565b90506000600102816000191614151515620009d657600080fd5b600160166000836000191660001916815260200190815260200160002060006101000a81548160ff02191690831515021790555050565b6000813b9050919050565b600062000a3362001007640100000000026401000000009004565b9050919050565b6000806000601060009054906101000a900473ffffffffffffffffffffffffffffffffffffffff1673ffffffffffffffffffffffffffffffffffffffff16148062000ac05750600062000abe601060009054906101000a900473ffffffffffffffffffffffffffffffffffffffff1662000a0d640100000000026401000000009004565b145b1562000ae35762000ae1600062000a18640100000000026401000000009004565b505b601060009054906101000a900473ffffffffffffffffffffffffffffffffffffffff1673ffffffffffffffffffffffffffffffffffffffff166338cc48316040518163ffffffff167c0100000000000000000000000000000000000000000000000000000000028152600401602060405180830381600087803b15801562000b6a57600080fd5b505af115801562000b7f573d6000803e3d6000fd5b505050506040513d602081101562000b9657600080fd5b810190808051906020019092919050505073ffffffffffffffffffffffffffffffffffffffff16601160009054906101000a900473ffffffffffffffffffffffffffffffffffffffff1673ffffffffffffffffffffffffffffffffffffffff1614151562000d0357601060009054906101000a900473ffffffffffffffffffffffffffffffffffffffff1673ffffffffffffffffffffffffffffffffffffffff166338cc48316040518163ffffffff167c0100000000000000000000000000000000000000000000000000000000028152600401602060405180830381600087803b15801562000c8557600080fd5b505af115801562000c9a573d6000803e3d6000fd5b505050506040513d602081101562000cb157600080fd5b8101908080519060200190929190505050601160006101000a81548173ffffffffffffffffffffffffffffffffffffffff021916908373ffffffffffffffffffffffffffffffffffffffff1602179055505b601160009054906101000a900473ffffffffffffffffffffffffffffffffffffffff1673ffffffffffffffffffffffffffffffffffffffff16632ef3accc86856040518363ffffffff167c01000000000000000000000000000000000000000000000000000000000281526004018080602001838152602001828103825284818151815260200191508051906020019080838360005b8381101562000db657808201518184015260208101905062000d99565b50505050905090810190601f16801562000de45780820380516001836020036101000a031916815260200191505b509350505050602060405180830381600087803b15801562000e0557600080fd5b505af115801562000e1a573d6000803e3d6000fd5b505050506040513d602081101562000e3157600080fd5b81019080805190602001909291905050509050601160009054906101000a900473ffffffffffffffffffffffffffffffffffffffff1673ffffffffffffffffffffffffffffffffffffffff1663c51be90f82888888886040518663ffffffff167c0100000000000000000000000000000000000000000000000000000000028152600401808581526020018060200180602001848152602001838103835286818151815260200191508051906020019080838360005b8381101562000f0457808201518184015260208101905062000ee7565b50505050905090810190601f16801562000f325780820380516001836020036101000a031916815260200191505b50838103825285818151815260200191508051906020019080838360005b8381101562000f6d57808201518184015260208101905062000f50565b50505050905090810190601f16801562000f9b5780820380516001836020036101000a031916815260200191505b5096505050505050506020604051808303818588803b15801562000fbe57600080fd5b505af115801562000fd3573d6000803e3d6000fd5b50505050506040513d602081101562000feb57600080fd5b8101908080519060200190929190505050915050949350505050565b60008062001038731d3b2638a7cc9f2cb3d298a3da7a90b67e5506ed62000a0d640100000000026401000000009004565b1115620010ed57731d3b2638a7cc9f2cb3d298a3da7a90b67e5506ed601060006101000a81548173ffffffffffffffffffffffffffffffffffffffff021916908373ffffffffffffffffffffffffffffffffffffffff160217905550620010e36040805190810160405280600b81526020017f6574685f6d61696e6e657400000000000000000000000000000000000000000081525062001566640100000000026401000000009004565b6001905062001563565b60006200111d73c03a2615d5efaf5f49f60b7bb6583eaec212fdf162000a0d640100000000026401000000009004565b1115620011d25773c03a2615d5efaf5f49f60b7bb6583eaec212fdf1601060006101000a81548173ffffffffffffffffffffffffffffffffffffffff021916908373ffffffffffffffffffffffffffffffffffffffff160217905550620011c86040805190810160405280600c81526020017f6574685f726f707374656e33000000000000000000000000000000000000000081525062001566640100000000026401000000009004565b6001905062001563565b60006200120273b7a07bcf2ba2f2703b24c0691b5278999c59ac7e62000a0d640100000000026401000000009004565b1115620012b75773b7a07bcf2ba2f2703b24c0691b5278999c59ac7e601060006101000a81548173ffffffffffffffffffffffffffffffffffffffff021916908373ffffffffffffffffffffffffffffffffffffffff160217905550620012ad6040805190810160405280600981526020017f6574685f6b6f76616e000000000000000000000000000000000000000000000081525062001566640100000000026401000000009004565b6001905062001563565b6000620012e773146500cfd35b22e4a392fe0adc06de1a1368ed4862000a0d640100000000026401000000009004565b11156200139c5773146500cfd35b22e4a392fe0adc06de1a1368ed48601060006101000a81548173ffffffffffffffffffffffffffffffffffffffff021916908373ffffffffffffffffffffffffffffffffffffffff160217905550620013926040805190810160405280600b81526020017f6574685f72696e6b65627900000000000000000000000000000000000000000081525062001566640100000000026401000000009004565b6001905062001563565b6000620013cc736f485c8bf6fc43ea212e93bbf8ce046c7f1cb47562000a0d640100000000026401000000009004565b11156200143257736f485c8bf6fc43ea212e93bbf8ce046c7f1cb475601060006101000a81548173ffffffffffffffffffffffffffffffffffffffff021916908373ffffffffffffffffffffffffffffffffffffffff1602179055506001905062001563565b6000620014627320e12a1f859b3feae5fb2a0a32c18f5a65555bbf62000a0d640100000000026401000000009004565b1115620014c8577320e12a1f859b3feae5fb2a0a32c18f5a65555bbf601060006101000a81548173ffffffffffffffffffffffffffffffffffffffff021916908373ffffffffffffffffffffffffffffffffffffffff1602179055506001905062001563565b6000620014f87351efaf4c8b3c9afbd5ab9f4bbc82784ab6ef8faa62000a0d640100000000026401000000009004565b11156200155e577351efaf4c8b3c9afbd5ab9f4bbc82784ab6ef8faa601060006101000a81548173ffffffffffffffffffffffffffffffffffffffff021916908373ffffffffffffffffffffffffffffffffffffffff1602179055506001905062001563565b600090505b90565b80601290805190602001906200157e92919062001582565b5050565b828054600181600116156101000203166002900490600052602060002090601f016020900481019282601f10620015c557805160ff1916838001178555620015f6565b82800160010185558215620015f6579182015b82811115620015f5578251825591602001919060010190620015d8565b5b50905062001605919062001609565b5090565b6200162e91905b808211156200162a57600081600090555060010162001610565b5090565b90565b613eeb80620016416000396000f300608060405260043610610154576000357c0100000000000000000000000000000000000000000000000000000000900463ffffffff16806302d05d3f14610159578063053f14da146101b05780630c8eb675146101db57806327dc297e1461026b5780632fed1b00146102e25780633270bb5b1461030d57806338bbfa501461033c5780633b3c4ae9146103f9578063411449bb146104285780634c258eb11461045357806356357d91146104985780635ea7867a14610528578063614d08f8146105b85780636cee3abb146106485780636db7f77c1461069f578063798ddbc8146106a957806390253ade14610700578063930a9d9214610757578063b5471dee146107df578063bb4b57341461080a578063c201293b14610835578063c32b1dfa14610878578063ca361d67146108a3578063f348e8b2146108ce578063fa3fa196146108f9578063fc51b9c51461093c575b600080fd5b34801561016557600080fd5b5061016e61099b565b604051808273ffffffffffffffffffffffffffffffffffffffff1673ffffffffffffffffffffffffffffffffffffffff16815260200191505060405180910390f35b3480156101bc57600080fd5b506101c56109c0565b6040518082815260200191505060405180910390f35b3480156101e757600080fd5b506101f06109c6565b6040518080602001828103825283818151815260200191508051906020019080838360005b83811015610230578082015181840152602081019050610215565b50505050905090810190601f16801561025d5780820380516001836020036101000a031916815260200191505b509250505060405180910390f35b34801561027757600080fd5b506102e06004803603810190808035600019169060200190929190803590602001908201803590602001908080601f0160208091040260200160405190810160405280939291908181526020018383808284378201915050505050509192919290505050610a64565b005b3480156102ee57600080fd5b506102f7610aa7565b6040518082815260200191505060405180910390f35b34801561031957600080fd5b50610322610aad565b604051808215151515815260200191505060405180910390f35b34801561034857600080fd5b506103f76004803603810190808035600019169060200190929190803590602001908201803590602001908080601f0160208091040260200160405190810160405280939291908181526020018383808284378201915050505050509192919290803590602001908201803590602001908080601f0160208091040260200160405190810160405280939291908181526020018383808284378201915050505050509192919290505050610ac0565b005b34801561040557600080fd5b5061040e610c32565b604051808215151515815260200191505060405180910390f35b34801561043457600080fd5b5061043d610c45565b6040518082815260200191505060405180910390f35b34801561045f57600080fd5b506104826004803603810190808035600019169060200190929190505050610c4c565b6040518082815260200191505060405180910390f35b3480156104a457600080fd5b506104ad610c69565b6040518080602001828103825283818151815260200191508051906020019080838360005b838110156104ed5780820151818401526020810190506104d2565b50505050905090810190601f16801561051a5780820380516001836020036101000a031916815260200191505b509250505060405180910390f35b34801561053457600080fd5b5061053d610d07565b6040518080602001828103825283818151815260200191508051906020019080838360005b8381101561057d578082015181840152602081019050610562565b50505050905090810190601f1680156105aa5780820380516001836020036101000a031916815260200191505b509250505060405180910390f35b3480156105c457600080fd5b506105cd610da5565b6040518080602001828103825283818151815260200191508051906020019080838360005b8381101561060d5780820151818401526020810190506105f2565b50505050905090810190601f16801561063a5780820380516001836020036101000a031916815260200191505b509250505060405180910390f35b34801561065457600080fd5b5061065d610e43565b604051808273ffffffffffffffffffffffffffffffffffffffff1673ffffffffffffffffffffffffffffffffffffffff16815260200191505060405180910390f35b6106a7610e69565b005b3480156106b557600080fd5b506106be6110b7565b604051808273ffffffffffffffffffffffffffffffffffffffff1673ffffffffffffffffffffffffffffffffffffffff16815260200191505060405180910390f35b34801561070c57600080fd5b506107156110dd565b604051808273ffffffffffffffffffffffffffffffffffffffff1673ffffffffffffffffffffffffffffffffffffffff16815260200191505060405180910390f35b34801561076357600080fd5b506107c9600480360381019080806060019091929192908060a0019091929192908035906020019092919080359060200190929190803560ff16906020019092919080356000191690602001909291908035600019169060200190929190505050611103565b6040518082815260200191505060405180910390f35b3480156107eb57600080fd5b506107f4611acb565b6040518082815260200191505060405180910390f35b34801561081657600080fd5b5061081f611ad1565b6040518082815260200191505060405180910390f35b34801561084157600080fd5b50610876600480360381019080803573ffffffffffffffffffffffffffffffffffffffff169060200190929190505050611ad7565b005b34801561088457600080fd5b5061088d611d24565b6040518082815260200191505060405180910390f35b3480156108af57600080fd5b506108b8611d2a565b6040518082815260200191505060405180910390f35b3480156108da57600080fd5b506108e3611d30565b6040518082815260200191505060405180910390f35b34801561090557600080fd5b5061093a600480360381019080803573ffffffffffffffffffffffffffffffffffffffff169060200190929190505050611d36565b005b34801561094857600080fd5b50610985600480360381019080806060019091929192908060a0019091929192908035906020019092919080359060200190929190505050611e8b565b6040518082815260200191505060405180910390f35b6000809054906101000a900473ffffffffffffffffffffffffffffffffffffffff1681565b600a5481565b60158054600181600116156101000203166002900480601f016020809104026020016040519081016040528092919081815260200182805460018160011615610100020316600290048015610a5c5780601f10610a3157610100808354040283529160200191610a5c565b820191906000526020600020905b815481529060010190602001808311610a3f57829003601f168201915b505050505081565b610aa3828260006040519080825280601f01601f191660200182016040528015610a9d5781602001602082028038833980820191505090505b50610ac0565b5050565b60075481565b600c60009054906101000a900460ff1681565b610ac861210f565b73ffffffffffffffffffffffffffffffffffffffff163373ffffffffffffffffffffffffffffffffffffffff16141515610b0157600080fd5b60166000846000191660001916815260200190815260200160002060009054906101000a900460ff161515610b3557600080fd5b8160159080519060200190610b4b929190613d88565b50610b5882600754612471565b600a819055507f3e19f2256bddc30aeab8054ccbd86723452d07f687b94441de69c05ee212dafa826040518080602001828103825283818151815260200191508051906020019080838360005b83811015610bc0578082015181840152602081019050610ba5565b50505050905090810190601f168015610bed5780820380516001836020036101000a031916815260200191505b509250505060405180910390a1610c02612765565b60166000846000191660001916815260200190815260200160002060006101000a81549060ff0219169055505050565b600c60019054906101000a900460ff1681565b620249f081565b6000610c6282600e61283590919063ffffffff16565b9050919050565b60138054600181600116156101000203166002900480601f016020809104026020016040519081016040528092919081815260200182805460018160011615610100020316600290048015610cff5780601f10610cd457610100808354040283529160200191610cff565b820191906000526020600020905b815481529060010190602001808311610ce257829003601f168201915b505050505081565b60148054600181600116156101000203166002900480601f016020809104026020016040519081016040528092919081815260200182805460018160011615610100020316600290048015610d9d5780601f10610d7257610100808354040283529160200191610d9d565b820191906000526020600020905b815481529060010190602001808311610d8057829003601f168201915b505050505081565b60038054600181600116156101000203166002900480601f016020809104026020016040519081016040528092919081815260200182805460018160011615610100020316600290048015610e3b5780601f10610e1057610100808354040283529160200191610e3b565b820191906000526020600020905b815481529060010190602001808311610e1e57829003601f168201915b505050505081565b600460009054906101000a900473ffffffffffffffffffffffffffffffffffffffff1681565b600080610f1360138054600181600116156101000203166002900480601f016020809104026020016040519081016040528092919081815260200182805460018160011615610100020316600290048015610f055780601f10610eda57610100808354040283529160200191610f05565b820191906000526020600020905b815481529060010190602001808311610ee857829003601f168201915b5050505050620249f061288c565b9150813410151515610f2457600080fd5b61106660138054600181600116156101000203166002900480601f016020809104026020016040519081016040528092919081815260200182805460018160011615610100020316600290048015610fbd5780601f10610f9257610100808354040283529160200191610fbd565b820191906000526020600020905b815481529060010190602001808311610fa057829003601f168201915b505050505060148054600181600116156101000203166002900480601f0160208091040260200160405190810160405280929190818152602001828054600181600116156101000203166002900480156110585780601f1061102d57610100808354040283529160200191611058565b820191906000526020600020905b81548152906001019060200180831161103b57829003601f168201915b5050505050620249f0612c69565b9050600060010281600019161415151561107f57600080fd5b600160166000836000191660001916815260200190815260200160002060006101000a81548160ff0219169083151502179055505050565b600160009054906101000a900473ffffffffffffffffffffffffffffffffffffffff1681565b600c60029054906101000a900473ffffffffffffffffffffffffffffffffffffffff1681565b600061110d613e08565b6000806000806000600c60019054906101000a900460ff16801561113e5750600c60009054906101000a900460ff16155b151561114957600080fd5b60008c1415801561115b575060008b14155b801561117657506111758b8d6131fc90919063ffffffff16565b5b151561118157600080fd5b600260009054906101000a900473ffffffffffffffffffffffffffffffffffffffff1673ffffffffffffffffffffffffffffffffffffffff1663cfab472f30336040518363ffffffff167c0100000000000000000000000000000000000000000000000000000000028152600401808373ffffffffffffffffffffffffffffffffffffffff1673ffffffffffffffffffffffffffffffffffffffff1681526020018273ffffffffffffffffffffffffffffffffffffffff1673ffffffffffffffffffffffffffffffffffffffff16815260200192505050602060405180830381600087803b15801561127257600080fd5b505af1158015611286573d6000803e3d6000fd5b505050506040513d602081101561129c57600080fd5b810190808051906020019092919050505015156112b857600080fd5b61132f8e600380602002604051908101604052809291908260036020028082843782019150505050508e600580602002604051908101604052809291908260056020028082843782019150505050508e3073ffffffffffffffffffffffffffffffffffffffff16613216909392919063ffffffff16565b9550600260009054906101000a900473ffffffffffffffffffffffffffffffffffffffff1673ffffffffffffffffffffffffffffffffffffffff1663cfab472f3088600001516040518363ffffffff167c0100000000000000000000000000000000000000000000000000000000028152600401808373ffffffffffffffffffffffffffffffffffffffff1673ffffffffffffffffffffffffffffffffffffffff1681526020018273ffffffffffffffffffffffffffffffffffffffff1673ffffffffffffffffffffffffffffffffffffffff16815260200192505050602060405180830381600087803b15801561142657600080fd5b505af115801561143a573d6000803e3d6000fd5b505050506040513d602081101561145057600080fd5b8101908080519060200190929190505050151561146c57600080fd5b600073ffffffffffffffffffffffffffffffffffffffff16866020015173ffffffffffffffffffffffffffffffffffffffff1614806114da57503373ffffffffffffffffffffffffffffffffffffffff16866020015173ffffffffffffffffffffffffffffffffffffffff16145b15156114e557600080fd5b600073ffffffffffffffffffffffffffffffffffffffff16866000015173ffffffffffffffffffffffffffffffffffffffff161415801561155a5750856020015173ffffffffffffffffffffffffffffffffffffffff16866000015173ffffffffffffffffffffffffffffffffffffffff1614155b151561156557600080fd5b856000015173ffffffffffffffffffffffffffffffffffffffff1673__OrderLib______________________________638163681e90918861010001518d8d8d6040518663ffffffff167c0100000000000000000000000000000000000000000000000000000000028152600401808673ffffffffffffffffffffffffffffffffffffffff1673ffffffffffffffffffffffffffffffffffffffff16815260200185600019166000191681526020018460ff1660ff168152602001836000191660001916815260200182600019166000191681526020019550505050505060206040518083038186803b15801561165b57600080fd5b505af415801561166f573d6000803e3d6000fd5b505050506040513d602081101561168557600080fd5b810190808051906020019092919050505015156116a157600080fd5b8560c00151421015156116fa5785610100015160001916600060018111156116c557fe5b7fe6104340582083fe7674a149f8da127b9d3d7f74a88ccd7610562eb5b61b919360405160405180910390a360009650611aba565b61171a61170b876101000151610c4c565b8d6133a890919063ffffffff16565b94506000851415611770578561010001516000191660018081111561173b57fe5b7fe6104340582083fe7674a149f8da127b9d3d7f74a88ccd7610562eb5b61b919360405160405180910390a360009650611aba565b61177a858c6133bf565b9650600d60009054906101000a900473ffffffffffffffffffffffffffffffffffffffff1673ffffffffffffffffffffffffffffffffffffffff1663eeaba0838760000151338a8a60a001516040518563ffffffff167c0100000000000000000000000000000000000000000000000000000000028152600401808573ffffffffffffffffffffffffffffffffffffffff1673ffffffffffffffffffffffffffffffffffffffff1681526020018473ffffffffffffffffffffffffffffffffffffffff1673ffffffffffffffffffffffffffffffffffffffff168152602001838152602001828152602001945050505050600060405180830381600087803b15801561188557600080fd5b505af1158015611899573d6000803e3d6000fd5b505050506118b886610100015188600e6133e89092919063ffffffff16565b6000935060009250600073ffffffffffffffffffffffffffffffffffffffff16866040015173ffffffffffffffffffffffffffffffffffffffff16141515611a0d576119038761343e565b915061190e8761343e565b9050600086606001511115611990576119368282886060015161345c9092919063ffffffff16565b935061198f8660000151876040015186600260009054906101000a900473ffffffffffffffffffffffffffffffffffffffff1673ffffffffffffffffffffffffffffffffffffffff1661347c909392919063ffffffff16565b5b600086608001511115611a0c576119b68282886080015161345c9092919063ffffffff16565b9250611a0b33876040015185600260009054906101000a900473ffffffffffffffffffffffffffffffffffffffff1673ffffffffffffffffffffffffffffffffffffffff1661347c909392919063ffffffff16565b5b5b856040015173ffffffffffffffffffffffffffffffffffffffff163373ffffffffffffffffffffffffffffffffffffffff16876000015173ffffffffffffffffffffffffffffffffffffffff167f75cbdb818111666ee7e206d94dfeb2d679055e8bc6f34b6f5d30272edd4099908a88888c610100015160405180858152602001848152602001838152602001826000191660001916815260200194505050505060405180910390a48696505b505050505050979650505050505050565b60055481565b60095481565b6000809054906101000a900473ffffffffffffffffffffffffffffffffffffffff1673ffffffffffffffffffffffffffffffffffffffff163373ffffffffffffffffffffffffffffffffffffffff16141515611b3257600080fd5b600c60019054906101000a900460ff16151515611b4e57600080fd5b600073ffffffffffffffffffffffffffffffffffffffff168173ffffffffffffffffffffffffffffffffffffffff1614151515611b8a57600080fd5b80600d60006101000a81548173ffffffffffffffffffffffffffffffffffffffff021916908373ffffffffffffffffffffffffffffffffffffffff1602179055503073ffffffffffffffffffffffffffffffffffffffff16600d60009054906101000a900473ffffffffffffffffffffffffffffffffffffffff1673ffffffffffffffffffffffffffffffffffffffff16637bb55cd26040518163ffffffff167c0100000000000000000000000000000000000000000000000000000000028152600401602060405180830381600087803b158015611c6857600080fd5b505af1158015611c7c573d6000803e3d6000fd5b505050506040513d6020811015611c9257600080fd5b810190808051906020019092919050505073ffffffffffffffffffffffffffffffffffffffff16141515611cc557600080fd5b80600c60026101000a81548173ffffffffffffffffffffffffffffffffffffffff021916908373ffffffffffffffffffffffffffffffffffffffff1602179055506001600c60016101000a81548160ff02191690831515021790555050565b60065481565b60085481565b600b5481565b6000809054906101000a900473ffffffffffffffffffffffffffffffffffffffff1673ffffffffffffffffffffffffffffffffffffffff163373ffffffffffffffffffffffffffffffffffffffff16141515611d9157600080fd5b600073ffffffffffffffffffffffffffffffffffffffff168173ffffffffffffffffffffffffffffffffffffffff1614151515611dcd57600080fd5b8073ffffffffffffffffffffffffffffffffffffffff166000809054906101000a900473ffffffffffffffffffffffffffffffffffffffff1673ffffffffffffffffffffffffffffffffffffffff167f7f11fe0c7098e1a76afcc68f35abaa07ef156fa7d6dd2d39664812fe37348d1660405160405180910390a3806000806101000a81548173ffffffffffffffffffffffffffffffffffffffff021916908373ffffffffffffffffffffffffffffffffffffffff16021790555050565b6000611e95613e08565b6000808414158015611eb65750611eb585856131fc90919063ffffffff16565b5b1515611ec157600080fd5b600c60009054906101000a900460ff16151515611edd57600080fd5b611f5487600380602002604051908101604052809291908260036020028082843782019150505050508760058060200260405190810160405280929190826005602002808284378201915050505050873073ffffffffffffffffffffffffffffffffffffffff16613216909392919063ffffffff16565b91503373ffffffffffffffffffffffffffffffffffffffff16826000015173ffffffffffffffffffffffffffffffffffffffff16141515611f9457600080fd5b8160c0015142101515611fed578161010001516000191660006001811115611fb857fe5b7fe6104340582083fe7674a149f8da127b9d3d7f74a88ccd7610562eb5b61b919360405160405180910390a360009250612105565b61200d611ffe836101000151610c4c565b866133a890919063ffffffff16565b90506000811415612063578161010001516000191660018081111561202e57fe5b7fe6104340582083fe7674a149f8da127b9d3d7f74a88ccd7610562eb5b61b919360405160405180910390a360009250612105565b61206d84826133bf565b925061208a82610100015184600e61359c9092919063ffffffff16565b81610100015160001916826040015173ffffffffffffffffffffffffffffffffffffffff16836000015173ffffffffffffffffffffffffffffffffffffffff167f7de4479e80e82e22edb1e0010433c8befc804c34988024fa0b0234715102cd8f866040518082815260200191505060405180910390a48292505b5050949350505050565b600080601060009054906101000a900473ffffffffffffffffffffffffffffffffffffffff1673ffffffffffffffffffffffffffffffffffffffff1614806121815750600061217f601060009054906101000a900473ffffffffffffffffffffffffffffffffffffffff166135f2565b145b156121925761219060006135fd565b505b601060009054906101000a900473ffffffffffffffffffffffffffffffffffffffff1673ffffffffffffffffffffffffffffffffffffffff166338cc48316040518163ffffffff167c0100000000000000000000000000000000000000000000000000000000028152600401602060405180830381600087803b15801561221857600080fd5b505af115801561222c573d6000803e3d6000fd5b505050506040513d602081101561224257600080fd5b810190808051906020019092919050505073ffffffffffffffffffffffffffffffffffffffff16601160009054906101000a900473ffffffffffffffffffffffffffffffffffffffff1673ffffffffffffffffffffffffffffffffffffffff161415156123ab57601060009054906101000a900473ffffffffffffffffffffffffffffffffffffffff1673ffffffffffffffffffffffffffffffffffffffff166338cc48316040518163ffffffff167c0100000000000000000000000000000000000000000000000000000000028152600401602060405180830381600087803b15801561232f57600080fd5b505af1158015612343573d6000803e3d6000fd5b505050506040513d602081101561235957600080fd5b8101908080519060200190929190505050601160006101000a81548173ffffffffffffffffffffffffffffffffffffffff021916908373ffffffffffffffffffffffffffffffffffffffff1602179055505b601160009054906101000a900473ffffffffffffffffffffffffffffffffffffffff1673ffffffffffffffffffffffffffffffffffffffff1663c281d19e6040518163ffffffff167c0100000000000000000000000000000000000000000000000000000000028152600401602060405180830381600087803b15801561243157600080fd5b505af1158015612445573d6000803e3d6000fd5b505050506040513d602081101561245b57600080fd5b8101908080519060200190929190505050905090565b6000606060008060008693506000925060009150600090505b83518110156127465760307f01000000000000000000000000000000000000000000000000000000000000000284828151811015156124c557fe5b9060200101517f010000000000000000000000000000000000000000000000000000000000000090047f0100000000000000000000000000000000000000000000000000000000000000027effffffffffffffffffffffffffffffffffffffffffffffffffffffffffffff1916101580156125dd575060397f010000000000000000000000000000000000000000000000000000000000000002848281518110151561256d57fe5b9060200101517f010000000000000000000000000000000000000000000000000000000000000090047f0100000000000000000000000000000000000000000000000000000000000000027effffffffffffffffffffffffffffffffffffffffffffffffffffffffffffff191611155b1561268e5781156126005760008614156125f657612746565b8580600190039650505b600a830292506030848281518110151561261657fe5b9060200101517f010000000000000000000000000000000000000000000000000000000000000090047f0100000000000000000000000000000000000000000000000000000000000000027f010000000000000000000000000000000000000000000000000000000000000090040383019250612739565b602e7f01000000000000000000000000000000000000000000000000000000000000000284828151811015156126c057fe5b9060200101517f010000000000000000000000000000000000000000000000000000000000000090047f0100000000000000000000000000000000000000000000000000000000000000027effffffffffffffffffffffffffffffffffffffffffffffffffffffffffffff1916141561273857600191505b5b808060010191505061248a565b60008611156127585785600a0a830292505b8294505050505092915050565b6000600c60009054906101000a900460ff161561278157612832565b6009544211156127b0576001600c60006101000a81548160ff021916908315150217905550600a549050612812565b600554600a541015156127e2576001600c60006101000a81548160ff0219169083151502179055506005549050612811565b600654600a54111515612810576001600c60006101000a81548160ff02191690831515021790555060065490505b5b5b600c60009054906101000a900460ff1615612831576128308161360e565b5b5b50565b600061288483600101600084600019166000191681526020019081526020016000205484600001600085600019166000191681526020019081526020016000205461364f90919063ffffffff16565b905092915050565b600080601060009054906101000a900473ffffffffffffffffffffffffffffffffffffffff1673ffffffffffffffffffffffffffffffffffffffff1614806128fe575060006128fc601060009054906101000a900473ffffffffffffffffffffffffffffffffffffffff166135f2565b145b1561290f5761290d60006135fd565b505b601060009054906101000a900473ffffffffffffffffffffffffffffffffffffffff1673ffffffffffffffffffffffffffffffffffffffff166338cc48316040518163ffffffff167c0100000000000000000000000000000000000000000000000000000000028152600401602060405180830381600087803b15801561299557600080fd5b505af11580156129a9573d6000803e3d6000fd5b505050506040513d60208110156129bf57600080fd5b810190808051906020019092919050505073ffffffffffffffffffffffffffffffffffffffff16601160009054906101000a900473ffffffffffffffffffffffffffffffffffffffff1673ffffffffffffffffffffffffffffffffffffffff16141515612b2857601060009054906101000a900473ffffffffffffffffffffffffffffffffffffffff1673ffffffffffffffffffffffffffffffffffffffff166338cc48316040518163ffffffff167c0100000000000000000000000000000000000000000000000000000000028152600401602060405180830381600087803b158015612aac57600080fd5b505af1158015612ac0573d6000803e3d6000fd5b505050506040513d6020811015612ad657600080fd5b8101908080519060200190929190505050601160006101000a81548173ffffffffffffffffffffffffffffffffffffffff021916908373ffffffffffffffffffffffffffffffffffffffff1602179055505b601160009054906101000a900473ffffffffffffffffffffffffffffffffffffffff1673ffffffffffffffffffffffffffffffffffffffff16632ef3accc84846040518363ffffffff167c01000000000000000000000000000000000000000000000000000000000281526004018080602001838152602001828103825284818151815260200191508051906020019080838360005b83811015612bd9578082015181840152602081019050612bbe565b50505050905090810190601f168015612c065780820380516001836020036101000a031916815260200191505b509350505050602060405180830381600087803b158015612c2657600080fd5b505af1158015612c3a573d6000803e3d6000fd5b505050506040513d6020811015612c5057600080fd5b8101908080519060200190929190505050905092915050565b6000806000601060009054906101000a900473ffffffffffffffffffffffffffffffffffffffff1673ffffffffffffffffffffffffffffffffffffffff161480612cdd57506000612cdb601060009054906101000a900473ffffffffffffffffffffffffffffffffffffffff166135f2565b145b15612cee57612cec60006135fd565b505b601060009054906101000a900473ffffffffffffffffffffffffffffffffffffffff1673ffffffffffffffffffffffffffffffffffffffff166338cc48316040518163ffffffff167c0100000000000000000000000000000000000000000000000000000000028152600401602060405180830381600087803b158015612d7457600080fd5b505af1158015612d88573d6000803e3d6000fd5b505050506040513d6020811015612d9e57600080fd5b810190808051906020019092919050505073ffffffffffffffffffffffffffffffffffffffff16601160009054906101000a900473ffffffffffffffffffffffffffffffffffffffff1673ffffffffffffffffffffffffffffffffffffffff16141515612f0757601060009054906101000a900473ffffffffffffffffffffffffffffffffffffffff1673ffffffffffffffffffffffffffffffffffffffff166338cc48316040518163ffffffff167c0100000000000000000000000000000000000000000000000000000000028152600401602060405180830381600087803b158015612e8b57600080fd5b505af1158015612e9f573d6000803e3d6000fd5b505050506040513d6020811015612eb557600080fd5b8101908080519060200190929190505050601160006101000a81548173ffffffffffffffffffffffffffffffffffffffff021916908373ffffffffffffffffffffffffffffffffffffffff1602179055505b601160009054906101000a900473ffffffffffffffffffffffffffffffffffffffff1673ffffffffffffffffffffffffffffffffffffffff16632ef3accc86856040518363ffffffff167c01000000000000000000000000000000000000000000000000000000000281526004018080602001838152602001828103825284818151815260200191508051906020019080838360005b83811015612fb8578082015181840152602081019050612f9d565b50505050905090810190601f168015612fe55780820380516001836020036101000a031916815260200191505b509350505050602060405180830381600087803b15801561300557600080fd5b505af1158015613019573d6000803e3d6000fd5b505050506040513d602081101561302f57600080fd5b81019080805190602001909291905050509050601160009054906101000a900473ffffffffffffffffffffffffffffffffffffffff1673ffffffffffffffffffffffffffffffffffffffff1663c51be90f8260008888886040518663ffffffff167c0100000000000000000000000000000000000000000000000000000000028152600401808581526020018060200180602001848152602001838103835286818151815260200191508051906020019080838360005b838110156131015780820151818401526020810190506130e6565b50505050905090810190601f16801561312e5780820380516001836020036101000a031916815260200191505b50838103825285818151815260200191508051906020019080838360005b8381101561316757808201518184015260208101905061314c565b50505050905090810190601f1680156131945780820380516001836020036101000a031916815260200191505b5096505050505050506020604051808303818588803b1580156131b657600080fd5b505af11580156131ca573d6000803e3d6000fd5b50505050506040513d60208110156131e157600080fd5b81019080805190602001909291905050509150509392505050565b60008183148061320e57506000828402135b905092915050565b61321e613e08565b83600060038110151561322d57fe5b6020020151816000019073ffffffffffffffffffffffffffffffffffffffff16908173ffffffffffffffffffffffffffffffffffffffff168152505083600160038110151561327857fe5b6020020151816020019073ffffffffffffffffffffffffffffffffffffffff16908173ffffffffffffffffffffffffffffffffffffffff16815250508360026003811015156132c357fe5b6020020151816040019073ffffffffffffffffffffffffffffffffffffffff16908173ffffffffffffffffffffffffffffffffffffffff168152505082600060058110151561330e57fe5b602002015181606001818152505082600160058110151561332b57fe5b602002015181608001818152505082600260058110151561334857fe5b60200201518160a001818152505082600360058110151561336557fe5b60200201518160c0018181525050818160e0018181525050613389858585856136b7565b8161010001906000191690816000191681525050809050949350505050565b60006133b7838360000361364f565b905092915050565b60006133ca8261343e565b6133d38461343e565b106133de57816133e0565b825b905092915050565b6134188184600001600085600019166000191681526020019081526020016000205461364f90919063ffffffff16565b836000016000846000191660001916815260200190815260200160002081905550505050565b60008082121561345357816000039050613457565b8190505b919050565b60008161346985856138a5565b81151561347257fe5b0490509392505050565b8373ffffffffffffffffffffffffffffffffffffffff166323b872dd8484846040518463ffffffff167c0100000000000000000000000000000000000000000000000000000000028152600401808473ffffffffffffffffffffffffffffffffffffffff1673ffffffffffffffffffffffffffffffffffffffff1681526020018373ffffffffffffffffffffffffffffffffffffffff1673ffffffffffffffffffffffffffffffffffffffff1681526020018281526020019350505050602060405180830381600087803b15801561355357600080fd5b505af1158015613567573d6000803e3d6000fd5b505050506040513d602081101561357d57600080fd5b8101908080519060200190929190505050151561359657fe5b50505050565b6135cc8184600101600085600019166000191681526020019081526020016000205461364f90919063ffffffff16565b836001016000846000191660001916815260200190815260200160002081905550505050565b6000813b9050919050565b60006136076138d8565b9050919050565b80600b819055507f68170b705528d3ff1d324cda28eb28cc3d11ce81207f157c05e11c18411a013c816040518082815260200191505060405180910390a150565b600080828401905061366184846131fc565b151561366f578091506136b0565b600084121515613695578360ff60019060020a021903831315151561369057fe5b6136ac565b8360ff60019060020a020383121515156136ab57fe5b5b8091505b5092915050565b6000848460006003811015156136c957fe5b60200201518560016003811015156136dd57fe5b60200201518660026003811015156136f157fe5b602002015186600060058110151561370557fe5b602002015187600160058110151561371957fe5b602002015188600260058110151561372d57fe5b602002015189600360058110151561374157fe5b60200201518a600460058110151561375557fe5b60200201518a604051808b73ffffffffffffffffffffffffffffffffffffffff1673ffffffffffffffffffffffffffffffffffffffff166c010000000000000000000000000281526014018a73ffffffffffffffffffffffffffffffffffffffff1673ffffffffffffffffffffffffffffffffffffffff166c010000000000000000000000000281526014018973ffffffffffffffffffffffffffffffffffffffff1673ffffffffffffffffffffffffffffffffffffffff166c010000000000000000000000000281526014018873ffffffffffffffffffffffffffffffffffffffff1673ffffffffffffffffffffffffffffffffffffffff166c010000000000000000000000000281526014018781526020018681526020018581526020018481526020018381526020018281526020019a505050505050505050505060405180910390209050949350505050565b600080828402905060008414806138c657508284828115156138c357fe5b04145b15156138ce57fe5b8091505092915050565b6000806138f8731d3b2638a7cc9f2cb3d298a3da7a90b67e5506ed6135f2565b111561399a57731d3b2638a7cc9f2cb3d298a3da7a90b67e5506ed601060006101000a81548173ffffffffffffffffffffffffffffffffffffffff021916908373ffffffffffffffffffffffffffffffffffffffff1602179055506139916040805190810160405280600b81526020017f6574685f6d61696e6e6574000000000000000000000000000000000000000000815250613d6e565b60019050613d6b565b60006139b973c03a2615d5efaf5f49f60b7bb6583eaec212fdf16135f2565b1115613a5b5773c03a2615d5efaf5f49f60b7bb6583eaec212fdf1601060006101000a81548173ffffffffffffffffffffffffffffffffffffffff021916908373ffffffffffffffffffffffffffffffffffffffff160217905550613a526040805190810160405280600c81526020017f6574685f726f707374656e330000000000000000000000000000000000000000815250613d6e565b60019050613d6b565b6000613a7a73b7a07bcf2ba2f2703b24c0691b5278999c59ac7e6135f2565b1115613b1c5773b7a07bcf2ba2f2703b24c0691b5278999c59ac7e601060006101000a81548173ffffffffffffffffffffffffffffffffffffffff021916908373ffffffffffffffffffffffffffffffffffffffff160217905550613b136040805190810160405280600981526020017f6574685f6b6f76616e0000000000000000000000000000000000000000000000815250613d6e565b60019050613d6b565b6000613b3b73146500cfd35b22e4a392fe0adc06de1a1368ed486135f2565b1115613bdd5773146500cfd35b22e4a392fe0adc06de1a1368ed48601060006101000a81548173ffffffffffffffffffffffffffffffffffffffff021916908373ffffffffffffffffffffffffffffffffffffffff160217905550613bd46040805190810160405280600b81526020017f6574685f72696e6b656279000000000000000000000000000000000000000000815250613d6e565b60019050613d6b565b6000613bfc736f485c8bf6fc43ea212e93bbf8ce046c7f1cb4756135f2565b1115613c6057736f485c8bf6fc43ea212e93bbf8ce046c7f1cb475601060006101000a81548173ffffffffffffffffffffffffffffffffffffffff021916908373ffffffffffffffffffffffffffffffffffffffff16021790555060019050613d6b565b6000613c7f7320e12a1f859b3feae5fb2a0a32c18f5a65555bbf6135f2565b1115613ce3577320e12a1f859b3feae5fb2a0a32c18f5a65555bbf601060006101000a81548173ffffffffffffffffffffffffffffffffffffffff021916908373ffffffffffffffffffffffffffffffffffffffff16021790555060019050613d6b565b6000613d027351efaf4c8b3c9afbd5ab9f4bbc82784ab6ef8faa6135f2565b1115613d66577351efaf4c8b3c9afbd5ab9f4bbc82784ab6ef8faa601060006101000a81548173ffffffffffffffffffffffffffffffffffffffff021916908373ffffffffffffffffffffffffffffffffffffffff16021790555060019050613d6b565b600090505b90565b8060129080519060200190613d84929190613d88565b5050565b828054600181600116156101000203166002900490600052602060002090601f016020900481019282601f10613dc957805160ff1916838001178555613df7565b82800160010185558215613df7579182015b82811115613df6578251825591602001919060010190613ddb565b5b509050613e049190613e9a565b5090565b61012060405190810160405280600073ffffffffffffffffffffffffffffffffffffffff168152602001600073ffffffffffffffffffffffffffffffffffffffff168152602001600073ffffffffffffffffffffffffffffffffffffffff1681526020016000815260200160008152602001600081526020016000815260200160008152602001600080191681525090565b613ebc91905b80821115613eb8576000816000905550600101613ea0565b5090565b905600a165627a7a72305820b1c051d015fab18ca90102d5eed843e91ecd4587d355ba9cf73a0ce6d324d96c0029a165627a7a72305820269952717f493fd5a80a57bb3fd98499bcc485a91ce4c4fe351b874c168e9f670029",
  "source": "/*\n    Copyright 2017-2018 Phillip A. Elsasser\n\n    Licensed under the Apache License, Version 2.0 (the \"License\");\n    you may not use this file except in compliance with the License.\n    You may obtain a copy of the License at\n\n    http://www.apache.org/licenses/LICENSE-2.0\n\n    Unless required by applicable law or agreed to in writing, software\n    distributed under the License is distributed on an \"AS IS\" BASIS,\n    WITHOUT WARRANTIES OR CONDITIONS OF ANY KIND, either express or implied.\n    See the License for the specific language governing permissions and\n    limitations under the License.\n*/\n\npragma solidity ^0.4.23;\n\nimport \"./MarketContractOraclize.sol\";\nimport \"../MarketContractRegistryInterface.sol\";\n\nimport \"openzeppelin-solidity/contracts/ownership/Ownable.sol\";\n\n\n/// @title MarketContractFactoryOraclize\n/// @author Phil Elsasser <phil@marketprotocol.io>\ncontract MarketContractFactoryOraclize is Ownable {\n\n    address public marketContractRegistry;\n    address public MKT_TOKEN_ADDRESS;\n\n    event RegistryChanged(address indexed previousRegistry, address indexed newRegistry);\n    event MarketContractCreated(address indexed contractAddress);\n\n    /// @dev deploys our factory and ties it the a supply registry address\n    /// @param registryAddress - MarketContractRegistry address to whitelist contracts\n    /// @param mktTokenAddress - MARKET Token address\n    constructor(address registryAddress, address mktTokenAddress) public {\n        marketContractRegistry = registryAddress;\n        MKT_TOKEN_ADDRESS = mktTokenAddress;\n    }\n\n    /// @dev Deploys a new instance of a market contract and adds it to the whitelist.\n    /// @param contractName viewable name of this contract (BTC/ETH, LTC/ETH, etc)\n    /// @param baseTokenAddress address of the ERC20 token that will be used for collateral and pricing\n    /// @param contractSpecs array of unsigned integers including:\n    /// floorPrice minimum tradeable price of this contract, contract enters settlement if breached\n    /// capPrice maximum tradeable price of this contract, contract enters settlement if breached\n    /// priceDecimalPlaces number of decimal places to convert our queried price from a floating point to\n    /// an integer\n    /// qtyMultiplier multiply traded qty by this value from base units of collateral token.\n    /// expirationTimeStamp - seconds from epoch that this contract expires and enters settlement\n    /// @param oracleDataSource a data-source such as \"URL\", \"WolframAlpha\", \"IPFS\"\n    /// see http://docs.oraclize.it/#ethereum-quick-start-simple-query\n    /// @param oracleQuery see http://docs.oraclize.it/#ethereum-quick-start-simple-query for examples\n    function deployMarketContractOraclize(\n        string contractName,\n        address baseTokenAddress,\n        uint[5] contractSpecs,\n        string oracleDataSource,\n        string oracleQuery\n    ) external\n    {\n        MarketContractOraclize mktContract = new MarketContractOraclize(\n            contractName,\n            msg.sender,\n            MKT_TOKEN_ADDRESS,\n            baseTokenAddress,\n            contractSpecs,\n            oracleDataSource,\n            oracleQuery\n        );\n        MarketContractRegistryInterface(marketContractRegistry).addAddressToWhiteList(mktContract);\n        emit MarketContractCreated(address(mktContract));\n    }\n\n    /// @dev allows for the owner to set the desired registry for contract creation.\n    /// @param registryAddress desired registry address.\n    function setRegistryAddress(address registryAddress) external onlyOwner {\n        require(registryAddress != address(0));\n        emit RegistryChanged(marketContractRegistry, registryAddress);\n        marketContractRegistry = registryAddress;\n    }\n\n}\n",
  "sourcePath": "/home/pelsasser/MARKETProtocol/contracts/oraclize/MarketContractFactoryOraclize.sol",
  "compiler": {
    "name": "solc",
    "version": "0.4.23+commit.124ca40d.Emscripten.clang"
  },
  "schemaVersion": "2.0.0",
  "updatedAt": "2018-05-25T01:35:13.871Z"
}