{
  "contractName": "MarketToken",
  "abi": [
    {
      "constant": true,
      "inputs": [],
      "name": "name",
      "outputs": [
        {
          "name": "",
          "type": "string"
        }
      ],
      "payable": false,
      "stateMutability": "view",
      "type": "function"
    },
    {
      "constant": false,
      "inputs": [
        {
          "name": "_spender",
          "type": "address"
        },
        {
          "name": "_value",
          "type": "uint256"
        }
      ],
      "name": "approve",
      "outputs": [
        {
          "name": "",
          "type": "bool"
        }
      ],
      "payable": false,
      "stateMutability": "nonpayable",
      "type": "function"
    },
    {
      "constant": true,
      "inputs": [],
      "name": "totalSupply",
      "outputs": [
        {
          "name": "",
          "type": "uint256"
        }
      ],
      "payable": false,
      "stateMutability": "view",
      "type": "function"
    },
    {
      "constant": false,
      "inputs": [
        {
          "name": "_from",
          "type": "address"
        },
        {
          "name": "_to",
          "type": "address"
        },
        {
          "name": "_value",
          "type": "uint256"
        }
      ],
      "name": "transferFrom",
      "outputs": [
        {
          "name": "",
          "type": "bool"
        }
      ],
      "payable": false,
      "stateMutability": "nonpayable",
      "type": "function"
    },
    {
      "constant": true,
      "inputs": [],
      "name": "INITIAL_SUPPLY",
      "outputs": [
        {
          "name": "",
          "type": "uint256"
        }
      ],
      "payable": false,
      "stateMutability": "view",
      "type": "function"
    },
    {
      "constant": true,
      "inputs": [],
      "name": "decimals",
      "outputs": [
        {
          "name": "",
          "type": "uint8"
        }
      ],
      "payable": false,
      "stateMutability": "view",
      "type": "function"
    },
    {
      "constant": true,
      "inputs": [],
      "name": "upgradeableTarget",
      "outputs": [
        {
          "name": "",
          "type": "address"
        }
      ],
      "payable": false,
      "stateMutability": "view",
      "type": "function"
    },
    {
      "constant": false,
      "inputs": [
        {
          "name": "_value",
          "type": "uint256"
        }
      ],
      "name": "burn",
      "outputs": [],
      "payable": false,
      "stateMutability": "nonpayable",
      "type": "function"
    },
    {
      "constant": false,
      "inputs": [
        {
          "name": "value",
          "type": "uint256"
        }
      ],
      "name": "upgrade",
      "outputs": [],
      "payable": false,
      "stateMutability": "nonpayable",
      "type": "function"
    },
    {
      "constant": false,
      "inputs": [
        {
          "name": "_spender",
          "type": "address"
        },
        {
          "name": "_subtractedValue",
          "type": "uint256"
        }
      ],
      "name": "decreaseApproval",
      "outputs": [
        {
          "name": "",
          "type": "bool"
        }
      ],
      "payable": false,
      "stateMutability": "nonpayable",
      "type": "function"
    },
    {
      "constant": true,
      "inputs": [],
      "name": "minBalanceToAllowContractCreation",
      "outputs": [
        {
          "name": "",
          "type": "uint256"
        }
      ],
      "payable": false,
      "stateMutability": "view",
      "type": "function"
    },
    {
      "constant": true,
      "inputs": [
        {
          "name": "_owner",
          "type": "address"
        }
      ],
      "name": "balanceOf",
      "outputs": [
        {
          "name": "",
          "type": "uint256"
        }
      ],
      "payable": false,
      "stateMutability": "view",
      "type": "function"
    },
    {
      "constant": true,
      "inputs": [],
      "name": "lockQtyToAllowTrading",
      "outputs": [
        {
          "name": "",
          "type": "uint256"
        }
      ],
      "payable": false,
      "stateMutability": "view",
      "type": "function"
    },
    {
      "constant": false,
      "inputs": [
        {
          "name": "upgradeAddress",
          "type": "address"
        }
      ],
      "name": "setUpgradeableTarget",
      "outputs": [],
      "payable": false,
      "stateMutability": "nonpayable",
      "type": "function"
    },
    {
      "constant": true,
      "inputs": [],
      "name": "owner",
      "outputs": [
        {
          "name": "",
          "type": "address"
        }
      ],
      "payable": false,
      "stateMutability": "view",
      "type": "function"
    },
    {
      "constant": true,
      "inputs": [],
      "name": "symbol",
      "outputs": [
        {
          "name": "",
          "type": "string"
        }
      ],
      "payable": false,
      "stateMutability": "view",
      "type": "function"
    },
    {
      "constant": false,
      "inputs": [
        {
          "name": "_to",
          "type": "address"
        },
        {
          "name": "_value",
          "type": "uint256"
        }
      ],
      "name": "transfer",
      "outputs": [
        {
          "name": "",
          "type": "bool"
        }
      ],
      "payable": false,
      "stateMutability": "nonpayable",
      "type": "function"
    },
    {
      "constant": true,
      "inputs": [],
      "name": "totalUpgraded",
      "outputs": [
        {
          "name": "",
          "type": "uint256"
        }
      ],
      "payable": false,
      "stateMutability": "view",
      "type": "function"
    },
    {
      "constant": false,
      "inputs": [
        {
          "name": "_spender",
          "type": "address"
        },
        {
          "name": "_addedValue",
          "type": "uint256"
        }
      ],
      "name": "increaseApproval",
      "outputs": [
        {
          "name": "",
          "type": "bool"
        }
      ],
      "payable": false,
      "stateMutability": "nonpayable",
      "type": "function"
    },
    {
      "constant": true,
      "inputs": [
        {
          "name": "_owner",
          "type": "address"
        },
        {
          "name": "_spender",
          "type": "address"
        }
      ],
      "name": "allowance",
      "outputs": [
        {
          "name": "",
          "type": "uint256"
        }
      ],
      "payable": false,
      "stateMutability": "view",
      "type": "function"
    },
    {
      "constant": false,
      "inputs": [
        {
          "name": "newOwner",
          "type": "address"
        }
      ],
      "name": "transferOwnership",
      "outputs": [],
      "payable": false,
      "stateMutability": "nonpayable",
      "type": "function"
    },
    {
      "inputs": [
        {
          "name": "qtyToLockForTrading",
          "type": "uint256"
        },
        {
          "name": "minBalanceForCreation",
          "type": "uint256"
        }
      ],
      "payable": false,
      "stateMutability": "nonpayable",
      "type": "constructor"
    },
    {
      "anonymous": false,
      "inputs": [
        {
          "indexed": true,
          "name": "contractAddress",
          "type": "address"
        },
        {
          "indexed": true,
          "name": "userAddress",
          "type": "address"
        },
        {
          "indexed": false,
          "name": "balance",
          "type": "uint256"
        }
      ],
      "name": "UpdatedUserLockedBalance",
      "type": "event"
    },
    {
      "anonymous": false,
      "inputs": [
        {
          "indexed": true,
          "name": "from",
          "type": "address"
        },
        {
          "indexed": true,
          "name": "to",
          "type": "address"
        },
        {
          "indexed": false,
          "name": "value",
          "type": "uint256"
        }
      ],
      "name": "Upgraded",
      "type": "event"
    },
    {
      "anonymous": false,
      "inputs": [
        {
          "indexed": true,
          "name": "burner",
          "type": "address"
        },
        {
          "indexed": false,
          "name": "value",
          "type": "uint256"
        }
      ],
      "name": "Burn",
      "type": "event"
    },
    {
      "anonymous": false,
      "inputs": [
        {
          "indexed": true,
          "name": "owner",
          "type": "address"
        },
        {
          "indexed": true,
          "name": "spender",
          "type": "address"
        },
        {
          "indexed": false,
          "name": "value",
          "type": "uint256"
        }
      ],
      "name": "Approval",
      "type": "event"
    },
    {
      "anonymous": false,
      "inputs": [
        {
          "indexed": true,
          "name": "from",
          "type": "address"
        },
        {
          "indexed": true,
          "name": "to",
          "type": "address"
        },
        {
          "indexed": false,
          "name": "value",
          "type": "uint256"
        }
      ],
      "name": "Transfer",
      "type": "event"
    },
    {
      "anonymous": false,
      "inputs": [
        {
          "indexed": true,
          "name": "previousOwner",
          "type": "address"
        },
        {
          "indexed": true,
          "name": "newOwner",
          "type": "address"
        }
      ],
      "name": "OwnershipTransferred",
      "type": "event"
    },
    {
      "constant": true,
      "inputs": [
        {
          "name": "marketContractAddress",
          "type": "address"
        },
        {
          "name": "userAddress",
          "type": "address"
        }
      ],
      "name": "isUserEnabledForContract",
      "outputs": [
        {
          "name": "",
          "type": "bool"
        }
      ],
      "payable": false,
      "stateMutability": "view",
      "type": "function"
    },
    {
      "constant": true,
      "inputs": [
        {
          "name": "userAddress",
          "type": "address"
        }
      ],
      "name": "isBalanceSufficientForContractCreation",
      "outputs": [
        {
          "name": "",
          "type": "bool"
        }
      ],
      "payable": false,
      "stateMutability": "view",
      "type": "function"
    },
    {
      "constant": false,
      "inputs": [
        {
          "name": "marketContractAddress",
          "type": "address"
        },
        {
          "name": "qtyToLock",
          "type": "uint256"
        }
      ],
      "name": "lockTokensForTradingMarketContract",
      "outputs": [],
      "payable": false,
      "stateMutability": "nonpayable",
      "type": "function"
    },
    {
      "constant": false,
      "inputs": [
        {
          "name": "marketContractAddress",
          "type": "address"
        },
        {
          "name": "qtyToUnlock",
          "type": "uint256"
        }
      ],
      "name": "unlockTokens",
      "outputs": [],
      "payable": false,
      "stateMutability": "nonpayable",
      "type": "function"
    },
    {
      "constant": true,
      "inputs": [
        {
          "name": "marketContractAddress",
          "type": "address"
        },
        {
          "name": "userAddress",
          "type": "address"
        }
      ],
      "name": "getLockedBalanceForUser",
      "outputs": [
        {
          "name": "",
          "type": "uint256"
        }
      ],
      "payable": false,
      "stateMutability": "view",
      "type": "function"
    },
    {
      "constant": false,
      "inputs": [
        {
          "name": "qtyToLock",
          "type": "uint256"
        }
      ],
      "name": "setLockQtyToAllowTrading",
      "outputs": [],
      "payable": false,
      "stateMutability": "nonpayable",
      "type": "function"
    },
    {
      "constant": false,
      "inputs": [
        {
          "name": "minBalance",
          "type": "uint256"
        }
      ],
      "name": "setMinBalanceForContractCreation",
      "outputs": [],
      "payable": false,
      "stateMutability": "nonpayable",
      "type": "function"
    }
  ],
  "bytecode": "0x608060405234801561001057600080fd5b5060405160408061253d8339810180604052810190808051906020019092919080519060200190929190505050336000806101000a81548173ffffffffffffffffffffffffffffffffffffffff021916908373ffffffffffffffffffffffffffffffffffffffff1602179055508160068190555080600781905550601260ff16600a0a6323c3460002600281905550601260ff16600a0a6323c3460002600160003373ffffffffffffffffffffffffffffffffffffffff1673ffffffffffffffffffffffffffffffffffffffff16815260200190815260200160002081905550505061243c806101016000396000f30060806040526004361061016a576000357c0100000000000000000000000000000000000000000000000000000000900463ffffffff16806306fdde031461016f578063095ea7b3146101ff57806318160ddd1461026457806323b872dd1461028f5780632ff2e9dc14610314578063313ce5671461033f5780633cad7c4e1461037057806340fc5e7a1461039d57806342966c68146103f457806345977d03146104215780634f1e43341461044e578063661884631461047b5780636e8c57e6146104e057806370a082311461050b5780637e3475a814610562578063802049ac1461058d57806384281dcc146105d05780638da5cb5b1461062b57806395d89b41146106825780639d564d9a14610712578063a9059cbb1461075f578063aafd775e146107c4578063c752ff621461083b578063cfab472f14610866578063d229a94a146108e1578063d73dd6231461092e578063dd62ed3e14610993578063f2fde38b14610a0a575b600080fd5b34801561017b57600080fd5b50610184610a4d565b6040518080602001828103825283818151815260200191508051906020019080838360005b838110156101c45780820151818401526020810190506101a9565b50505050905090810190601f1680156101f15780820380516001836020036101000a031916815260200191505b509250505060405180910390f35b34801561020b57600080fd5b5061024a600480360381019080803573ffffffffffffffffffffffffffffffffffffffff16906020019092919080359060200190929190505050610a86565b604051808215151515815260200191505060405180910390f35b34801561027057600080fd5b50610279610b78565b6040518082815260200191505060405180910390f35b34801561029b57600080fd5b506102fa600480360381019080803573ffffffffffffffffffffffffffffffffffffffff169060200190929190803573ffffffffffffffffffffffffffffffffffffffff16906020019092919080359060200190929190505050610b82565b604051808215151515815260200191505060405180910390f35b34801561032057600080fd5b50610329610f41565b6040518082815260200191505060405180910390f35b34801561034b57600080fd5b50610354610f52565b604051808260ff1660ff16815260200191505060405180910390f35b34801561037c57600080fd5b5061039b60048036038101908080359060200190929190505050610f57565b005b3480156103a957600080fd5b506103b2610fbc565b604051808273ffffffffffffffffffffffffffffffffffffffff1673ffffffffffffffffffffffffffffffffffffffff16815260200191505060405180910390f35b34801561040057600080fd5b5061041f60048036038101908080359060200190929190505050610fe2565b005b34801561042d57600080fd5b5061044c60048036038101908080359060200190929190505050610fef565b005b34801561045a57600080fd5b50610479600480360381019080803590602001909291905050506111d8565b005b34801561048757600080fd5b506104c6600480360381019080803573ffffffffffffffffffffffffffffffffffffffff1690602001909291908035906020019092919050505061123d565b604051808215151515815260200191505060405180910390f35b3480156104ec57600080fd5b506104f56114ce565b6040518082815260200191505060405180910390f35b34801561051757600080fd5b5061054c600480360381019080803573ffffffffffffffffffffffffffffffffffffffff1690602001909291905050506114d4565b6040518082815260200191505060405180910390f35b34801561056e57600080fd5b5061057761151d565b6040518082815260200191505060405180910390f35b34801561059957600080fd5b506105ce600480360381019080803573ffffffffffffffffffffffffffffffffffffffff169060200190929190505050611523565b005b3480156105dc57600080fd5b50610611600480360381019080803573ffffffffffffffffffffffffffffffffffffffff1690602001909291905050506115c2565b604051808215151515815260200191505060405180910390f35b34801561063757600080fd5b50610640611610565b604051808273ffffffffffffffffffffffffffffffffffffffff1673ffffffffffffffffffffffffffffffffffffffff16815260200191505060405180910390f35b34801561068e57600080fd5b50610697611635565b6040518080602001828103825283818151815260200191508051906020019080838360005b838110156106d75780820151818401526020810190506106bc565b50505050905090810190601f1680156107045780820380516001836020036101000a031916815260200191505b509250505060405180910390f35b34801561071e57600080fd5b5061075d600480360381019080803573ffffffffffffffffffffffffffffffffffffffff1690602001909291908035906020019092919050505061166e565b005b34801561076b57600080fd5b506107aa600480360381019080803573ffffffffffffffffffffffffffffffffffffffff169060200190929190803590602001909291905050506117f5565b604051808215151515815260200191505060405180910390f35b3480156107d057600080fd5b50610825600480360381019080803573ffffffffffffffffffffffffffffffffffffffff169060200190929190803573ffffffffffffffffffffffffffffffffffffffff169060200190929190505050611a19565b6040518082815260200191505060405180910390f35b34801561084757600080fd5b50610850611aa0565b6040518082815260200191505060405180910390f35b34801561087257600080fd5b506108c7600480360381019080803573ffffffffffffffffffffffffffffffffffffffff169060200190929190803573ffffffffffffffffffffffffffffffffffffffff169060200190929190505050611aa6565b604051808215151515815260200191505060405180910390f35b3480156108ed57600080fd5b5061092c600480360381019080803573ffffffffffffffffffffffffffffffffffffffff16906020019092919080359060200190929190505050611b32565b005b34801561093a57600080fd5b50610979600480360381019080803573ffffffffffffffffffffffffffffffffffffffff16906020019092919080359060200190929190505050611cbb565b604051808215151515815260200191505060405180910390f35b34801561099f57600080fd5b506109f4600480360381019080803573ffffffffffffffffffffffffffffffffffffffff169060200190929190803573ffffffffffffffffffffffffffffffffffffffff169060200190929190505050611eb7565b6040518082815260200191505060405180910390f35b348015610a1657600080fd5b50610a4b600480360381019080803573ffffffffffffffffffffffffffffffffffffffff169060200190929190505050611f3e565b005b6040805190810160405280601581526020017f4d41524b45542050726f746f636f6c20546f6b656e000000000000000000000081525081565b600081600360003373ffffffffffffffffffffffffffffffffffffffff1673ffffffffffffffffffffffffffffffffffffffff16815260200190815260200160002060008573ffffffffffffffffffffffffffffffffffffffff1673ffffffffffffffffffffffffffffffffffffffff168152602001908152602001600020819055508273ffffffffffffffffffffffffffffffffffffffff163373ffffffffffffffffffffffffffffffffffffffff167f8c5be1e5ebec7d5bd14f71427d1e84f3dd0314c0f7b2291e5b200ac8c7c3b925846040518082815260200191505060405180910390a36001905092915050565b6000600254905090565b60008073ffffffffffffffffffffffffffffffffffffffff168373ffffffffffffffffffffffffffffffffffffffff1614151515610bbf57600080fd5b600160008573ffffffffffffffffffffffffffffffffffffffff1673ffffffffffffffffffffffffffffffffffffffff168152602001908152602001600020548211151515610c0d57600080fd5b600360008573ffffffffffffffffffffffffffffffffffffffff1673ffffffffffffffffffffffffffffffffffffffff16815260200190815260200160002060003373ffffffffffffffffffffffffffffffffffffffff1673ffffffffffffffffffffffffffffffffffffffff168152602001908152602001600020548211151515610c9857600080fd5b610cea82600160008773ffffffffffffffffffffffffffffffffffffffff1673ffffffffffffffffffffffffffffffffffffffff1681526020019081526020016000205461209390919063ffffffff16565b600160008673ffffffffffffffffffffffffffffffffffffffff1673ffffffffffffffffffffffffffffffffffffffff16815260200190815260200160002081905550610d7f82600160008673ffffffffffffffffffffffffffffffffffffffff1673ffffffffffffffffffffffffffffffffffffffff168152602001908152602001600020546120ac90919063ffffffff16565b600160008573ffffffffffffffffffffffffffffffffffffffff1673ffffffffffffffffffffffffffffffffffffffff16815260200190815260200160002081905550610e5182600360008773ffffffffffffffffffffffffffffffffffffffff1673ffffffffffffffffffffffffffffffffffffffff16815260200190815260200160002060003373ffffffffffffffffffffffffffffffffffffffff1673ffffffffffffffffffffffffffffffffffffffff1681526020019081526020016000205461209390919063ffffffff16565b600360008673ffffffffffffffffffffffffffffffffffffffff1673ffffffffffffffffffffffffffffffffffffffff16815260200190815260200160002060003373ffffffffffffffffffffffffffffffffffffffff1673ffffffffffffffffffffffffffffffffffffffff168152602001908152602001600020819055508273ffffffffffffffffffffffffffffffffffffffff168473ffffffffffffffffffffffffffffffffffffffff167fddf252ad1be2c89b69c2b068fc378daa952ba7f163c4a11628f55a4df523b3ef846040518082815260200191505060405180910390a3600190509392505050565b601260ff16600a0a6323c346000281565b601281565b6000809054906101000a900473ffffffffffffffffffffffffffffffffffffffff1673ffffffffffffffffffffffffffffffffffffffff163373ffffffffffffffffffffffffffffffffffffffff16141515610fb257600080fd5b8060068190555050565b600460009054906101000a900473ffffffffffffffffffffffffffffffffffffffff1681565b610fec33826120c8565b50565b600073ffffffffffffffffffffffffffffffffffffffff16600460009054906101000a900473ffffffffffffffffffffffffffffffffffffffff1673ffffffffffffffffffffffffffffffffffffffff161415151561104d57600080fd5b61105681610fe2565b61106b816005546120ac90919063ffffffff16565b600581905550600460009054906101000a900473ffffffffffffffffffffffffffffffffffffffff1673ffffffffffffffffffffffffffffffffffffffff1663753e88e533836040518363ffffffff167c0100000000000000000000000000000000000000000000000000000000028152600401808373ffffffffffffffffffffffffffffffffffffffff1673ffffffffffffffffffffffffffffffffffffffff16815260200182815260200192505050600060405180830381600087803b15801561113657600080fd5b505af115801561114a573d6000803e3d6000fd5b50505050600460009054906101000a900473ffffffffffffffffffffffffffffffffffffffff1673ffffffffffffffffffffffffffffffffffffffff163373ffffffffffffffffffffffffffffffffffffffff167fa6eb8a5f37ca5f03caebe01d969f49f93dd089e57d04580ba05974548fd44e77836040518082815260200191505060405180910390a350565b6000809054906101000a900473ffffffffffffffffffffffffffffffffffffffff1673ffffffffffffffffffffffffffffffffffffffff163373ffffffffffffffffffffffffffffffffffffffff1614151561123357600080fd5b8060078190555050565b600080600360003373ffffffffffffffffffffffffffffffffffffffff1673ffffffffffffffffffffffffffffffffffffffff16815260200190815260200160002060008573ffffffffffffffffffffffffffffffffffffffff1673ffffffffffffffffffffffffffffffffffffffff1681526020019081526020016000205490508083111561134e576000600360003373ffffffffffffffffffffffffffffffffffffffff1673ffffffffffffffffffffffffffffffffffffffff16815260200190815260200160002060008673ffffffffffffffffffffffffffffffffffffffff1673ffffffffffffffffffffffffffffffffffffffff168152602001908152602001600020819055506113e2565b611361838261209390919063ffffffff16565b600360003373ffffffffffffffffffffffffffffffffffffffff1673ffffffffffffffffffffffffffffffffffffffff16815260200190815260200160002060008673ffffffffffffffffffffffffffffffffffffffff1673ffffffffffffffffffffffffffffffffffffffff168152602001908152602001600020819055505b8373ffffffffffffffffffffffffffffffffffffffff163373ffffffffffffffffffffffffffffffffffffffff167f8c5be1e5ebec7d5bd14f71427d1e84f3dd0314c0f7b2291e5b200ac8c7c3b925600360003373ffffffffffffffffffffffffffffffffffffffff1673ffffffffffffffffffffffffffffffffffffffff16815260200190815260200160002060008873ffffffffffffffffffffffffffffffffffffffff1673ffffffffffffffffffffffffffffffffffffffff168152602001908152602001600020546040518082815260200191505060405180910390a3600191505092915050565b60075481565b6000600160008373ffffffffffffffffffffffffffffffffffffffff1673ffffffffffffffffffffffffffffffffffffffff168152602001908152602001600020549050919050565b60065481565b6000809054906101000a900473ffffffffffffffffffffffffffffffffffffffff1673ffffffffffffffffffffffffffffffffffffffff163373ffffffffffffffffffffffffffffffffffffffff1614151561157e57600080fd5b80600460006101000a81548173ffffffffffffffffffffffffffffffffffffffff021916908373ffffffffffffffffffffffffffffffffffffffff16021790555050565b6000600754600160008473ffffffffffffffffffffffffffffffffffffffff1673ffffffffffffffffffffffffffffffffffffffff1681526020019081526020016000205410159050919050565b6000809054906101000a900473ffffffffffffffffffffffffffffffffffffffff1681565b6040805190810160405280600381526020017f4d4b54000000000000000000000000000000000000000000000000000000000081525081565b60006116ff82600860008673ffffffffffffffffffffffffffffffffffffffff1673ffffffffffffffffffffffffffffffffffffffff16815260200190815260200160002060003373ffffffffffffffffffffffffffffffffffffffff1673ffffffffffffffffffffffffffffffffffffffff1681526020019081526020016000205461209390919063ffffffff16565b905080600860008573ffffffffffffffffffffffffffffffffffffffff1673ffffffffffffffffffffffffffffffffffffffff16815260200190815260200160002060003373ffffffffffffffffffffffffffffffffffffffff1673ffffffffffffffffffffffffffffffffffffffff1681526020019081526020016000208190555061178b8261227e565b3373ffffffffffffffffffffffffffffffffffffffff168373ffffffffffffffffffffffffffffffffffffffff167f5893bf91422655305d16e66cf1b6ecd4645b071f6904767d5d79bd91556e3fcf836040518082815260200191505060405180910390a3505050565b60008073ffffffffffffffffffffffffffffffffffffffff168373ffffffffffffffffffffffffffffffffffffffff161415151561183257600080fd5b600160003373ffffffffffffffffffffffffffffffffffffffff1673ffffffffffffffffffffffffffffffffffffffff16815260200190815260200160002054821115151561188057600080fd5b6118d282600160003373ffffffffffffffffffffffffffffffffffffffff1673ffffffffffffffffffffffffffffffffffffffff1681526020019081526020016000205461209390919063ffffffff16565b600160003373ffffffffffffffffffffffffffffffffffffffff1673ffffffffffffffffffffffffffffffffffffffff1681526020019081526020016000208190555061196782600160008673ffffffffffffffffffffffffffffffffffffffff1673ffffffffffffffffffffffffffffffffffffffff168152602001908152602001600020546120ac90919063ffffffff16565b600160008573ffffffffffffffffffffffffffffffffffffffff1673ffffffffffffffffffffffffffffffffffffffff168152602001908152602001600020819055508273ffffffffffffffffffffffffffffffffffffffff163373ffffffffffffffffffffffffffffffffffffffff167fddf252ad1be2c89b69c2b068fc378daa952ba7f163c4a11628f55a4df523b3ef846040518082815260200191505060405180910390a36001905092915050565b6000600860008473ffffffffffffffffffffffffffffffffffffffff1673ffffffffffffffffffffffffffffffffffffffff16815260200190815260200160002060008373ffffffffffffffffffffffffffffffffffffffff1673ffffffffffffffffffffffffffffffffffffffff16815260200190815260200160002054905092915050565b60055481565b6000600654600860008573ffffffffffffffffffffffffffffffffffffffff1673ffffffffffffffffffffffffffffffffffffffff16815260200190815260200160002060008473ffffffffffffffffffffffffffffffffffffffff1673ffffffffffffffffffffffffffffffffffffffff168152602001908152602001600020541015905092915050565b6000611bc382600860008673ffffffffffffffffffffffffffffffffffffffff1673ffffffffffffffffffffffffffffffffffffffff16815260200190815260200160002060003373ffffffffffffffffffffffffffffffffffffffff1673ffffffffffffffffffffffffffffffffffffffff168152602001908152602001600020546120ac90919063ffffffff16565b9050611bcf30836117f5565b5080600860008573ffffffffffffffffffffffffffffffffffffffff1673ffffffffffffffffffffffffffffffffffffffff16815260200190815260200160002060003373ffffffffffffffffffffffffffffffffffffffff1673ffffffffffffffffffffffffffffffffffffffff168152602001908152602001600020819055503373ffffffffffffffffffffffffffffffffffffffff168373ffffffffffffffffffffffffffffffffffffffff167f5893bf91422655305d16e66cf1b6ecd4645b071f6904767d5d79bd91556e3fcf836040518082815260200191505060405180910390a3505050565b6000611d4c82600360003373ffffffffffffffffffffffffffffffffffffffff1673ffffffffffffffffffffffffffffffffffffffff16815260200190815260200160002060008673ffffffffffffffffffffffffffffffffffffffff1673ffffffffffffffffffffffffffffffffffffffff168152602001908152602001600020546120ac90919063ffffffff16565b600360003373ffffffffffffffffffffffffffffffffffffffff1673ffffffffffffffffffffffffffffffffffffffff16815260200190815260200160002060008573ffffffffffffffffffffffffffffffffffffffff1673ffffffffffffffffffffffffffffffffffffffff168152602001908152602001600020819055508273ffffffffffffffffffffffffffffffffffffffff163373ffffffffffffffffffffffffffffffffffffffff167f8c5be1e5ebec7d5bd14f71427d1e84f3dd0314c0f7b2291e5b200ac8c7c3b925600360003373ffffffffffffffffffffffffffffffffffffffff1673ffffffffffffffffffffffffffffffffffffffff16815260200190815260200160002060008773ffffffffffffffffffffffffffffffffffffffff1673ffffffffffffffffffffffffffffffffffffffff168152602001908152602001600020546040518082815260200191505060405180910390a36001905092915050565b6000600360008473ffffffffffffffffffffffffffffffffffffffff1673ffffffffffffffffffffffffffffffffffffffff16815260200190815260200160002060008373ffffffffffffffffffffffffffffffffffffffff1673ffffffffffffffffffffffffffffffffffffffff16815260200190815260200160002054905092915050565b6000809054906101000a900473ffffffffffffffffffffffffffffffffffffffff1673ffffffffffffffffffffffffffffffffffffffff163373ffffffffffffffffffffffffffffffffffffffff16141515611f9957600080fd5b600073ffffffffffffffffffffffffffffffffffffffff168173ffffffffffffffffffffffffffffffffffffffff1614151515611fd557600080fd5b8073ffffffffffffffffffffffffffffffffffffffff166000809054906101000a900473ffffffffffffffffffffffffffffffffffffffff1673ffffffffffffffffffffffffffffffffffffffff167f8be0079c531659141344cd1fd0a4f28419497f9722a3daafe3b4186f6b6457e060405160405180910390a3806000806101000a81548173ffffffffffffffffffffffffffffffffffffffff021916908373ffffffffffffffffffffffffffffffffffffffff16021790555050565b60008282111515156120a157fe5b818303905092915050565b600081830190508281101515156120bf57fe5b80905092915050565b600160008373ffffffffffffffffffffffffffffffffffffffff1673ffffffffffffffffffffffffffffffffffffffff16815260200190815260200160002054811115151561211657600080fd5b61216881600160008573ffffffffffffffffffffffffffffffffffffffff1673ffffffffffffffffffffffffffffffffffffffff1681526020019081526020016000205461209390919063ffffffff16565b600160008473ffffffffffffffffffffffffffffffffffffffff1673ffffffffffffffffffffffffffffffffffffffff168152602001908152602001600020819055506121c08160025461209390919063ffffffff16565b6002819055508173ffffffffffffffffffffffffffffffffffffffff167fcc16f5dbb4873280815c1ee09dbd06736cffcc184412cf7a71a0fdb75d397ca5826040518082815260200191505060405180910390a2600073ffffffffffffffffffffffffffffffffffffffff168273ffffffffffffffffffffffffffffffffffffffff167fddf252ad1be2c89b69c2b068fc378daa952ba7f163c4a11628f55a4df523b3ef836040518082815260200191505060405180910390a35050565b6122d081600160003073ffffffffffffffffffffffffffffffffffffffff1673ffffffffffffffffffffffffffffffffffffffff1681526020019081526020016000205461209390919063ffffffff16565b600160003073ffffffffffffffffffffffffffffffffffffffff1673ffffffffffffffffffffffffffffffffffffffff1681526020019081526020016000208190555061236581600160003373ffffffffffffffffffffffffffffffffffffffff1673ffffffffffffffffffffffffffffffffffffffff168152602001908152602001600020546120ac90919063ffffffff16565b600160003373ffffffffffffffffffffffffffffffffffffffff1673ffffffffffffffffffffffffffffffffffffffff168152602001908152602001600020819055503373ffffffffffffffffffffffffffffffffffffffff163073ffffffffffffffffffffffffffffffffffffffff167fddf252ad1be2c89b69c2b068fc378daa952ba7f163c4a11628f55a4df523b3ef836040518082815260200191505060405180910390a3505600a165627a7a723058201e8a18120d8b3c8c3445f46446307a6e227b3828448153fcfd332a6012f24db60029",
  "source": "/*\n    Copyright 2017-2018 Phillip A. Elsasser\n\n    Licensed under the Apache License, Version 2.0 (the \"License\");\n    you may not use this file except in compliance with the License.\n    You may obtain a copy of the License at\n\n    http://www.apache.org/licenses/LICENSE-2.0\n\n    Unless required by applicable law or agreed to in writing, software\n    distributed under the License is distributed on an \"AS IS\" BASIS,\n    WITHOUT WARRANTIES OR CONDITIONS OF ANY KIND, either express or implied.\n    See the License for the specific language governing permissions and\n    limitations under the License.\n*/\n\npragma solidity ^0.4.23;\n\nimport \"./UpgradableToken.sol\";\n\n\n/// @title Market Token\n/// @notice Our membership token.  Users must lock tokens to enable trading for a given Market Contract\n/// as well as have a minimum balance of tokens to create new Market Contracts.\n/// @author Phil Elsasser <phil@marketprotocol.io>\ncontract MarketToken is UpgradeableToken {\n\n    string public constant name = \"MARKET Protocol Token\";\n    string public constant symbol = \"MKT\";\n    uint8 public constant decimals = 18;\n\n    uint public constant INITIAL_SUPPLY = 600000000 * 10**uint(decimals); // 600 million tokens with 18 decimals (6e+26)\n\n    uint public lockQtyToAllowTrading;\n    uint public minBalanceToAllowContractCreation;\n\n    mapping(address => mapping(address => uint)) contractAddressToUserAddressToQtyLocked;\n\n    event UpdatedUserLockedBalance(address indexed contractAddress, address indexed userAddress, uint balance);\n\n    constructor(uint qtyToLockForTrading, uint minBalanceForCreation) public {\n        lockQtyToAllowTrading = qtyToLockForTrading;\n        minBalanceToAllowContractCreation = minBalanceForCreation;\n        totalSupply_ = INITIAL_SUPPLY;  //note totalSupply_ and INITIAL_SUPPLY may vary as token's are burnt.\n\n        balances[msg.sender] = INITIAL_SUPPLY; // for now allocate all tokens to creator\n    }\n\n    /*\n    // EXTERNAL METHODS\n    */\n\n    /// @notice checks if a user address has locked the needed qty to allow trading to a given contract address\n    /// @param marketContractAddress address of the MarketContract\n    /// @param userAddress address of the user\n    /// @return true if user has locked tokens to trade the supplied marketContractAddress\n    function isUserEnabledForContract(address marketContractAddress, address userAddress) external view returns (bool) {\n        return contractAddressToUserAddressToQtyLocked[marketContractAddress][userAddress] >= lockQtyToAllowTrading;\n    }\n\n    /// @notice checks if a user address has enough token balance to be eligible to create a contract\n    /// @param userAddress address of the user\n    /// @return true if user has sufficient balance of tokens\n    function isBalanceSufficientForContractCreation(address userAddress) external view returns (bool) {\n        return balances[userAddress] >= minBalanceToAllowContractCreation;\n    }\n\n    /// @notice allows user to lock tokens to enable trading for a given market contract\n    /// @param marketContractAddress address of the MarketContract\n    /// @param qtyToLock desired qty of tokens to lock\n    function lockTokensForTradingMarketContract(address marketContractAddress, uint qtyToLock) external {\n        uint256 lockedBalance = contractAddressToUserAddressToQtyLocked[marketContractAddress][msg.sender].add(\n            qtyToLock\n        );\n        transfer(this, qtyToLock);\n        contractAddressToUserAddressToQtyLocked[marketContractAddress][msg.sender] = lockedBalance;\n        emit UpdatedUserLockedBalance(marketContractAddress, msg.sender, lockedBalance);\n    }\n\n    /// @notice allows user to unlock tokens previously allocated to trading a MarketContract\n    /// @param marketContractAddress address of the MarketContract\n    /// @param qtyToUnlock desired qty of tokens to unlock\n    function unlockTokens(address marketContractAddress, uint qtyToUnlock) external {\n        uint256 balanceAfterUnLock = contractAddressToUserAddressToQtyLocked[marketContractAddress][msg.sender].sub(\n            qtyToUnlock\n        );  // no need to check balance, sub() will ensure sufficient balance to unlock!\n        contractAddressToUserAddressToQtyLocked[marketContractAddress][msg.sender] = balanceAfterUnLock;        // update balance before external call!\n        transferLockedTokensBackToUser(qtyToUnlock);\n        emit UpdatedUserLockedBalance(marketContractAddress, msg.sender, balanceAfterUnLock);\n    }\n\n    /// @notice get the currently locked balance for a user given the specific contract address\n    /// @param marketContractAddress address of the MarketContract\n    /// @param userAddress address of the user\n    /// @return the locked balance\n    function getLockedBalanceForUser(address marketContractAddress, address userAddress) external view returns (uint) {\n        return contractAddressToUserAddressToQtyLocked[marketContractAddress][userAddress];\n    }\n\n    /*\n    // EXTERNAL - ONLY CREATOR  METHODS\n    */\n\n    /// @notice allows the creator to set the qty each user address needs to lock in\n    /// order to trade a given MarketContract\n    /// @param qtyToLock qty needed to enable trading\n    function setLockQtyToAllowTrading(uint qtyToLock) external onlyOwner {\n        lockQtyToAllowTrading = qtyToLock;\n    }\n\n    /// @notice allows the creator to set minimum balance a user must have in order to create MarketContracts\n    /// @param minBalance balance to enable contract creation\n    function setMinBalanceForContractCreation(uint minBalance) external onlyOwner {\n        minBalanceToAllowContractCreation = minBalance;\n    }\n\n    /*\n    // PRIVATE METHODS\n    */\n\n    /// @dev returns locked balance from this contract to the user's balance\n    /// @param qtyToUnlock qty to return to user's balance\n    function transferLockedTokensBackToUser(uint qtyToUnlock) private {\n        balances[this] = balances[this].sub(qtyToUnlock);\n        balances[msg.sender] = balances[msg.sender].add(qtyToUnlock);\n        emit Transfer(this, msg.sender, qtyToUnlock);\n    }\n}\n",
  "sourcePath": "/home/pelsasser/MARKETProtocol/contracts/tokens/MarketToken.sol",
  "compiler": {
    "name": "solc",
    "version": "0.4.23+commit.124ca40d.Emscripten.clang"
  },
  "schemaVersion": "2.0.0",
  "updatedAt": "2018-05-25T01:35:13.879Z"
}