{
  "contractName": "MarketContractOraclize",
  "abi": [
    {
      "constant": true,
      "inputs": [],
      "name": "creator",
      "outputs": [
        {
          "name": "",
          "type": "address"
        }
      ],
      "payable": false,
      "stateMutability": "view",
      "type": "function"
    },
    {
      "constant": true,
      "inputs": [],
      "name": "lastPrice",
      "outputs": [
        {
          "name": "",
          "type": "uint256"
        }
      ],
      "payable": false,
      "stateMutability": "view",
      "type": "function"
    },
    {
      "constant": true,
      "inputs": [],
      "name": "lastPriceQueryResult",
      "outputs": [
        {
          "name": "",
          "type": "string"
        }
      ],
      "payable": false,
      "stateMutability": "view",
      "type": "function"
    },
    {
      "constant": true,
      "inputs": [],
      "name": "PRICE_DECIMAL_PLACES",
      "outputs": [
        {
          "name": "",
          "type": "uint256"
        }
      ],
      "payable": false,
      "stateMutability": "view",
      "type": "function"
    },
    {
      "constant": true,
      "inputs": [],
      "name": "isSettled",
      "outputs": [
        {
          "name": "",
          "type": "bool"
        }
      ],
      "payable": false,
      "stateMutability": "view",
      "type": "function"
    },
    {
      "constant": true,
      "inputs": [],
      "name": "isCollateralPoolContractLinked",
      "outputs": [
        {
          "name": "",
          "type": "bool"
        }
      ],
      "payable": false,
      "stateMutability": "view",
      "type": "function"
    },
    {
      "constant": true,
      "inputs": [],
      "name": "QUERY_CALLBACK_GAS",
      "outputs": [
        {
          "name": "",
          "type": "uint256"
        }
      ],
      "payable": false,
      "stateMutability": "view",
      "type": "function"
    },
    {
      "constant": true,
      "inputs": [
        {
          "name": "orderHash",
          "type": "bytes32"
        }
      ],
      "name": "getQtyFilledOrCancelledFromOrder",
      "outputs": [
        {
          "name": "",
          "type": "int256"
        }
      ],
      "payable": false,
      "stateMutability": "view",
      "type": "function"
    },
    {
      "constant": true,
      "inputs": [],
      "name": "ORACLE_DATA_SOURCE",
      "outputs": [
        {
          "name": "",
          "type": "string"
        }
      ],
      "payable": false,
      "stateMutability": "view",
      "type": "function"
    },
    {
      "constant": true,
      "inputs": [],
      "name": "ORACLE_QUERY",
      "outputs": [
        {
          "name": "",
          "type": "string"
        }
      ],
      "payable": false,
      "stateMutability": "view",
      "type": "function"
    },
    {
      "constant": true,
      "inputs": [],
      "name": "CONTRACT_NAME",
      "outputs": [
        {
          "name": "",
          "type": "string"
        }
      ],
      "payable": false,
      "stateMutability": "view",
      "type": "function"
    },
    {
      "constant": true,
      "inputs": [],
      "name": "BASE_TOKEN_ADDRESS",
      "outputs": [
        {
          "name": "",
          "type": "address"
        }
      ],
      "payable": false,
      "stateMutability": "view",
      "type": "function"
    },
    {
      "constant": true,
      "inputs": [],
      "name": "MKT_TOKEN_ADDRESS",
      "outputs": [
        {
          "name": "",
          "type": "address"
        }
      ],
      "payable": false,
      "stateMutability": "view",
      "type": "function"
    },
    {
      "constant": true,
      "inputs": [],
      "name": "marketCollateralPoolAddress",
      "outputs": [
        {
          "name": "",
          "type": "address"
        }
      ],
      "payable": false,
      "stateMutability": "view",
      "type": "function"
    },
    {
      "constant": false,
      "inputs": [
        {
          "name": "orderAddresses",
          "type": "address[3]"
        },
        {
          "name": "unsignedOrderValues",
          "type": "uint256[5]"
        },
        {
          "name": "orderQty",
          "type": "int256"
        },
        {
          "name": "qtyToFill",
          "type": "int256"
        },
        {
          "name": "v",
          "type": "uint8"
        },
        {
          "name": "r",
          "type": "bytes32"
        },
        {
          "name": "s",
          "type": "bytes32"
        }
      ],
      "name": "tradeOrder",
      "outputs": [
        {
          "name": "filledQty",
          "type": "int256"
        }
      ],
      "payable": false,
      "stateMutability": "nonpayable",
      "type": "function"
    },
    {
      "constant": true,
      "inputs": [],
      "name": "PRICE_CAP",
      "outputs": [
        {
          "name": "",
          "type": "uint256"
        }
      ],
      "payable": false,
      "stateMutability": "view",
      "type": "function"
    },
    {
      "constant": true,
      "inputs": [],
      "name": "EXPIRATION",
      "outputs": [
        {
          "name": "",
          "type": "uint256"
        }
      ],
      "payable": false,
      "stateMutability": "view",
      "type": "function"
    },
    {
      "constant": false,
      "inputs": [
        {
          "name": "poolAddress",
          "type": "address"
        }
      ],
      "name": "setCollateralPoolContractAddress",
      "outputs": [],
      "payable": false,
      "stateMutability": "nonpayable",
      "type": "function"
    },
    {
      "constant": true,
      "inputs": [],
      "name": "PRICE_FLOOR",
      "outputs": [
        {
          "name": "",
          "type": "uint256"
        }
      ],
      "payable": false,
      "stateMutability": "view",
      "type": "function"
    },
    {
      "constant": true,
      "inputs": [],
      "name": "QTY_MULTIPLIER",
      "outputs": [
        {
          "name": "",
          "type": "uint256"
        }
      ],
      "payable": false,
      "stateMutability": "view",
      "type": "function"
    },
    {
      "constant": true,
      "inputs": [],
      "name": "settlementPrice",
      "outputs": [
        {
          "name": "",
          "type": "uint256"
        }
      ],
      "payable": false,
      "stateMutability": "view",
      "type": "function"
    },
    {
      "constant": false,
      "inputs": [
        {
          "name": "newCreator",
          "type": "address"
        }
      ],
      "name": "transferCreator",
      "outputs": [],
      "payable": false,
      "stateMutability": "nonpayable",
      "type": "function"
    },
    {
      "constant": false,
      "inputs": [
        {
          "name": "orderAddresses",
          "type": "address[3]"
        },
        {
          "name": "unsignedOrderValues",
          "type": "uint256[5]"
        },
        {
          "name": "orderQty",
          "type": "int256"
        },
        {
          "name": "qtyToCancel",
          "type": "int256"
        }
      ],
      "name": "cancelOrder",
      "outputs": [
        {
          "name": "qtyCancelled",
          "type": "int256"
        }
      ],
      "payable": false,
      "stateMutability": "nonpayable",
      "type": "function"
    },
    {
      "inputs": [
        {
          "name": "contractName",
          "type": "string"
        },
        {
          "name": "marketTokenAddress",
          "type": "address"
        },
        {
          "name": "baseTokenAddress",
          "type": "address"
        },
        {
          "name": "contractSpecs",
          "type": "uint256[5]"
        },
        {
          "name": "oracleDataSource",
          "type": "string"
        },
        {
          "name": "oracleQuery",
          "type": "string"
        }
      ],
      "payable": false,
      "stateMutability": "nonpayable",
      "type": "constructor"
    },
    {
      "anonymous": false,
      "inputs": [
        {
          "indexed": false,
          "name": "price",
          "type": "string"
        }
      ],
      "name": "UpdatedLastPrice",
      "type": "event"
    },
    {
      "anonymous": false,
      "inputs": [
        {
          "indexed": false,
          "name": "settlePrice",
          "type": "uint256"
        }
      ],
      "name": "ContractSettled",
      "type": "event"
    },
    {
      "anonymous": false,
      "inputs": [
        {
          "indexed": true,
          "name": "user",
          "type": "address"
        },
        {
          "indexed": false,
          "name": "balance",
          "type": "uint256"
        }
      ],
      "name": "UpdatedUserBalance",
      "type": "event"
    },
    {
      "anonymous": false,
      "inputs": [
        {
          "indexed": false,
          "name": "balance",
          "type": "uint256"
        }
      ],
      "name": "UpdatedPoolBalance",
      "type": "event"
    },
    {
      "anonymous": false,
      "inputs": [
        {
          "indexed": true,
          "name": "errorCode",
          "type": "uint8"
        },
        {
          "indexed": true,
          "name": "orderHash",
          "type": "bytes32"
        }
      ],
      "name": "Error",
      "type": "event"
    },
    {
      "anonymous": false,
      "inputs": [
        {
          "indexed": true,
          "name": "maker",
          "type": "address"
        },
        {
          "indexed": true,
          "name": "taker",
          "type": "address"
        },
        {
          "indexed": true,
          "name": "feeRecipient",
          "type": "address"
        },
        {
          "indexed": false,
          "name": "filledQty",
          "type": "int256"
        },
        {
          "indexed": false,
          "name": "paidMakerFee",
          "type": "uint256"
        },
        {
          "indexed": false,
          "name": "paidTakerFee",
          "type": "uint256"
        },
        {
          "indexed": false,
          "name": "orderHash",
          "type": "bytes32"
        }
      ],
      "name": "OrderFilled",
      "type": "event"
    },
    {
      "anonymous": false,
      "inputs": [
        {
          "indexed": true,
          "name": "maker",
          "type": "address"
        },
        {
          "indexed": true,
          "name": "feeRecipient",
          "type": "address"
        },
        {
          "indexed": false,
          "name": "cancelledQty",
          "type": "int256"
        },
        {
          "indexed": true,
          "name": "orderHash",
          "type": "bytes32"
        }
      ],
      "name": "OrderCancelled",
      "type": "event"
    },
    {
      "anonymous": false,
      "inputs": [
        {
          "indexed": true,
          "name": "currentCreator",
          "type": "address"
        },
        {
          "indexed": true,
          "name": "newCreator",
          "type": "address"
        }
      ],
      "name": "CreatorTransferred",
      "type": "event"
    },
    {
      "constant": false,
      "inputs": [],
      "name": "requestEarlySettlement",
      "outputs": [],
      "payable": true,
      "stateMutability": "payable",
      "type": "function"
    },
    {
      "constant": false,
      "inputs": [
        {
          "name": "myid",
          "type": "bytes32"
        },
        {
          "name": "result",
          "type": "string"
        }
      ],
      "name": "__callback",
      "outputs": [],
      "payable": false,
      "stateMutability": "nonpayable",
      "type": "function"
    },
    {
      "constant": false,
      "inputs": [
        {
          "name": "queryID",
          "type": "bytes32"
        },
        {
          "name": "result",
          "type": "string"
        },
        {
          "name": "proof",
          "type": "bytes"
        }
      ],
      "name": "__callback",
      "outputs": [],
      "payable": false,
      "stateMutability": "nonpayable",
      "type": "function"
    }
  ],
  "bytecode": "0x60606040526000600c60006101000a81548160ff0219169083151502179055506000600c60016101000a81548160ff02191690831515021790555034156200004657600080fd5b60405162005c6f38038062005c6f833981016040528080518201919060200180519060200190919080519060200190918160a0018051820191906020018051820191905050600086868686336000806101000a81548173ffffffffffffffffffffffffffffffffffffffff021916908373ffffffffffffffffffffffffffffffffffffffff16021790555082600160006101000a81548173ffffffffffffffffffffffffffffffffffffffff021916908373ffffffffffffffffffffffffffffffffffffffff16021790555082600260006101000a81548173ffffffffffffffffffffffffffffffffffffffff021916908373ffffffffffffffffffffffffffffffffffffffff160217905550600260009054906101000a900473ffffffffffffffffffffffffffffffffffffffff1673ffffffffffffffffffffffffffffffffffffffff166384281dcc336000604051602001526040518263ffffffff167c0100000000000000000000000000000000000000000000000000000000028152600401808273ffffffffffffffffffffffffffffffffffffffff1673ffffffffffffffffffffffffffffffffffffffff168152602001915050602060405180830381600087803b15156200021957600080fd5b6102c65a03f115156200022b57600080fd5b5050506040518051905015156200024157600080fd5b8060006005811015156200025157fe5b60200201516006819055508060016005811015156200026c57fe5b60200201516005819055506006546005541115156200028a57600080fd5b8060026005811015156200029a57fe5b6020020151600781905550806003600581101515620002b557fe5b6020020151600881905550806004600581101515620002d057fe5b602002015160098190555042600954111515620002ec57600080fd5b836003908051906020019062000304929190620014b7565b5081600460006101000a81548173ffffffffffffffffffffffffffffffffffffffff021916908373ffffffffffffffffffffffffffffffffffffffff16021790555050505050620003b160017f01000000000000000000000000000000000000000000000000000000000000000260107f01000000000000000000000000000000000000000000000000000000000000000217620004396401000000000262003ca3176401000000009004565b8260139080519060200190620003c9929190620014b7565b508160149080519060200190620003e2929190620014b7565b5042600954111515620003f457600080fd5b624f1a009050804260095403111515156200040e57600080fd5b6200042c620007c46401000000000262003ff9176401000000009004565b5050505050505062001566565b6000601060009054906101000a900473ffffffffffffffffffffffffffffffffffffffff1673ffffffffffffffffffffffffffffffffffffffff161480620004c157506000620004bf601060009054906101000a900473ffffffffffffffffffffffffffffffffffffffff166200096264010000000002620033d1176401000000009004565b145b15620004e957620004e760006200096d64010000000002620033dc176401000000009004565b505b601060009054906101000a900473ffffffffffffffffffffffffffffffffffffffff1673ffffffffffffffffffffffffffffffffffffffff166338cc48316000604051602001526040518163ffffffff167c0100000000000000000000000000000000000000000000000000000000028152600401602060405180830381600087803b15156200057857600080fd5b6102c65a03f115156200058a57600080fd5b5050506040518051905073ffffffffffffffffffffffffffffffffffffffff16601160009054906101000a900473ffffffffffffffffffffffffffffffffffffffff1673ffffffffffffffffffffffffffffffffffffffff16141515620006d757601060009054906101000a900473ffffffffffffffffffffffffffffffffffffffff1673ffffffffffffffffffffffffffffffffffffffff166338cc48316000604051602001526040518163ffffffff167c0100000000000000000000000000000000000000000000000000000000028152600401602060405180830381600087803b15156200067a57600080fd5b6102c65a03f115156200068c57600080fd5b50505060405180519050601160006101000a81548173ffffffffffffffffffffffffffffffffffffffff021916908373ffffffffffffffffffffffffffffffffffffffff1602179055505b601160009054906101000a900473ffffffffffffffffffffffffffffffffffffffff1673ffffffffffffffffffffffffffffffffffffffff1663688dcfd7826040518263ffffffff167c010000000000000000000000000000000000000000000000000000000002815260040180827effffffffffffffffffffffffffffffffffffffffffffffffffffffffffffff19167effffffffffffffffffffffffffffffffffffffffffffffffffffffffffffff19168152602001915050600060405180830381600087803b1515620007ac57600080fd5b6102c65a03f11515620007be57600080fd5b50505050565b60006200092960095460138054600181600116156101000203166002900480601f016020809104026020016040519081016040528092919081815260200182805460018160011615610100020316600290048015620008675780601f106200083b5761010080835404028352916020019162000867565b820191906000526020600020905b8154815290600101906020018083116200084957829003601f168201915b505050505060148054600181600116156101000203166002900480601f016020809104026020016040519081016040528092919081815260200182805460018160011615610100020316600290048015620009065780601f10620008da5761010080835404028352916020019162000906565b820191906000526020600020905b815481529060010190602001808311620008e857829003601f168201915b5050505050620249f062000f056401000000000262004179176401000000009004565b9050600160166000836000191660001916815260200190815260200160002060006101000a81548160ff02191690831515021790555050565b6000813b9050919050565b600080620009a3731d3b2638a7cc9f2cb3d298a3da7a90b67e5506ed6200096264010000000002620033d1176401000000009004565b111562000a5d57731d3b2638a7cc9f2cb3d298a3da7a90b67e5506ed601060006101000a81548173ffffffffffffffffffffffffffffffffffffffff021916908373ffffffffffffffffffffffffffffffffffffffff16021790555062000a536040805190810160405280600b81526020017f6574685f6d61696e6e65740000000000000000000000000000000000000000008152506200149b6401000000000262003b3e176401000000009004565b6001905062000f00565b600062000a9273c03a2615d5efaf5f49f60b7bb6583eaec212fdf16200096264010000000002620033d1176401000000009004565b111562000b4c5773c03a2615d5efaf5f49f60b7bb6583eaec212fdf1601060006101000a81548173ffffffffffffffffffffffffffffffffffffffff021916908373ffffffffffffffffffffffffffffffffffffffff16021790555062000b426040805190810160405280600c81526020017f6574685f726f707374656e3300000000000000000000000000000000000000008152506200149b6401000000000262003b3e176401000000009004565b6001905062000f00565b600062000b8173b7a07bcf2ba2f2703b24c0691b5278999c59ac7e6200096264010000000002620033d1176401000000009004565b111562000c3b5773b7a07bcf2ba2f2703b24c0691b5278999c59ac7e601060006101000a81548173ffffffffffffffffffffffffffffffffffffffff021916908373ffffffffffffffffffffffffffffffffffffffff16021790555062000c316040805190810160405280600981526020017f6574685f6b6f76616e00000000000000000000000000000000000000000000008152506200149b6401000000000262003b3e176401000000009004565b6001905062000f00565b600062000c7073146500cfd35b22e4a392fe0adc06de1a1368ed486200096264010000000002620033d1176401000000009004565b111562000d2a5773146500cfd35b22e4a392fe0adc06de1a1368ed48601060006101000a81548173ffffffffffffffffffffffffffffffffffffffff021916908373ffffffffffffffffffffffffffffffffffffffff16021790555062000d206040805190810160405280600b81526020017f6574685f72696e6b6562790000000000000000000000000000000000000000008152506200149b6401000000000262003b3e176401000000009004565b6001905062000f00565b600062000d5f736f485c8bf6fc43ea212e93bbf8ce046c7f1cb4756200096264010000000002620033d1176401000000009004565b111562000dc557736f485c8bf6fc43ea212e93bbf8ce046c7f1cb475601060006101000a81548173ffffffffffffffffffffffffffffffffffffffff021916908373ffffffffffffffffffffffffffffffffffffffff1602179055506001905062000f00565b600062000dfa7320e12a1f859b3feae5fb2a0a32c18f5a65555bbf6200096264010000000002620033d1176401000000009004565b111562000e60577320e12a1f859b3feae5fb2a0a32c18f5a65555bbf601060006101000a81548173ffffffffffffffffffffffffffffffffffffffff021916908373ffffffffffffffffffffffffffffffffffffffff1602179055506001905062000f00565b600062000e957351efaf4c8b3c9afbd5ab9f4bbc82784ab6ef8faa6200096264010000000002620033d1176401000000009004565b111562000efb577351efaf4c8b3c9afbd5ab9f4bbc82784ab6ef8faa601060006101000a81548173ffffffffffffffffffffffffffffffffffffffff021916908373ffffffffffffffffffffffffffffffffffffffff1602179055506001905062000f00565b600090505b919050565b6000806000601060009054906101000a900473ffffffffffffffffffffffffffffffffffffffff1673ffffffffffffffffffffffffffffffffffffffff16148062000f905750600062000f8e601060009054906101000a900473ffffffffffffffffffffffffffffffffffffffff166200096264010000000002620033d1176401000000009004565b145b1562000fb85762000fb660006200096d64010000000002620033dc176401000000009004565b505b601060009054906101000a900473ffffffffffffffffffffffffffffffffffffffff1673ffffffffffffffffffffffffffffffffffffffff166338cc48316000604051602001526040518163ffffffff167c0100000000000000000000000000000000000000000000000000000000028152600401602060405180830381600087803b15156200104757600080fd5b6102c65a03f115156200105957600080fd5b5050506040518051905073ffffffffffffffffffffffffffffffffffffffff16601160009054906101000a900473ffffffffffffffffffffffffffffffffffffffff1673ffffffffffffffffffffffffffffffffffffffff16141515620011a657601060009054906101000a900473ffffffffffffffffffffffffffffffffffffffff1673ffffffffffffffffffffffffffffffffffffffff166338cc48316000604051602001526040518163ffffffff167c0100000000000000000000000000000000000000000000000000000000028152600401602060405180830381600087803b15156200114957600080fd5b6102c65a03f115156200115b57600080fd5b50505060405180519050601160006101000a81548173ffffffffffffffffffffffffffffffffffffffff021916908373ffffffffffffffffffffffffffffffffffffffff1602179055505b601160009054906101000a900473ffffffffffffffffffffffffffffffffffffffff1673ffffffffffffffffffffffffffffffffffffffff16632ef3accc86856000604051602001526040518363ffffffff167c01000000000000000000000000000000000000000000000000000000000281526004018080602001838152602001828103825284818151815260200191508051906020019080838360005b838110156200126257808201518184015260208101905062001245565b50505050905090810190601f168015620012905780820380516001836020036101000a031916815260200191505b509350505050602060405180830381600087803b1515620012b057600080fd5b6102c65a03f11515620012c257600080fd5b505050604051805190509050823a02670de0b6b3a764000001811115620012f0576000600102915062001492565b601160009054906101000a900473ffffffffffffffffffffffffffffffffffffffff1673ffffffffffffffffffffffffffffffffffffffff1663c51be90f82888888886000604051602001526040518663ffffffff167c0100000000000000000000000000000000000000000000000000000000028152600401808581526020018060200180602001848152602001838103835286818151815260200191508051906020019080838360005b83811015620013b95780820151818401526020810190506200139c565b50505050905090810190601f168015620013e75780820380516001836020036101000a031916815260200191505b50838103825285818151815260200191508051906020019080838360005b838110156200142257808201518184015260208101905062001405565b50505050905090810190601f168015620014505780820380516001836020036101000a031916815260200191505b5096505050505050506020604051808303818588803b15156200147257600080fd5b6125ee5a03f115156200148457600080fd5b505050506040518051905091505b50949350505050565b8060129080519060200190620014b3929190620014b7565b5050565b828054600181600116156101000203166002900490600052602060002090601f016020900481019282601f10620014fa57805160ff19168380011785556200152b565b828001600101855582156200152b579182015b828111156200152a5782518255916020019190600101906200150d565b5b5090506200153a91906200153e565b5090565b6200156391905b808211156200155f57600081600090555060010162001545565b5090565b90565b6146f980620015766000396000f300606060405260043610610154576000357c0100000000000000000000000000000000000000000000000000000000900463ffffffff16806302d05d3f14610159578063053f14da146101ae5780630c8eb675146101d757806327dc297e146102655780632fed1b00146102cf5780633270bb5b146102f857806338bbfa50146103255780633b3c4ae9146103d2578063411449bb146103ff5780634c258eb11461042857806356357d91146104635780635ea7867a146104f1578063614d08f81461057f5780636cee3abb1461060d5780636db7f77c14610662578063798ddbc81461066c57806390253ade146106c1578063930a9d9214610716578063b5471dee1461078a578063bb4b5734146107b3578063c201293b146107dc578063c32b1dfa14610815578063ca361d671461083e578063f348e8b214610867578063fa3fa19614610890578063fc51b9c5146108c9575b600080fd5b341561016457600080fd5b61016c610917565b604051808273ffffffffffffffffffffffffffffffffffffffff1673ffffffffffffffffffffffffffffffffffffffff16815260200191505060405180910390f35b34156101b957600080fd5b6101c161093c565b6040518082815260200191505060405180910390f35b34156101e257600080fd5b6101ea610942565b6040518080602001828103825283818151815260200191508051906020019080838360005b8381101561022a57808201518184015260208101905061020f565b50505050905090810190601f1680156102575780820380516001836020036101000a031916815260200191505b509250505060405180910390f35b341561027057600080fd5b6102cd60048080356000191690602001909190803590602001908201803590602001908080601f016020809104026020016040519081016040528093929190818152602001838380828437820191505050505050919050506109e0565b005b34156102da57600080fd5b6102e2610a12565b6040518082815260200191505060405180910390f35b341561030357600080fd5b61030b610a18565b604051808215151515815260200191505060405180910390f35b341561033057600080fd5b6103d060048080356000191690602001909190803590602001908201803590602001908080601f0160208091040260200160405190810160405280939291908181526020018383808284378201915050505050509190803590602001908201803590602001908080601f01602080910402602001604051908101604052809392919081815260200183838082843782019150505050505091905050610a2b565b005b34156103dd57600080fd5b6103e5610b9d565b604051808215151515815260200191505060405180910390f35b341561040a57600080fd5b610412610bb0565b6040518082815260200191505060405180910390f35b341561043357600080fd5b61044d600480803560001916906020019091905050610bb7565b6040518082815260200191505060405180910390f35b341561046e57600080fd5b610476610bd4565b6040518080602001828103825283818151815260200191508051906020019080838360005b838110156104b657808201518184015260208101905061049b565b50505050905090810190601f1680156104e35780820380516001836020036101000a031916815260200191505b509250505060405180910390f35b34156104fc57600080fd5b610504610c72565b6040518080602001828103825283818151815260200191508051906020019080838360005b83811015610544578082015181840152602081019050610529565b50505050905090810190601f1680156105715780820380516001836020036101000a031916815260200191505b509250505060405180910390f35b341561058a57600080fd5b610592610d10565b6040518080602001828103825283818151815260200191508051906020019080838360005b838110156105d25780820151818401526020810190506105b7565b50505050905090810190601f1680156105ff5780820380516001836020036101000a031916815260200191505b509250505060405180910390f35b341561061857600080fd5b610620610dae565b604051808273ffffffffffffffffffffffffffffffffffffffff1673ffffffffffffffffffffffffffffffffffffffff16815260200191505060405180910390f35b61066a610dd4565b005b341561067757600080fd5b61067f61100b565b604051808273ffffffffffffffffffffffffffffffffffffffff1673ffffffffffffffffffffffffffffffffffffffff16815260200191505060405180910390f35b34156106cc57600080fd5b6106d4611031565b604051808273ffffffffffffffffffffffffffffffffffffffff1673ffffffffffffffffffffffffffffffffffffffff16815260200191505060405180910390f35b341561072157600080fd5b610774600480806060019091908060a001909190803590602001909190803590602001909190803560ff169060200190919080356000191690602001909190803560001916906020019091905050611057565b6040518082815260200191505060405180910390f35b341561079557600080fd5b61079d6119d2565b6040518082815260200191505060405180910390f35b34156107be57600080fd5b6107c66119d8565b6040518082815260200191505060405180910390f35b34156107e757600080fd5b610813600480803573ffffffffffffffffffffffffffffffffffffffff169060200190919050506119de565b005b341561082057600080fd5b610828611c13565b6040518082815260200191505060405180910390f35b341561084957600080fd5b610851611c19565b6040518082815260200191505060405180910390f35b341561087257600080fd5b61087a611c1f565b6040518082815260200191505060405180910390f35b341561089b57600080fd5b6108c7600480803573ffffffffffffffffffffffffffffffffffffffff16906020019091905050611c25565b005b34156108d457600080fd5b610901600480806060019091908060a0019091908035906020019091908035906020019091905050611d7a565b6040518082815260200191505060405180910390f35b6000809054906101000a900473ffffffffffffffffffffffffffffffffffffffff1681565b600a5481565b60158054600181600116156101000203166002900480601f0160208091040260200160405190810160405280929190818152602001828054600181600116156101000203166002900480156109d85780601f106109ad576101008083540402835291602001916109d8565b820191906000526020600020905b8154815290600101906020018083116109bb57829003601f168201915b505050505081565b610a0e828260006040518059106109f45750595b9080825280601f01601f1916602001820160405250610a2b565b5050565b60075481565b600c60009054906101000a900460ff1681565b610a33611ffe565b73ffffffffffffffffffffffffffffffffffffffff163373ffffffffffffffffffffffffffffffffffffffff16141515610a6c57600080fd5b60166000846000191660001916815260200190815260200160002060009054906101000a900460ff161515610aa057600080fd5b8160159080519060200190610ab6929190613b58565b50610ac382600754612318565b600a819055507f3e19f2256bddc30aeab8054ccbd86723452d07f687b94441de69c05ee212dafa826040518080602001828103825283818151815260200191508051906020019080838360005b83811015610b2b578082015181840152602081019050610b10565b50505050905090810190601f168015610b585780820380516001836020036101000a031916815260200191505b509250505060405180910390a1610b6d612612565b60166000846000191660001916815260200190815260200160002060006101000a81549060ff0219169055505050565b600c60019054906101000a900460ff1681565b620249f081565b6000610bcd82600e6126b390919063ffffffff16565b9050919050565b60138054600181600116156101000203166002900480601f016020809104026020016040519081016040528092919081815260200182805460018160011615610100020316600290048015610c6a5780601f10610c3f57610100808354040283529160200191610c6a565b820191906000526020600020905b815481529060010190602001808311610c4d57829003601f168201915b505050505081565b60148054600181600116156101000203166002900480601f016020809104026020016040519081016040528092919081815260200182805460018160011615610100020316600290048015610d085780601f10610cdd57610100808354040283529160200191610d08565b820191906000526020600020905b815481529060010190602001808311610ceb57829003601f168201915b505050505081565b60038054600181600116156101000203166002900480601f016020809104026020016040519081016040528092919081815260200182805460018160011615610100020316600290048015610da65780601f10610d7b57610100808354040283529160200191610da6565b820191906000526020600020905b815481529060010190602001808311610d8957829003601f168201915b505050505081565b600460009054906101000a900473ffffffffffffffffffffffffffffffffffffffff1681565b600080610e7e60138054600181600116156101000203166002900480601f016020809104026020016040519081016040528092919081815260200182805460018160011615610100020316600290048015610e705780601f10610e4557610100808354040283529160200191610e70565b820191906000526020600020905b815481529060010190602001808311610e5357829003601f168201915b5050505050620249f061270a565b9150813410151515610e8f57600080fd5b610fd160138054600181600116156101000203166002900480601f016020809104026020016040519081016040528092919081815260200182805460018160011615610100020316600290048015610f285780601f10610efd57610100808354040283529160200191610f28565b820191906000526020600020905b815481529060010190602001808311610f0b57829003601f168201915b505050505060148054600181600116156101000203166002900480601f016020809104026020016040519081016040528092919081815260200182805460018160011615610100020316600290048015610fc35780601f10610f9857610100808354040283529160200191610fc3565b820191906000526020600020905b815481529060010190602001808311610fa657829003601f168201915b5050505050620249f0612a9f565b9050600160166000836000191660001916815260200190815260200160002060006101000a81548160ff0219169083151502179055505050565b600160009054906101000a900473ffffffffffffffffffffffffffffffffffffffff1681565b600c60029054906101000a900473ffffffffffffffffffffffffffffffffffffffff1681565b6000611061613bd8565b6000806000806000600c60019054906101000a900460ff1680156110925750600c60009054906101000a900460ff16155b151561109d57600080fd5b60008c141580156110af575060008b14155b80156110ca57506110c98b8d612ff390919063ffffffff16565b5b15156110d557600080fd5b600260009054906101000a900473ffffffffffffffffffffffffffffffffffffffff1673ffffffffffffffffffffffffffffffffffffffff1663cfab472f30336000604051602001526040518363ffffffff167c0100000000000000000000000000000000000000000000000000000000028152600401808373ffffffffffffffffffffffffffffffffffffffff1673ffffffffffffffffffffffffffffffffffffffff1681526020018273ffffffffffffffffffffffffffffffffffffffff1673ffffffffffffffffffffffffffffffffffffffff16815260200192505050602060405180830381600087803b15156111ce57600080fd5b6102c65a03f115156111df57600080fd5b5050506040518051905015156111f457600080fd5b61126b8e600380602002604051908101604052809291908260036020028082843782019150505050508e600580602002604051908101604052809291908260056020028082843782019150505050508e3073ffffffffffffffffffffffffffffffffffffffff1661300d909392919063ffffffff16565b9550600260009054906101000a900473ffffffffffffffffffffffffffffffffffffffff1673ffffffffffffffffffffffffffffffffffffffff1663cfab472f3088600001516000604051602001526040518363ffffffff167c0100000000000000000000000000000000000000000000000000000000028152600401808373ffffffffffffffffffffffffffffffffffffffff1673ffffffffffffffffffffffffffffffffffffffff1681526020018273ffffffffffffffffffffffffffffffffffffffff1673ffffffffffffffffffffffffffffffffffffffff16815260200192505050602060405180830381600087803b151561136a57600080fd5b6102c65a03f1151561137b57600080fd5b50505060405180519050151561139057600080fd5b600073ffffffffffffffffffffffffffffffffffffffff16866020015173ffffffffffffffffffffffffffffffffffffffff1614806113fe57503373ffffffffffffffffffffffffffffffffffffffff16866020015173ffffffffffffffffffffffffffffffffffffffff16145b151561140957600080fd5b600073ffffffffffffffffffffffffffffffffffffffff16866000015173ffffffffffffffffffffffffffffffffffffffff161415801561147e5750856020015173ffffffffffffffffffffffffffffffffffffffff16866000015173ffffffffffffffffffffffffffffffffffffffff1614155b151561148957600080fd5b856000015173ffffffffffffffffffffffffffffffffffffffff1673__OrderLib______________________________638163681e90918861010001518d8d8d6000604051602001526040518663ffffffff167c0100000000000000000000000000000000000000000000000000000000028152600401808673ffffffffffffffffffffffffffffffffffffffff1673ffffffffffffffffffffffffffffffffffffffff16815260200185600019166000191681526020018460ff1660ff168152602001836000191660001916815260200182600019166000191681526020019550505050505060206040518083038186803b151561158757600080fd5b6102c65a03f4151561159857600080fd5b5050506040518051905015156115ad57600080fd5b8560c00151421015156116065785610100015160001916600060018111156115d157fe5b7fe6104340582083fe7674a149f8da127b9d3d7f74a88ccd7610562eb5b61b919360405160405180910390a3600096506119c1565b611626611617876101000151610bb7565b8d61319f90919063ffffffff16565b9450600085141561167c578561010001516000191660018081111561164757fe5b7fe6104340582083fe7674a149f8da127b9d3d7f74a88ccd7610562eb5b61b919360405160405180910390a3600096506119c1565b611686858c6131b6565b9650600d60009054906101000a900473ffffffffffffffffffffffffffffffffffffffff1673ffffffffffffffffffffffffffffffffffffffff1663eeaba0838760000151338a8a60a001516040518563ffffffff167c0100000000000000000000000000000000000000000000000000000000028152600401808573ffffffffffffffffffffffffffffffffffffffff1673ffffffffffffffffffffffffffffffffffffffff1681526020018473ffffffffffffffffffffffffffffffffffffffff1673ffffffffffffffffffffffffffffffffffffffff168152602001838152602001828152602001945050505050600060405180830381600087803b151561179057600080fd5b6102c65a03f115156117a157600080fd5b5050506117bf86610100015188600e6131df9092919063ffffffff16565b6000935060009250600073ffffffffffffffffffffffffffffffffffffffff16866040015173ffffffffffffffffffffffffffffffffffffffff161415156119145761180a87613235565b915061181587613235565b90506000866060015111156118975761183d828288606001516132539092919063ffffffff16565b93506118968660000151876040015186600260009054906101000a900473ffffffffffffffffffffffffffffffffffffffff1673ffffffffffffffffffffffffffffffffffffffff16613273909392919063ffffffff16565b5b600086608001511115611913576118bd828288608001516132539092919063ffffffff16565b925061191233876040015185600260009054906101000a900473ffffffffffffffffffffffffffffffffffffffff1673ffffffffffffffffffffffffffffffffffffffff16613273909392919063ffffffff16565b5b5b856040015173ffffffffffffffffffffffffffffffffffffffff163373ffffffffffffffffffffffffffffffffffffffff16876000015173ffffffffffffffffffffffffffffffffffffffff167f75cbdb818111666ee7e206d94dfeb2d679055e8bc6f34b6f5d30272edd4099908a88888c610100015160405180858152602001848152602001838152602001826000191660001916815260200194505050505060405180910390a48696505b505050505050979650505050505050565b60055481565b60095481565b6000809054906101000a900473ffffffffffffffffffffffffffffffffffffffff1673ffffffffffffffffffffffffffffffffffffffff163373ffffffffffffffffffffffffffffffffffffffff16141515611a3957600080fd5b600c60019054906101000a900460ff16151515611a5557600080fd5b600073ffffffffffffffffffffffffffffffffffffffff168173ffffffffffffffffffffffffffffffffffffffff1614151515611a9157600080fd5b80600d60006101000a81548173ffffffffffffffffffffffffffffffffffffffff021916908373ffffffffffffffffffffffffffffffffffffffff1602179055503073ffffffffffffffffffffffffffffffffffffffff16600d60009054906101000a900473ffffffffffffffffffffffffffffffffffffffff1673ffffffffffffffffffffffffffffffffffffffff16637bb55cd26000604051602001526040518163ffffffff167c0100000000000000000000000000000000000000000000000000000000028152600401602060405180830381600087803b1515611b7757600080fd5b6102c65a03f11515611b8857600080fd5b5050506040518051905073ffffffffffffffffffffffffffffffffffffffff16141515611bb457600080fd5b80600c60026101000a81548173ffffffffffffffffffffffffffffffffffffffff021916908373ffffffffffffffffffffffffffffffffffffffff1602179055506001600c60016101000a81548160ff02191690831515021790555050565b60065481565b60085481565b600b5481565b6000809054906101000a900473ffffffffffffffffffffffffffffffffffffffff1673ffffffffffffffffffffffffffffffffffffffff163373ffffffffffffffffffffffffffffffffffffffff16141515611c8057600080fd5b600073ffffffffffffffffffffffffffffffffffffffff168173ffffffffffffffffffffffffffffffffffffffff1614151515611cbc57600080fd5b8073ffffffffffffffffffffffffffffffffffffffff166000809054906101000a900473ffffffffffffffffffffffffffffffffffffffff1673ffffffffffffffffffffffffffffffffffffffff167f7f11fe0c7098e1a76afcc68f35abaa07ef156fa7d6dd2d39664812fe37348d1660405160405180910390a3806000806101000a81548173ffffffffffffffffffffffffffffffffffffffff021916908373ffffffffffffffffffffffffffffffffffffffff16021790555050565b6000611d84613bd8565b6000808414158015611da55750611da48585612ff390919063ffffffff16565b5b1515611db057600080fd5b600c60009054906101000a900460ff16151515611dcc57600080fd5b611e4387600380602002604051908101604052809291908260036020028082843782019150505050508760058060200260405190810160405280929190826005602002808284378201915050505050873073ffffffffffffffffffffffffffffffffffffffff1661300d909392919063ffffffff16565b91503373ffffffffffffffffffffffffffffffffffffffff16826000015173ffffffffffffffffffffffffffffffffffffffff16141515611e8357600080fd5b8160c0015142101515611edc578161010001516000191660006001811115611ea757fe5b7fe6104340582083fe7674a149f8da127b9d3d7f74a88ccd7610562eb5b61b919360405160405180910390a360009250611ff4565b611efc611eed836101000151610bb7565b8661319f90919063ffffffff16565b90506000811415611f525781610100015160001916600180811115611f1d57fe5b7fe6104340582083fe7674a149f8da127b9d3d7f74a88ccd7610562eb5b61b919360405160405180910390a360009250611ff4565b611f5c84826131b6565b9250611f7982610100015184600e61337b9092919063ffffffff16565b81610100015160001916826040015173ffffffffffffffffffffffffffffffffffffffff16836000015173ffffffffffffffffffffffffffffffffffffffff167f7de4479e80e82e22edb1e0010433c8befc804c34988024fa0b0234715102cd8f866040518082815260200191505060405180910390a48292505b5050949350505050565b600080601060009054906101000a900473ffffffffffffffffffffffffffffffffffffffff1673ffffffffffffffffffffffffffffffffffffffff1614806120705750600061206e601060009054906101000a900473ffffffffffffffffffffffffffffffffffffffff166133d1565b145b156120815761207f60006133dc565b505b601060009054906101000a900473ffffffffffffffffffffffffffffffffffffffff1673ffffffffffffffffffffffffffffffffffffffff166338cc48316000604051602001526040518163ffffffff167c0100000000000000000000000000000000000000000000000000000000028152600401602060405180830381600087803b151561210f57600080fd5b6102c65a03f1151561212057600080fd5b5050506040518051905073ffffffffffffffffffffffffffffffffffffffff16601160009054906101000a900473ffffffffffffffffffffffffffffffffffffffff1673ffffffffffffffffffffffffffffffffffffffff1614151561226a57601060009054906101000a900473ffffffffffffffffffffffffffffffffffffffff1673ffffffffffffffffffffffffffffffffffffffff166338cc48316000604051602001526040518163ffffffff167c0100000000000000000000000000000000000000000000000000000000028152600401602060405180830381600087803b151561220e57600080fd5b6102c65a03f1151561221f57600080fd5b50505060405180519050601160006101000a81548173ffffffffffffffffffffffffffffffffffffffff021916908373ffffffffffffffffffffffffffffffffffffffff1602179055505b601160009054906101000a900473ffffffffffffffffffffffffffffffffffffffff1673ffffffffffffffffffffffffffffffffffffffff1663c281d19e6000604051602001526040518163ffffffff167c0100000000000000000000000000000000000000000000000000000000028152600401602060405180830381600087803b15156122f857600080fd5b6102c65a03f1151561230957600080fd5b50505060405180519050905090565b6000612322613c6a565b60008060008693506000925060009150600090505b83518110156125f35760307f010000000000000000000000000000000000000000000000000000000000000002848281518110151561237257fe5b9060200101517f010000000000000000000000000000000000000000000000000000000000000090047f0100000000000000000000000000000000000000000000000000000000000000027effffffffffffffffffffffffffffffffffffffffffffffffffffffffffffff19161015801561248a575060397f010000000000000000000000000000000000000000000000000000000000000002848281518110151561241a57fe5b9060200101517f010000000000000000000000000000000000000000000000000000000000000090047f0100000000000000000000000000000000000000000000000000000000000000027effffffffffffffffffffffffffffffffffffffffffffffffffffffffffffff191611155b1561253b5781156124ad5760008614156124a3576125f3565b8580600190039650505b600a83029250603084828151811015156124c357fe5b9060200101517f010000000000000000000000000000000000000000000000000000000000000090047f0100000000000000000000000000000000000000000000000000000000000000027f0100000000000000000000000000000000000000000000000000000000000000900403830192506125e6565b602e7f010000000000000000000000000000000000000000000000000000000000000002848281518110151561256d57fe5b9060200101517f010000000000000000000000000000000000000000000000000000000000000090047f0100000000000000000000000000000000000000000000000000000000000000027effffffffffffffffffffffffffffffffffffffffffffffffffffffffffffff191614156125e557600191505b5b8080600101915050612337565b60008611156126055785600a0a830292505b8294505050505092915050565b600c60009054906101000a900460ff161561262c576126b1565b600954421115612656576001600c60006101000a81548160ff02191690831515021790555061268f565b600554600a5410158061266d5750600654600a5411155b1561268e576001600c60006101000a81548160ff0219169083151502179055505b5b600c60009054906101000a900460ff16156126b0576126af600a54613874565b5b5b565b60006127028360010160008460001916600019168152602001908152602001600020548460000160008560001916600019168152602001908152602001600020546138b590919063ffffffff16565b905092915050565b600080601060009054906101000a900473ffffffffffffffffffffffffffffffffffffffff1673ffffffffffffffffffffffffffffffffffffffff16148061277c5750600061277a601060009054906101000a900473ffffffffffffffffffffffffffffffffffffffff166133d1565b145b1561278d5761278b60006133dc565b505b601060009054906101000a900473ffffffffffffffffffffffffffffffffffffffff1673ffffffffffffffffffffffffffffffffffffffff166338cc48316000604051602001526040518163ffffffff167c0100000000000000000000000000000000000000000000000000000000028152600401602060405180830381600087803b151561281b57600080fd5b6102c65a03f1151561282c57600080fd5b5050506040518051905073ffffffffffffffffffffffffffffffffffffffff16601160009054906101000a900473ffffffffffffffffffffffffffffffffffffffff1673ffffffffffffffffffffffffffffffffffffffff1614151561297657601060009054906101000a900473ffffffffffffffffffffffffffffffffffffffff1673ffffffffffffffffffffffffffffffffffffffff166338cc48316000604051602001526040518163ffffffff167c0100000000000000000000000000000000000000000000000000000000028152600401602060405180830381600087803b151561291a57600080fd5b6102c65a03f1151561292b57600080fd5b50505060405180519050601160006101000a81548173ffffffffffffffffffffffffffffffffffffffff021916908373ffffffffffffffffffffffffffffffffffffffff1602179055505b601160009054906101000a900473ffffffffffffffffffffffffffffffffffffffff1673ffffffffffffffffffffffffffffffffffffffff16632ef3accc84846000604051602001526040518363ffffffff167c01000000000000000000000000000000000000000000000000000000000281526004018080602001838152602001828103825284818151815260200191508051906020019080838360005b83811015612a30578082015181840152602081019050612a15565b50505050905090810190601f168015612a5d5780820380516001836020036101000a031916815260200191505b509350505050602060405180830381600087803b1515612a7c57600080fd5b6102c65a03f11515612a8d57600080fd5b50505060405180519050905092915050565b6000806000601060009054906101000a900473ffffffffffffffffffffffffffffffffffffffff1673ffffffffffffffffffffffffffffffffffffffff161480612b1357506000612b11601060009054906101000a900473ffffffffffffffffffffffffffffffffffffffff166133d1565b145b15612b2457612b2260006133dc565b505b601060009054906101000a900473ffffffffffffffffffffffffffffffffffffffff1673ffffffffffffffffffffffffffffffffffffffff166338cc48316000604051602001526040518163ffffffff167c0100000000000000000000000000000000000000000000000000000000028152600401602060405180830381600087803b1515612bb257600080fd5b6102c65a03f11515612bc357600080fd5b5050506040518051905073ffffffffffffffffffffffffffffffffffffffff16601160009054906101000a900473ffffffffffffffffffffffffffffffffffffffff1673ffffffffffffffffffffffffffffffffffffffff16141515612d0d57601060009054906101000a900473ffffffffffffffffffffffffffffffffffffffff1673ffffffffffffffffffffffffffffffffffffffff166338cc48316000604051602001526040518163ffffffff167c0100000000000000000000000000000000000000000000000000000000028152600401602060405180830381600087803b1515612cb157600080fd5b6102c65a03f11515612cc257600080fd5b50505060405180519050601160006101000a81548173ffffffffffffffffffffffffffffffffffffffff021916908373ffffffffffffffffffffffffffffffffffffffff1602179055505b601160009054906101000a900473ffffffffffffffffffffffffffffffffffffffff1673ffffffffffffffffffffffffffffffffffffffff16632ef3accc86856000604051602001526040518363ffffffff167c01000000000000000000000000000000000000000000000000000000000281526004018080602001838152602001828103825284818151815260200191508051906020019080838360005b83811015612dc7578082015181840152602081019050612dac565b50505050905090810190601f168015612df45780820380516001836020036101000a031916815260200191505b509350505050602060405180830381600087803b1515612e1357600080fd5b6102c65a03f11515612e2457600080fd5b505050604051805190509050823a02670de0b6b3a764000001811115612e505760006001029150612feb565b601160009054906101000a900473ffffffffffffffffffffffffffffffffffffffff1673ffffffffffffffffffffffffffffffffffffffff1663c51be90f8260008888886000604051602001526040518663ffffffff167c0100000000000000000000000000000000000000000000000000000000028152600401808581526020018060200180602001848152602001838103835286818151815260200191508051906020019080838360005b83811015612f18578082015181840152602081019050612efd565b50505050905090810190601f168015612f455780820380516001836020036101000a031916815260200191505b50838103825285818151815260200191508051906020019080838360005b83811015612f7e578082015181840152602081019050612f63565b50505050905090810190601f168015612fab5780820380516001836020036101000a031916815260200191505b5096505050505050506020604051808303818588803b1515612fcc57600080fd5b6125ee5a03f11515612fdd57600080fd5b505050506040518051905091505b509392505050565b60008183148061300557506000828402135b905092915050565b613015613bd8565b83600060038110151561302457fe5b6020020151816000019073ffffffffffffffffffffffffffffffffffffffff16908173ffffffffffffffffffffffffffffffffffffffff168152505083600160038110151561306f57fe5b6020020151816020019073ffffffffffffffffffffffffffffffffffffffff16908173ffffffffffffffffffffffffffffffffffffffff16815250508360026003811015156130ba57fe5b6020020151816040019073ffffffffffffffffffffffffffffffffffffffff16908173ffffffffffffffffffffffffffffffffffffffff168152505082600060058110151561310557fe5b602002015181606001818152505082600160058110151561312257fe5b602002015181608001818152505082600260058110151561313f57fe5b60200201518160a001818152505082600360058110151561315c57fe5b60200201518160c0018181525050818160e00181815250506131808585858561391d565b8161010001906000191690816000191681525050809050949350505050565b60006131ae83836000036138b5565b905092915050565b60006131c182613235565b6131ca84613235565b106131d557816131d7565b825b905092915050565b61320f818460000160008560001916600019168152602001908152602001600020546138b590919063ffffffff16565b836000016000846000191660001916815260200190815260200160002081905550505050565b60008082121561324a5781600003905061324e565b8190505b919050565b6000816132608585613b0b565b81151561326957fe5b0490509392505050565b8373ffffffffffffffffffffffffffffffffffffffff166323b872dd8484846000604051602001526040518463ffffffff167c0100000000000000000000000000000000000000000000000000000000028152600401808473ffffffffffffffffffffffffffffffffffffffff1673ffffffffffffffffffffffffffffffffffffffff1681526020018373ffffffffffffffffffffffffffffffffffffffff1673ffffffffffffffffffffffffffffffffffffffff1681526020018281526020019350505050602060405180830381600087803b151561335257600080fd5b6102c65a03f1151561336357600080fd5b50505060405180519050151561337557fe5b50505050565b6133ab818460010160008560001916600019168152602001908152602001600020546138b590919063ffffffff16565b836001016000846000191660001916815260200190815260200160002081905550505050565b6000813b9050919050565b6000806133fc731d3b2638a7cc9f2cb3d298a3da7a90b67e5506ed6133d1565b111561349e57731d3b2638a7cc9f2cb3d298a3da7a90b67e5506ed601060006101000a81548173ffffffffffffffffffffffffffffffffffffffff021916908373ffffffffffffffffffffffffffffffffffffffff1602179055506134956040805190810160405280600b81526020017f6574685f6d61696e6e6574000000000000000000000000000000000000000000815250613b3e565b6001905061386f565b60006134bd73c03a2615d5efaf5f49f60b7bb6583eaec212fdf16133d1565b111561355f5773c03a2615d5efaf5f49f60b7bb6583eaec212fdf1601060006101000a81548173ffffffffffffffffffffffffffffffffffffffff021916908373ffffffffffffffffffffffffffffffffffffffff1602179055506135566040805190810160405280600c81526020017f6574685f726f707374656e330000000000000000000000000000000000000000815250613b3e565b6001905061386f565b600061357e73b7a07bcf2ba2f2703b24c0691b5278999c59ac7e6133d1565b11156136205773b7a07bcf2ba2f2703b24c0691b5278999c59ac7e601060006101000a81548173ffffffffffffffffffffffffffffffffffffffff021916908373ffffffffffffffffffffffffffffffffffffffff1602179055506136176040805190810160405280600981526020017f6574685f6b6f76616e0000000000000000000000000000000000000000000000815250613b3e565b6001905061386f565b600061363f73146500cfd35b22e4a392fe0adc06de1a1368ed486133d1565b11156136e15773146500cfd35b22e4a392fe0adc06de1a1368ed48601060006101000a81548173ffffffffffffffffffffffffffffffffffffffff021916908373ffffffffffffffffffffffffffffffffffffffff1602179055506136d86040805190810160405280600b81526020017f6574685f72696e6b656279000000000000000000000000000000000000000000815250613b3e565b6001905061386f565b6000613700736f485c8bf6fc43ea212e93bbf8ce046c7f1cb4756133d1565b111561376457736f485c8bf6fc43ea212e93bbf8ce046c7f1cb475601060006101000a81548173ffffffffffffffffffffffffffffffffffffffff021916908373ffffffffffffffffffffffffffffffffffffffff1602179055506001905061386f565b60006137837320e12a1f859b3feae5fb2a0a32c18f5a65555bbf6133d1565b11156137e7577320e12a1f859b3feae5fb2a0a32c18f5a65555bbf601060006101000a81548173ffffffffffffffffffffffffffffffffffffffff021916908373ffffffffffffffffffffffffffffffffffffffff1602179055506001905061386f565b60006138067351efaf4c8b3c9afbd5ab9f4bbc82784ab6ef8faa6133d1565b111561386a577351efaf4c8b3c9afbd5ab9f4bbc82784ab6ef8faa601060006101000a81548173ffffffffffffffffffffffffffffffffffffffff021916908373ffffffffffffffffffffffffffffffffffffffff1602179055506001905061386f565b600090505b919050565b80600b819055507f68170b705528d3ff1d324cda28eb28cc3d11ce81207f157c05e11c18411a013c816040518082815260200191505060405180910390a150565b60008082840190506138c78484612ff3565b15156138d557809150613916565b6000841215156138fb578360ff60019060020a02190383131515156138f657fe5b613912565b8360ff60019060020a0203831215151561391157fe5b5b8091505b5092915050565b60008484600060038110151561392f57fe5b602002015185600160038110151561394357fe5b602002015186600260038110151561395757fe5b602002015186600060058110151561396b57fe5b602002015187600160058110151561397f57fe5b602002015188600260058110151561399357fe5b60200201518960036005811015156139a757fe5b60200201518a60046005811015156139bb57fe5b60200201518a604051808b73ffffffffffffffffffffffffffffffffffffffff1673ffffffffffffffffffffffffffffffffffffffff166c010000000000000000000000000281526014018a73ffffffffffffffffffffffffffffffffffffffff1673ffffffffffffffffffffffffffffffffffffffff166c010000000000000000000000000281526014018973ffffffffffffffffffffffffffffffffffffffff1673ffffffffffffffffffffffffffffffffffffffff166c010000000000000000000000000281526014018873ffffffffffffffffffffffffffffffffffffffff1673ffffffffffffffffffffffffffffffffffffffff166c010000000000000000000000000281526014018781526020018681526020018581526020018481526020018381526020018281526020019a505050505050505050505060405180910390209050949350505050565b60008082840290506000841480613b2c5750828482811515613b2957fe5b04145b1515613b3457fe5b8091505092915050565b8060129080519060200190613b54929190613b58565b5050565b828054600181600116156101000203166002900490600052602060002090601f016020900481019282601f10613b9957805160ff1916838001178555613bc7565b82800160010185558215613bc7579182015b82811115613bc6578251825591602001919060010190613bab565b5b509050613bd49190613c7e565b5090565b61012060405190810160405280600073ffffffffffffffffffffffffffffffffffffffff168152602001600073ffffffffffffffffffffffffffffffffffffffff168152602001600073ffffffffffffffffffffffffffffffffffffffff1681526020016000815260200160008152602001600081526020016000815260200160008152602001600080191681525090565b602060405190810160405280600081525090565b613ca091905b80821115613c9c576000816000905550600101613c84565b5090565b90565b6000601060009054906101000a900473ffffffffffffffffffffffffffffffffffffffff1673ffffffffffffffffffffffffffffffffffffffff161480613d1457506000613d12601060009054906101000a900473ffffffffffffffffffffffffffffffffffffffff166133d1565b145b15613d2557613d2360006133dc565b505b601060009054906101000a900473ffffffffffffffffffffffffffffffffffffffff1673ffffffffffffffffffffffffffffffffffffffff166338cc48316000604051602001526040518163ffffffff167c0100000000000000000000000000000000000000000000000000000000028152600401602060405180830381600087803b1515613db357600080fd5b6102c65a03f11515613dc457600080fd5b5050506040518051905073ffffffffffffffffffffffffffffffffffffffff16601160009054906101000a900473ffffffffffffffffffffffffffffffffffffffff1673ffffffffffffffffffffffffffffffffffffffff16141515613f0e57601060009054906101000a900473ffffffffffffffffffffffffffffffffffffffff1673ffffffffffffffffffffffffffffffffffffffff166338cc48316000604051602001526040518163ffffffff167c0100000000000000000000000000000000000000000000000000000000028152600401602060405180830381600087803b1515613eb257600080fd5b6102c65a03f11515613ec357600080fd5b50505060405180519050601160006101000a81548173ffffffffffffffffffffffffffffffffffffffff021916908373ffffffffffffffffffffffffffffffffffffffff1602179055505b601160009054906101000a900473ffffffffffffffffffffffffffffffffffffffff1673ffffffffffffffffffffffffffffffffffffffff1663688dcfd7826040518263ffffffff167c010000000000000000000000000000000000000000000000000000000002815260040180827effffffffffffffffffffffffffffffffffffffffffffffffffffffffffffff19167effffffffffffffffffffffffffffffffffffffffffffffffffffffffffffff19168152602001915050600060405180830381600087803b1515613fe257600080fd5b6102c65a03f11515613ff357600080fd5b50505050565b600061414060095460138054600181600116156101000203166002900480601f0160208091040260200160405190810160405280929190818152602001828054600181600116156101000203166002900480156140975780601f1061406c57610100808354040283529160200191614097565b820191906000526020600020905b81548152906001019060200180831161407a57829003601f168201915b505050505060148054600181600116156101000203166002900480601f0160208091040260200160405190810160405280929190818152602001828054600181600116156101000203166002900480156141325780601f1061410757610100808354040283529160200191614132565b820191906000526020600020905b81548152906001019060200180831161411557829003601f168201915b5050505050620249f0614179565b9050600160166000836000191660001916815260200190815260200160002060006101000a81548160ff02191690831515021790555050565b6000806000601060009054906101000a900473ffffffffffffffffffffffffffffffffffffffff1673ffffffffffffffffffffffffffffffffffffffff1614806141ed575060006141eb601060009054906101000a900473ffffffffffffffffffffffffffffffffffffffff166133d1565b145b156141fe576141fc60006133dc565b505b601060009054906101000a900473ffffffffffffffffffffffffffffffffffffffff1673ffffffffffffffffffffffffffffffffffffffff166338cc48316000604051602001526040518163ffffffff167c0100000000000000000000000000000000000000000000000000000000028152600401602060405180830381600087803b151561428c57600080fd5b6102c65a03f1151561429d57600080fd5b5050506040518051905073ffffffffffffffffffffffffffffffffffffffff16601160009054906101000a900473ffffffffffffffffffffffffffffffffffffffff1673ffffffffffffffffffffffffffffffffffffffff161415156143e757601060009054906101000a900473ffffffffffffffffffffffffffffffffffffffff1673ffffffffffffffffffffffffffffffffffffffff166338cc48316000604051602001526040518163ffffffff167c0100000000000000000000000000000000000000000000000000000000028152600401602060405180830381600087803b151561438b57600080fd5b6102c65a03f1151561439c57600080fd5b50505060405180519050601160006101000a81548173ffffffffffffffffffffffffffffffffffffffff021916908373ffffffffffffffffffffffffffffffffffffffff1602179055505b601160009054906101000a900473ffffffffffffffffffffffffffffffffffffffff1673ffffffffffffffffffffffffffffffffffffffff16632ef3accc86856000604051602001526040518363ffffffff167c01000000000000000000000000000000000000000000000000000000000281526004018080602001838152602001828103825284818151815260200191508051906020019080838360005b838110156144a1578082015181840152602081019050614486565b50505050905090810190601f1680156144ce5780820380516001836020036101000a031916815260200191505b509350505050602060405180830381600087803b15156144ed57600080fd5b6102c65a03f115156144fe57600080fd5b505050604051805190509050823a02670de0b6b3a76400000181111561452a57600060010291506146c4565b601160009054906101000a900473ffffffffffffffffffffffffffffffffffffffff1673ffffffffffffffffffffffffffffffffffffffff1663c51be90f82888888886000604051602001526040518663ffffffff167c0100000000000000000000000000000000000000000000000000000000028152600401808581526020018060200180602001848152602001838103835286818151815260200191508051906020019080838360005b838110156145f15780820151818401526020810190506145d6565b50505050905090810190601f16801561461e5780820380516001836020036101000a031916815260200191505b50838103825285818151815260200191508051906020019080838360005b8381101561465757808201518184015260208101905061463c565b50505050905090810190601f1680156146845780820380516001836020036101000a031916815260200191505b5096505050505050506020604051808303818588803b15156146a557600080fd5b6125ee5a03f115156146b657600080fd5b505050506040518051905091505b509493505050505600a165627a7a72305820ca6dc8eafb727240c1419f72c17f8cee838baacc570a920c30df314262ec0dfa0029",
  "source": "/*\n    Copyright 2017-2018 Phillip A. Elsasser\n\n    Licensed under the Apache License, Version 2.0 (the \"License\");\n    you may not use this file except in compliance with the License.\n    You may obtain a copy of the License at\n\n    http://www.apache.org/licenses/LICENSE-2.0\n\n    Unless required by applicable law or agreed to in writing, software\n    distributed under the License is distributed on an \"AS IS\" BASIS,\n    WITHOUT WARRANTIES OR CONDITIONS OF ANY KIND, either express or implied.\n    See the License for the specific language governing permissions and\n    limitations under the License.\n*/\n\npragma solidity ^0.4.18;\n\nimport \"./oraclizeAPI.sol\";\nimport \"../libraries/MathLib.sol\";\nimport \"../MarketContract.sol\";\n\n\n/// @title MarketContract first example of a MarketProtocol contract using Oraclize services\n/// @author Phil Elsasser <phil@marketprotocol.io>\ncontract MarketContractOraclize is MarketContract, usingOraclize {\n    using MathLib for uint;\n\n    // constants\n    string public ORACLE_DATA_SOURCE;\n    string public ORACLE_QUERY;\n    uint constant public QUERY_CALLBACK_GAS = 150000;\n    //uint constant public QUERY_CALLBACK_GAS_PRICE = 20000000000 wei; // 20 gwei - need to make this dynamic!\n\n    // state variables\n    string public lastPriceQueryResult;\n    mapping(bytes32 => bool) validQueryIDs;\n\n    /// @param contractName viewable name of this contract (BTC/ETH, LTC/ETH, etc)\n    /// @param marketTokenAddress address of our member token\n    /// @param baseTokenAddress address of the ERC20 token that will be used for collateral and pricing\n    /// @param contractSpecs array of unsigned integers including:\n    /// floorPrice minimum tradeable price of this contract, contract enters settlement if breached\n    /// capPrice maximum tradeable price of this contract, contract enters settlement if breached\n    /// priceDecimalPlaces number of decimal places to convert our queried price from a floating point to\n    /// an integer\n    /// qtyMultiplier multiply traded qty by this value from base units of collateral token.\n    /// expirationTimeStamp - seconds from epoch that this contract expires and enters settlement\n    /// @param oracleDataSource a data-source such as \"URL\", \"WolframAlpha\", \"IPFS\"\n    /// see http://docs.oraclize.it/#ethereum-quick-start-simple-query\n    /// @param oracleQuery see http://docs.oraclize.it/#ethereum-quick-start-simple-query for examples\n    function MarketContractOraclize(\n        string contractName,\n        address marketTokenAddress,\n        address baseTokenAddress,\n        uint[5] contractSpecs,\n        string oracleDataSource,\n        string oracleQuery\n    ) MarketContract(\n        contractName,\n        marketTokenAddress,\n        baseTokenAddress,\n        contractSpecs\n    )  public\n    {\n        oraclize_setProof(proofType_TLSNotary | proofStorage_IPFS);\n        //oraclize_setCustomGasPrice(QUERY_CALLBACK_GAS_PRICE);  //TODO: allow this to be changed by creator.\n        ORACLE_DATA_SOURCE = oracleDataSource;\n        ORACLE_QUERY = oracleQuery;\n        require(EXPIRATION > now);         // Require expiration time in the future.\n\n        // Future timestamp must be within 60 days from now.\n        // https://docs.oraclize.it/#ethereum-quick-start-schedule-a-query-in-the-future\n        uint secondsPerSixtyDays = 60 * 60 * 24 * 60;\n        require(EXPIRATION - now <= secondsPerSixtyDays);\n        queryOracle();                      // Schedule a call to oracle at contract expiration time.\n    }\n\n    /// @notice allows a user to request an extra query to oracle in order to push the contract into\n    /// settlement.  A user may call this as many times as they like, since they are the ones paying for\n    /// the call to our oracle and post processing. This is useful for both a failsafe and as a way to\n    /// settle a contract early if a price cap or floor has been breached.\n    function requestEarlySettlement() external payable {\n        uint cost = oraclize_getPrice(ORACLE_DATA_SOURCE, QUERY_CALLBACK_GAS);\n        require(msg.value >= cost); // user must pay enough to cover query and callback\n        // create immediate query, we must make sure to store this one separately, so\n        // we do not schedule recursive callbacks when the query completes.\n        bytes32 queryId = oraclize_query(\n            ORACLE_DATA_SOURCE,\n            ORACLE_QUERY,\n            QUERY_CALLBACK_GAS\n        );\n        validQueryIDs[queryId] = true;\n    }\n\n    /*\n    // PUBLIC METHODS\n    */\n\n    /// @notice only public for callbacks from oraclize, do not call\n    /// @param queryID of the returning query, this should match our own internal mapping\n    /// @param result query to be processed\n    /// @param proof result proof\n    function __callback(bytes32 queryID, string result, bytes proof) public {\n        require(msg.sender == oraclize_cbAddress());\n        require(validQueryIDs[queryID]);  // At expiration or early settlement.\n        lastPriceQueryResult = result;\n        lastPrice = parseInt(result, PRICE_DECIMAL_PLACES);\n        UpdatedLastPrice(result);\n        checkSettlement();  // Verify settlement at expiration or requested early settlement.\n        delete validQueryIDs[queryID];\n    }\n\n    /*\n    // PRIVATE METHODS\n    */\n\n    /// @dev call to oraclize to set up our query and record its hash.\n    function queryOracle() private {\n        // Require that sufficient funds are available to pay for the query.\n        // require(oraclize_getPrice(ORACLE_DATA_SOURCE, QUERY_CALLBACK_GAS) < this.balance);\n        // NOTE: Currently the first oracle query call to oraclize.it is free. Since our\n        // expiration query will always be the first, there is no needed pre-funding amount\n        // to create this query.  When we go to the centralized query hub - this will change\n        // due to the fact that the address creating the query will always be the query hub.\n        // will have to do the analysis to see which is cheaper, free queries, or lower deployment\n        // gas costs\n        bytes32 queryId = oraclize_query(\n            EXPIRATION,\n            ORACLE_DATA_SOURCE,\n            ORACLE_QUERY,\n            QUERY_CALLBACK_GAS\n        );\n        validQueryIDs[queryId] = true;\n    }\n}",
  "sourcePath": "/home/pelsasser/MARKETProtocol/contracts/oraclize/MarketContractOraclize.sol",
  "compiler": {
    "name": "solc",
    "version": "0.4.19+commit.c4cbbb05.Emscripten.clang"
  },
  "schemaVersion": "2.0.0",
  "updatedAt": "2018-04-11T18:55:19.673Z"
}