{
  "contractName": "MarketCollateralPoolFactory",
  "abi": [
    {
      "constant": true,
      "inputs": [],
      "name": "owner",
      "outputs": [
        {
          "name": "",
          "type": "address"
        }
      ],
      "payable": false,
      "stateMutability": "view",
      "type": "function"
    },
    {
      "constant": true,
      "inputs": [],
      "name": "marketContractRegistry",
      "outputs": [
        {
          "name": "",
          "type": "address"
        }
      ],
      "payable": false,
      "stateMutability": "view",
      "type": "function"
    },
    {
      "constant": false,
      "inputs": [
        {
          "name": "newOwner",
          "type": "address"
        }
      ],
      "name": "transferOwnership",
      "outputs": [],
      "payable": false,
      "stateMutability": "nonpayable",
      "type": "function"
    },
    {
      "inputs": [
        {
          "name": "registryAddress",
          "type": "address"
        }
      ],
      "payable": false,
      "stateMutability": "nonpayable",
      "type": "constructor"
    },
    {
      "anonymous": false,
      "inputs": [
        {
          "indexed": true,
          "name": "previousOwner",
          "type": "address"
        },
        {
          "indexed": true,
          "name": "newOwner",
          "type": "address"
        }
      ],
      "name": "OwnershipTransferred",
      "type": "event"
    },
    {
      "constant": false,
      "inputs": [
        {
          "name": "marketContractAddress",
          "type": "address"
        }
      ],
      "name": "deployMarketCollateralPool",
      "outputs": [],
      "payable": false,
      "stateMutability": "nonpayable",
      "type": "function"
    },
    {
      "constant": false,
      "inputs": [
        {
          "name": "registryAddress",
          "type": "address"
        }
      ],
      "name": "setRegistryAddress",
      "outputs": [],
      "payable": false,
      "stateMutability": "nonpayable",
      "type": "function"
    }
  ],
  "bytecode": "0x608060405234801561001057600080fd5b5060405160208061276183398101806040528101908080519060200190929190505050336000806101000a81548173ffffffffffffffffffffffffffffffffffffffff021916908373ffffffffffffffffffffffffffffffffffffffff16021790555080600160006101000a81548173ffffffffffffffffffffffffffffffffffffffff021916908373ffffffffffffffffffffffffffffffffffffffff1602179055505061269d806100c46000396000f30060806040526004361061006d576000357c0100000000000000000000000000000000000000000000000000000000900463ffffffff1680636a8da881146100725780638da5cb5b146100b5578063ab7b49931461010c578063ceaaa9151461014f578063f2fde38b146101a6575b600080fd5b34801561007e57600080fd5b506100b3600480360381019080803573ffffffffffffffffffffffffffffffffffffffff1690602001909291905050506101e9565b005b3480156100c157600080fd5b506100ca610403565b604051808273ffffffffffffffffffffffffffffffffffffffff1673ffffffffffffffffffffffffffffffffffffffff16815260200191505060405180910390f35b34801561011857600080fd5b5061014d600480360381019080803573ffffffffffffffffffffffffffffffffffffffff169060200190929190505050610428565b005b34801561015b57600080fd5b50610164610503565b604051808273ffffffffffffffffffffffffffffffffffffffff1673ffffffffffffffffffffffffffffffffffffffff16815260200191505060405180910390f35b3480156101b257600080fd5b506101e7600480360381019080803573ffffffffffffffffffffffffffffffffffffffff169060200190929190505050610529565b005b6000600160009054906101000a900473ffffffffffffffffffffffffffffffffffffffff1673ffffffffffffffffffffffffffffffffffffffff1663ad23de63836040518263ffffffff167c0100000000000000000000000000000000000000000000000000000000028152600401808273ffffffffffffffffffffffffffffffffffffffff1673ffffffffffffffffffffffffffffffffffffffff168152602001915050602060405180830381600087803b1580156102a857600080fd5b505af11580156102bc573d6000803e3d6000fd5b505050506040513d60208110156102d257600080fd5b810190808051906020019092919050505015156102ee57600080fd5b816102f761067e565b808273ffffffffffffffffffffffffffffffffffffffff1673ffffffffffffffffffffffffffffffffffffffff168152602001915050604051809103906000f080158015610349573d6000803e3d6000fd5b5090508173ffffffffffffffffffffffffffffffffffffffff1663c201293b826040518263ffffffff167c0100000000000000000000000000000000000000000000000000000000028152600401808273ffffffffffffffffffffffffffffffffffffffff1673ffffffffffffffffffffffffffffffffffffffff168152602001915050600060405180830381600087803b1580156103e757600080fd5b505af11580156103fb573d6000803e3d6000fd5b505050505050565b6000809054906101000a900473ffffffffffffffffffffffffffffffffffffffff1681565b6000809054906101000a900473ffffffffffffffffffffffffffffffffffffffff1673ffffffffffffffffffffffffffffffffffffffff163373ffffffffffffffffffffffffffffffffffffffff1614151561048357600080fd5b600073ffffffffffffffffffffffffffffffffffffffff168173ffffffffffffffffffffffffffffffffffffffff16141515156104bf57600080fd5b80600160006101000a81548173ffffffffffffffffffffffffffffffffffffffff021916908373ffffffffffffffffffffffffffffffffffffffff16021790555050565b600160009054906101000a900473ffffffffffffffffffffffffffffffffffffffff1681565b6000809054906101000a900473ffffffffffffffffffffffffffffffffffffffff1673ffffffffffffffffffffffffffffffffffffffff163373ffffffffffffffffffffffffffffffffffffffff1614151561058457600080fd5b600073ffffffffffffffffffffffffffffffffffffffff168173ffffffffffffffffffffffffffffffffffffffff16141515156105c057600080fd5b8073ffffffffffffffffffffffffffffffffffffffff166000809054906101000a900473ffffffffffffffffffffffffffffffffffffffff1673ffffffffffffffffffffffffffffffffffffffff167f8be0079c531659141344cd1fd0a4f28419497f9722a3daafe3b4186f6b6457e060405160405180910390a3806000806101000a81548173ffffffffffffffffffffffffffffffffffffffff021916908373ffffffffffffffffffffffffffffffffffffffff16021790555050565b604051611fe38061068f833901905600608060405234801561001057600080fd5b50604051602080611fe38339810180604052810190808051906020019092919050505080600073ffffffffffffffffffffffffffffffffffffffff168173ffffffffffffffffffffffffffffffffffffffff161415151561007057600080fd5b806000806101000a81548173ffffffffffffffffffffffffffffffffffffffff021916908373ffffffffffffffffffffffffffffffffffffffff1602179055505080600560006101000a81548173ffffffffffffffffffffffffffffffffffffffff021916908373ffffffffffffffffffffffffffffffffffffffff160217905550600560009054906101000a900473ffffffffffffffffffffffffffffffffffffffff1673ffffffffffffffffffffffffffffffffffffffff1663798ddbc86040518163ffffffff167c0100000000000000000000000000000000000000000000000000000000028152600401602060405180830381600087803b15801561017857600080fd5b505af115801561018c573d6000803e3d6000fd5b505050506040513d60208110156101a257600080fd5b8101908080519060200190929190505050600460006101000a81548173ffffffffffffffffffffffffffffffffffffffff021916908373ffffffffffffffffffffffffffffffffffffffff16021790555050611de0806102036000396000f3006080604052600436106100a4576000357c0100000000000000000000000000000000000000000000000000000000900463ffffffff168063315a095d146100a95780633bc6db30146100d65780633f7f4f17146100ed5780635b7c2dad14610144578063798ddbc81461019b5780637bb55cd2146101f25780638af6375f14610249578063a68e5ad014610274578063aafff7e1146102a1578063eeaba083146102f8575b600080fd5b3480156100b557600080fd5b506100d46004803603810190808035906020019092919050505061036f565b005b3480156100e257600080fd5b506100eb610546565b005b3480156100f957600080fd5b5061012e600480360381019080803573ffffffffffffffffffffffffffffffffffffffff1690602001909291905050506108fa565b6040518082815260200191505060405180910390f35b34801561015057600080fd5b50610185600480360381019080803573ffffffffffffffffffffffffffffffffffffffff169060200190929190505050610943565b6040518082815260200191505060405180910390f35b3480156101a757600080fd5b506101b061098f565b604051808273ffffffffffffffffffffffffffffffffffffffff1673ffffffffffffffffffffffffffffffffffffffff16815260200191505060405180910390f35b3480156101fe57600080fd5b506102076109b5565b604051808273ffffffffffffffffffffffffffffffffffffffff1673ffffffffffffffffffffffffffffffffffffffff16815260200191505060405180910390f35b34801561025557600080fd5b5061025e6109da565b6040518082815260200191505060405180910390f35b34801561028057600080fd5b5061029f600480360381019080803590602001909291905050506109e0565b005b3480156102ad57600080fd5b506102e2600480360381019080803573ffffffffffffffffffffffffffffffffffffffff169060200190929190505050610d12565b6040518082815260200191505060405180910390f35b34801561030457600080fd5b5061036d600480360381019080803573ffffffffffffffffffffffffffffffffffffffff169060200190929190803573ffffffffffffffffffffffffffffffffffffffff1690602001909291908035906020019092919080359060200190929190505050610d2a565b005b60006103c382600360003373ffffffffffffffffffffffffffffffffffffffff1673ffffffffffffffffffffffffffffffffffffffff16815260200190815260200160002054610dc390919063ffffffff16565b905080600360003373ffffffffffffffffffffffffffffffffffffffff1673ffffffffffffffffffffffffffffffffffffffff168152602001908152602001600020819055506104f43383600560009054906101000a900473ffffffffffffffffffffffffffffffffffffffff1673ffffffffffffffffffffffffffffffffffffffff1663323bb7756040518163ffffffff167c0100000000000000000000000000000000000000000000000000000000028152600401602060405180830381600087803b15801561049457600080fd5b505af11580156104a8573d6000803e3d6000fd5b505050506040513d60208110156104be57600080fd5b810190808051906020019092919050505073ffffffffffffffffffffffffffffffffffffffff16610ddc9092919063ffffffff16565b3373ffffffffffffffffffffffffffffffffffffffff167f60ede3b17b4e31768b93d5237d5fceb759f4d879bc5bb7c916a42ebaa311e6e6826040518082815260200191505060405180910390a25050565b6000600560009054906101000a900473ffffffffffffffffffffffffffffffffffffffff1673ffffffffffffffffffffffffffffffffffffffff16633270bb5b6040518163ffffffff167c0100000000000000000000000000000000000000000000000000000000028152600401602060405180830381600087803b1580156105ce57600080fd5b505af11580156105e2573d6000803e3d6000fd5b505050506040513d60208110156105f857600080fd5b8101908080519060200190929190505050151561061457600080fd5b600460009054906101000a900473ffffffffffffffffffffffffffffffffffffffff1673ffffffffffffffffffffffffffffffffffffffff1663cfab472f600560009054906101000a900473ffffffffffffffffffffffffffffffffffffffff16336040518363ffffffff167c0100000000000000000000000000000000000000000000000000000000028152600401808373ffffffffffffffffffffffffffffffffffffffff1673ffffffffffffffffffffffffffffffffffffffff1681526020018273ffffffffffffffffffffffffffffffffffffffff1673ffffffffffffffffffffffffffffffffffffffff16815260200192505050602060405180830381600087803b15801561072757600080fd5b505af115801561073b573d6000803e3d6000fd5b505050506040513d602081101561075157600080fd5b8101908080519060200190929190505050151561076d57600080fd5b600260003373ffffffffffffffffffffffffffffffffffffffff1673ffffffffffffffffffffffffffffffffffffffff1681526020019081526020016000209050600081600201541415156108af576108ae81337fffffffffffffffffffffffffffffffffffffffffffffffffffffffffffffffff846002015402600560009054906101000a900473ffffffffffffffffffffffffffffffffffffffff1673ffffffffffffffffffffffffffffffffffffffff1663f348e8b26040518163ffffffff167c0100000000000000000000000000000000000000000000000000000000028152600401602060405180830381600087803b15801561086e57600080fd5b505af1158015610882573d6000803e3d6000fd5b505050506040513d602081101561089857600080fd5b8101908080519060200190929190505050610ec7565b5b6108f7600360003373ffffffffffffffffffffffffffffffffffffffff1673ffffffffffffffffffffffffffffffffffffffff1681526020019081526020016000205461036f565b50565b6000600360008373ffffffffffffffffffffffffffffffffffffffff1673ffffffffffffffffffffffffffffffffffffffff168152602001908152602001600020549050919050565b6000600260008373ffffffffffffffffffffffffffffffffffffffff1673ffffffffffffffffffffffffffffffffffffffff168152602001908152602001600020600201549050919050565b600460009054906101000a900473ffffffffffffffffffffffffffffffffffffffff1681565b6000809054906101000a900473ffffffffffffffffffffffffffffffffffffffff1681565b60015481565b6000600460009054906101000a900473ffffffffffffffffffffffffffffffffffffffff1673ffffffffffffffffffffffffffffffffffffffff1663cfab472f600560009054906101000a900473ffffffffffffffffffffffffffffffffffffffff16336040518363ffffffff167c0100000000000000000000000000000000000000000000000000000000028152600401808373ffffffffffffffffffffffffffffffffffffffff1673ffffffffffffffffffffffffffffffffffffffff1681526020018273ffffffffffffffffffffffffffffffffffffffff1673ffffffffffffffffffffffffffffffffffffffff16815260200192505050602060405180830381600087803b158015610af557600080fd5b505af1158015610b09573d6000803e3d6000fd5b505050506040513d6020811015610b1f57600080fd5b81019080805190602001909291905050501515610b3b57600080fd5b610b8d82600360003373ffffffffffffffffffffffffffffffffffffffff1673ffffffffffffffffffffffffffffffffffffffff1681526020019081526020016000205461149e90919063ffffffff16565b9050610c7c333084600560009054906101000a900473ffffffffffffffffffffffffffffffffffffffff1673ffffffffffffffffffffffffffffffffffffffff1663323bb7756040518163ffffffff167c0100000000000000000000000000000000000000000000000000000000028152600401602060405180830381600087803b158015610c1b57600080fd5b505af1158015610c2f573d6000803e3d6000fd5b505050506040513d6020811015610c4557600080fd5b810190808051906020019092919050505073ffffffffffffffffffffffffffffffffffffffff166114bc909392919063ffffffff16565b80600360003373ffffffffffffffffffffffffffffffffffffffff1673ffffffffffffffffffffffffffffffffffffffff168152602001908152602001600020819055503373ffffffffffffffffffffffffffffffffffffffff167f60ede3b17b4e31768b93d5237d5fceb759f4d879bc5bb7c916a42ebaa311e6e6826040518082815260200191505060405180910390a25050565b60036020528060005260406000206000915090505481565b6000809054906101000a900473ffffffffffffffffffffffffffffffffffffffff1673ffffffffffffffffffffffffffffffffffffffff163373ffffffffffffffffffffffffffffffffffffffff16141515610d8557600080fd5b610d908483836115dc565b610dbd837fffffffffffffffffffffffffffffffffffffffffffffffffffffffffffffffff8402836115dc565b50505050565b6000828211151515610dd157fe5b818303905092915050565b8273ffffffffffffffffffffffffffffffffffffffff1663a9059cbb83836040518363ffffffff167c0100000000000000000000000000000000000000000000000000000000028152600401808373ffffffffffffffffffffffffffffffffffffffff1673ffffffffffffffffffffffffffffffffffffffff16815260200182815260200192505050602060405180830381600087803b158015610e7f57600080fd5b505af1158015610e93573d6000803e3d6000fd5b505050506040513d6020811015610ea957600080fd5b81019080805190602001909291905050501515610ec257fe5b505050565b60008060008092508491506000876001018054905014151515610ee657fe5b5b60008214151561148057866001016001886001018054905003815481101515610f0c57fe5b90600052602060002090600202019050610f258261170b565b610f32826001015461170b565b1115156111d45761119c61118d600560009054906101000a900473ffffffffffffffffffffffffffffffffffffffff1673ffffffffffffffffffffffffffffffffffffffff1663c32b1dfa6040518163ffffffff167c0100000000000000000000000000000000000000000000000000000000028152600401602060405180830381600087803b158015610fc557600080fd5b505af1158015610fd9573d6000803e3d6000fd5b505050506040513d6020811015610fef57600080fd5b8101908080519060200190929190505050600560009054906101000a900473ffffffffffffffffffffffffffffffffffffffff1673ffffffffffffffffffffffffffffffffffffffff1663b5471dee6040518163ffffffff167c0100000000000000000000000000000000000000000000000000000000028152600401602060405180830381600087803b15801561108657600080fd5b505af115801561109a573d6000803e3d6000fd5b505050506040513d60208110156110b057600080fd5b8101908080519060200190929190505050600560009054906101000a900473ffffffffffffffffffffffffffffffffffffffff1673ffffffffffffffffffffffffffffffffffffffff1663ca361d676040518163ffffffff167c0100000000000000000000000000000000000000000000000000000000028152600401602060405180830381600087803b15801561114757600080fd5b505af115801561115b573d6000803e3d6000fd5b505050506040513d602081101561117157600080fd5b8101908080519060200190929190505050856001015489611729565b8461149e90919063ffffffff16565b92506111b581600101548361179290919063ffffffff16565b9150866001018054809190600190036111ce9190611d53565b5061147b565b6111eb82826001015461179290919063ffffffff16565b8160010181905550611474611465600560009054906101000a900473ffffffffffffffffffffffffffffffffffffffff1673ffffffffffffffffffffffffffffffffffffffff1663c32b1dfa6040518163ffffffff167c0100000000000000000000000000000000000000000000000000000000028152600401602060405180830381600087803b15801561127f57600080fd5b505af1158015611293573d6000803e3d6000fd5b505050506040513d60208110156112a957600080fd5b8101908080519060200190929190505050600560009054906101000a900473ffffffffffffffffffffffffffffffffffffffff1673ffffffffffffffffffffffffffffffffffffffff1663b5471dee6040518163ffffffff167c0100000000000000000000000000000000000000000000000000000000028152600401602060405180830381600087803b15801561134057600080fd5b505af1158015611354573d6000803e3d6000fd5b505050506040513d602081101561136a57600080fd5b8101908080519060200190929190505050600560009054906101000a900473ffffffffffffffffffffffffffffffffffffffff1673ffffffffffffffffffffffffffffffffffffffff1663ca361d676040518163ffffffff167c0100000000000000000000000000000000000000000000000000000000028152600401602060405180830381600087803b15801561140157600080fd5b505af1158015611415573d6000803e3d6000fd5b505050506040513d602081101561142b57600080fd5b81019080805190602001909291905050507fffffffffffffffffffffffffffffffffffffffffffffffffffffffffffffffff870289611729565b8461149e90919063ffffffff16565b9250611480565b610ee7565b6000831415156114955761149486846117fa565b5b50505050505050565b60008082840190508381101515156114b257fe5b8091505092915050565b8373ffffffffffffffffffffffffffffffffffffffff166323b872dd8484846040518463ffffffff167c0100000000000000000000000000000000000000000000000000000000028152600401808473ffffffffffffffffffffffffffffffffffffffff1673ffffffffffffffffffffffffffffffffffffffff1681526020018373ffffffffffffffffffffffffffffffffffffffff1673ffffffffffffffffffffffffffffffffffffffff1681526020018281526020019350505050602060405180830381600087803b15801561159357600080fd5b505af11580156115a7573d6000803e3d6000fd5b505050506040513d60208110156115bd57600080fd5b810190808051906020019092919050505015156115d657fe5b50505050565b600080600260008673ffffffffffffffffffffffffffffffffffffffff1673ffffffffffffffffffffffffffffffffffffffff1681526020019081526020016000209150600082600201541480611646575061164584836002015461193b90919063ffffffff16565b5b1561165c5761165782868686611955565b6116e5565b7fffffffffffffffffffffffffffffffffffffffffffffffffffffffffffffffff8402826002015412151561169c5761169782868686610ec7565b6116e4565b6116ce82867fffffffffffffffffffffffffffffffffffffffffffffffffffffffffffffffff85600201540286610ec7565b8382600201540190506116e382868386611955565b5b5b6116fc84836002015461179290919063ffffffff16565b82600201819055505050505050565b60008082121561172057816000039050611724565b8190505b919050565b60008060008413156117595786831115156117475760009050611754565b6117518388610dc3565b90505b611779565b858310151561176b5760009050611778565b6117758684610dc3565b90505b5b846117838561170b565b82020291505095945050505050565b60008082840190506117a4848461193b565b15156117b2578091506117f3565b6000841215156117d8578360ff60019060020a02190383131515156117d357fe5b6117ef565b8360ff60019060020a020383121515156117ee57fe5b5b8091505b5092915050565b600061184e82600360008673ffffffffffffffffffffffffffffffffffffffff1673ffffffffffffffffffffffffffffffffffffffff1681526020019081526020016000205461149e90919063ffffffff16565b905080600360008573ffffffffffffffffffffffffffffffffffffffff1673ffffffffffffffffffffffffffffffffffffffff168152602001908152602001600020819055506118a982600154610dc390919063ffffffff16565b6001819055508273ffffffffffffffffffffffffffffffffffffffff167f60ede3b17b4e31768b93d5237d5fceb759f4d879bc5bb7c916a42ebaa311e6e6826040518082815260200191505060405180910390a27fc6203b6a88d29510779ca9dba6a5e132f609c335e49a244d6d9e842ebaabb2706001546040518082815260200191505060405180910390a1505050565b60008183148061194d57506000828402135b905092915050565b6000611ba4600560009054906101000a900473ffffffffffffffffffffffffffffffffffffffff1673ffffffffffffffffffffffffffffffffffffffff1663c32b1dfa6040518163ffffffff167c0100000000000000000000000000000000000000000000000000000000028152600401602060405180830381600087803b1580156119e057600080fd5b505af11580156119f4573d6000803e3d6000fd5b505050506040513d6020811015611a0a57600080fd5b8101908080519060200190929190505050600560009054906101000a900473ffffffffffffffffffffffffffffffffffffffff1673ffffffffffffffffffffffffffffffffffffffff1663b5471dee6040518163ffffffff167c0100000000000000000000000000000000000000000000000000000000028152600401602060405180830381600087803b158015611aa157600080fd5b505af1158015611ab5573d6000803e3d6000fd5b505050506040513d6020811015611acb57600080fd5b8101908080519060200190929190505050600560009054906101000a900473ffffffffffffffffffffffffffffffffffffffff1673ffffffffffffffffffffffffffffffffffffffff1663ca361d676040518163ffffffff167c0100000000000000000000000000000000000000000000000000000000028152600401602060405180830381600087803b158015611b6257600080fd5b505af1158015611b76573d6000803e3d6000fd5b505050506040513d6020811015611b8c57600080fd5b81019080805190602001909291905050508686611729565b9050611bb08482611c12565b846001016040805190810160405280848152602001858152509080600181540180825580915050906001820390600052602060002090600202016000909192909190915060008201518160000155602082015181600101555050505050505050565b6000611c6682600360008673ffffffffffffffffffffffffffffffffffffffff1673ffffffffffffffffffffffffffffffffffffffff16815260200190815260200160002054610dc390919063ffffffff16565b905080600360008573ffffffffffffffffffffffffffffffffffffffff1673ffffffffffffffffffffffffffffffffffffffff16815260200190815260200160002081905550611cc18260015461149e90919063ffffffff16565b6001819055508273ffffffffffffffffffffffffffffffffffffffff167f60ede3b17b4e31768b93d5237d5fceb759f4d879bc5bb7c916a42ebaa311e6e6826040518082815260200191505060405180910390a27fc6203b6a88d29510779ca9dba6a5e132f609c335e49a244d6d9e842ebaabb2706001546040518082815260200191505060405180910390a1505050565b815481835581811115611d8057600202816002028360005260206000209182019101611d7f9190611d85565b5b505050565b611db191905b80821115611dad57600080820160009055600182016000905550600201611d8b565b5090565b905600a165627a7a723058200f80c83fe35c5bed9792c1eb54e2cc17161d95ec4a39484052ebd7d62444b9670029a165627a7a72305820ed2ecac1bb1cf37a5ff213621fd3c3007a4120aae369e0ec446e6c2c9a36a7b90029",
  "source": "/*\n    Copyright 2017-2018 Phillip A. Elsasser\n\n    Licensed under the Apache License, Version 2.0 (the \"License\");\n    you may not use this file except in compliance with the License.\n    You may obtain a copy of the License at\n\n    http://www.apache.org/licenses/LICENSE-2.0\n\n    Unless required by applicable law or agreed to in writing, software\n    distributed under the License is distributed on an \"AS IS\" BASIS,\n    WITHOUT WARRANTIES OR CONDITIONS OF ANY KIND, either express or implied.\n    See the License for the specific language governing permissions and\n    limitations under the License.\n*/\n\npragma solidity ^0.4.24;\n\nimport \"../MarketCollateralPool.sol\";\nimport \"./MarketCollateralPoolFactoryInterface.sol\";\nimport \"../MarketContractRegistryInterface.sol\";\nimport \"openzeppelin-solidity/contracts/ownership/Ownable.sol\";\n\n\ncontract MarketCollateralPoolFactory is Ownable, MarketCollateralPoolFactoryInterface {\n\n    address public marketContractRegistry;\n\n    /// @dev deploys our factory and ties it the a supply registry address\n    /// @param registryAddress - MarketContractRegistry address to whitelist contracts\n    constructor(address registryAddress) public {\n        marketContractRegistry = registryAddress;\n\n    }\n\n    /// @dev creates the needed collateral pool and links it to our market contract.\n    /// @param marketContractAddress address of the newly deployed market contract.\n    function deployMarketCollateralPool(address marketContractAddress) external {\n        require(MarketContractRegistryInterface(marketContractRegistry).isAddressWhiteListed(marketContractAddress));\n        MarketCollateralPool marketCollateralPool = new MarketCollateralPool(marketContractAddress);\n        MarketContract(marketContractAddress).setCollateralPoolContractAddress(marketCollateralPool);\n    }\n\n    /// @dev allows for the owner to set the desired registry for contract creation.\n    /// @param registryAddress desired registry address.\n    function setRegistryAddress(address registryAddress) external onlyOwner {\n        require(registryAddress != address(0));\n        marketContractRegistry = registryAddress;\n    }\n}\n",
  "sourcePath": "/home/pelsasser/MARKETProtocol/contracts/factories/MarketCollateralPoolFactory.sol",
  "compiler": {
    "name": "solc",
    "version": "0.4.24+commit.e67f0147.Emscripten.clang"
  },
  "schemaVersion": "2.0.0",
  "updatedAt": "2018-06-07T23:57:55.086Z"
}