{
  "contractName": "MarketContractOraclize",
  "abi": [
    {
      "constant": true,
      "inputs": [],
      "name": "creator",
      "outputs": [
        {
          "name": "",
          "type": "address"
        }
      ],
      "payable": false,
      "stateMutability": "view",
      "type": "function"
    },
    {
      "constant": true,
      "inputs": [],
      "name": "lastPrice",
      "outputs": [
        {
          "name": "",
          "type": "uint256"
        }
      ],
      "payable": false,
      "stateMutability": "view",
      "type": "function"
    },
    {
      "constant": true,
      "inputs": [],
      "name": "lastPriceQueryResult",
      "outputs": [
        {
          "name": "",
          "type": "string"
        }
      ],
      "payable": false,
      "stateMutability": "view",
      "type": "function"
    },
    {
      "constant": true,
      "inputs": [],
      "name": "PRICE_DECIMAL_PLACES",
      "outputs": [
        {
          "name": "",
          "type": "uint256"
        }
      ],
      "payable": false,
      "stateMutability": "view",
      "type": "function"
    },
    {
      "constant": true,
      "inputs": [],
      "name": "COLLATERAL_TOKEN_ADDRESS",
      "outputs": [
        {
          "name": "",
          "type": "address"
        }
      ],
      "payable": false,
      "stateMutability": "view",
      "type": "function"
    },
    {
      "constant": true,
      "inputs": [],
      "name": "isSettled",
      "outputs": [
        {
          "name": "",
          "type": "bool"
        }
      ],
      "payable": false,
      "stateMutability": "view",
      "type": "function"
    },
    {
      "constant": true,
      "inputs": [],
      "name": "isCollateralPoolContractLinked",
      "outputs": [
        {
          "name": "",
          "type": "bool"
        }
      ],
      "payable": false,
      "stateMutability": "view",
      "type": "function"
    },
    {
      "constant": true,
      "inputs": [],
      "name": "QUERY_CALLBACK_GAS",
      "outputs": [
        {
          "name": "",
          "type": "uint256"
        }
      ],
      "payable": false,
      "stateMutability": "view",
      "type": "function"
    },
    {
      "constant": true,
      "inputs": [
        {
          "name": "orderHash",
          "type": "bytes32"
        }
      ],
      "name": "getQtyFilledOrCancelledFromOrder",
      "outputs": [
        {
          "name": "",
          "type": "int256"
        }
      ],
      "payable": false,
      "stateMutability": "view",
      "type": "function"
    },
    {
      "constant": true,
      "inputs": [],
      "name": "ORACLE_DATA_SOURCE",
      "outputs": [
        {
          "name": "",
          "type": "string"
        }
      ],
      "payable": false,
      "stateMutability": "view",
      "type": "function"
    },
    {
      "constant": true,
      "inputs": [],
      "name": "ORACLE_QUERY",
      "outputs": [
        {
          "name": "",
          "type": "string"
        }
      ],
      "payable": false,
      "stateMutability": "view",
      "type": "function"
    },
    {
      "constant": true,
      "inputs": [],
      "name": "CONTRACT_NAME",
      "outputs": [
        {
          "name": "",
          "type": "string"
        }
      ],
      "payable": false,
      "stateMutability": "view",
      "type": "function"
    },
    {
      "constant": true,
      "inputs": [],
      "name": "MKT_TOKEN_ADDRESS",
      "outputs": [
        {
          "name": "",
          "type": "address"
        }
      ],
      "payable": false,
      "stateMutability": "view",
      "type": "function"
    },
    {
      "constant": false,
      "inputs": [
        {
          "name": "orderAddresses",
          "type": "address[3]"
        },
        {
          "name": "unsignedOrderValues",
          "type": "uint256[5]"
        },
        {
          "name": "orderQty",
          "type": "int256"
        },
        {
          "name": "qtyToFill",
          "type": "int256"
        },
        {
          "name": "v",
          "type": "uint8"
        },
        {
          "name": "r",
          "type": "bytes32"
        },
        {
          "name": "s",
          "type": "bytes32"
        }
      ],
      "name": "tradeOrder",
      "outputs": [
        {
          "name": "filledQty",
          "type": "int256"
        }
      ],
      "payable": false,
      "stateMutability": "nonpayable",
      "type": "function"
    },
    {
      "constant": true,
      "inputs": [],
      "name": "MARKET_COLLATERAL_POOL_ADDRESS",
      "outputs": [
        {
          "name": "",
          "type": "address"
        }
      ],
      "payable": false,
      "stateMutability": "view",
      "type": "function"
    },
    {
      "constant": true,
      "inputs": [],
      "name": "PRICE_CAP",
      "outputs": [
        {
          "name": "",
          "type": "uint256"
        }
      ],
      "payable": false,
      "stateMutability": "view",
      "type": "function"
    },
    {
      "constant": true,
      "inputs": [],
      "name": "EXPIRATION",
      "outputs": [
        {
          "name": "",
          "type": "uint256"
        }
      ],
      "payable": false,
      "stateMutability": "view",
      "type": "function"
    },
    {
      "constant": false,
      "inputs": [
        {
          "name": "poolAddress",
          "type": "address"
        }
      ],
      "name": "setCollateralPoolContractAddress",
      "outputs": [],
      "payable": false,
      "stateMutability": "nonpayable",
      "type": "function"
    },
    {
      "constant": true,
      "inputs": [],
      "name": "PRICE_FLOOR",
      "outputs": [
        {
          "name": "",
          "type": "uint256"
        }
      ],
      "payable": false,
      "stateMutability": "view",
      "type": "function"
    },
    {
      "constant": true,
      "inputs": [],
      "name": "QTY_MULTIPLIER",
      "outputs": [
        {
          "name": "",
          "type": "uint256"
        }
      ],
      "payable": false,
      "stateMutability": "view",
      "type": "function"
    },
    {
      "constant": true,
      "inputs": [],
      "name": "COLLATERAL_POOL_FACTORY_ADDRESS",
      "outputs": [
        {
          "name": "",
          "type": "address"
        }
      ],
      "payable": false,
      "stateMutability": "view",
      "type": "function"
    },
    {
      "constant": true,
      "inputs": [],
      "name": "settlementPrice",
      "outputs": [
        {
          "name": "",
          "type": "uint256"
        }
      ],
      "payable": false,
      "stateMutability": "view",
      "type": "function"
    },
    {
      "constant": false,
      "inputs": [
        {
          "name": "newCreator",
          "type": "address"
        }
      ],
      "name": "transferCreator",
      "outputs": [],
      "payable": false,
      "stateMutability": "nonpayable",
      "type": "function"
    },
    {
      "constant": false,
      "inputs": [
        {
          "name": "orderAddresses",
          "type": "address[3]"
        },
        {
          "name": "unsignedOrderValues",
          "type": "uint256[5]"
        },
        {
          "name": "orderQty",
          "type": "int256"
        },
        {
          "name": "qtyToCancel",
          "type": "int256"
        }
      ],
      "name": "cancelOrder",
      "outputs": [
        {
          "name": "qtyCancelled",
          "type": "int256"
        }
      ],
      "payable": false,
      "stateMutability": "nonpayable",
      "type": "function"
    },
    {
      "inputs": [
        {
          "name": "contractName",
          "type": "string"
        },
        {
          "name": "creatorAddress",
          "type": "address"
        },
        {
          "name": "marketTokenAddress",
          "type": "address"
        },
        {
          "name": "collateralTokenAddress",
          "type": "address"
        },
        {
          "name": "collateralPoolFactoryAddress",
          "type": "address"
        },
        {
          "name": "contractSpecs",
          "type": "uint256[5]"
        },
        {
          "name": "oracleDataSource",
          "type": "string"
        },
        {
          "name": "oracleQuery",
          "type": "string"
        }
      ],
      "payable": false,
      "stateMutability": "nonpayable",
      "type": "constructor"
    },
    {
      "anonymous": false,
      "inputs": [
        {
          "indexed": false,
          "name": "price",
          "type": "string"
        }
      ],
      "name": "UpdatedLastPrice",
      "type": "event"
    },
    {
      "anonymous": false,
      "inputs": [
        {
          "indexed": false,
          "name": "settlePrice",
          "type": "uint256"
        }
      ],
      "name": "ContractSettled",
      "type": "event"
    },
    {
      "anonymous": false,
      "inputs": [
        {
          "indexed": true,
          "name": "user",
          "type": "address"
        },
        {
          "indexed": false,
          "name": "balance",
          "type": "uint256"
        }
      ],
      "name": "UpdatedUserBalance",
      "type": "event"
    },
    {
      "anonymous": false,
      "inputs": [
        {
          "indexed": false,
          "name": "balance",
          "type": "uint256"
        }
      ],
      "name": "UpdatedPoolBalance",
      "type": "event"
    },
    {
      "anonymous": false,
      "inputs": [
        {
          "indexed": true,
          "name": "errorCode",
          "type": "uint8"
        },
        {
          "indexed": true,
          "name": "orderHash",
          "type": "bytes32"
        }
      ],
      "name": "Error",
      "type": "event"
    },
    {
      "anonymous": false,
      "inputs": [
        {
          "indexed": true,
          "name": "maker",
          "type": "address"
        },
        {
          "indexed": true,
          "name": "taker",
          "type": "address"
        },
        {
          "indexed": true,
          "name": "feeRecipient",
          "type": "address"
        },
        {
          "indexed": false,
          "name": "filledQty",
          "type": "int256"
        },
        {
          "indexed": false,
          "name": "paidMakerFee",
          "type": "uint256"
        },
        {
          "indexed": false,
          "name": "paidTakerFee",
          "type": "uint256"
        },
        {
          "indexed": false,
          "name": "orderHash",
          "type": "bytes32"
        }
      ],
      "name": "OrderFilled",
      "type": "event"
    },
    {
      "anonymous": false,
      "inputs": [
        {
          "indexed": true,
          "name": "maker",
          "type": "address"
        },
        {
          "indexed": true,
          "name": "feeRecipient",
          "type": "address"
        },
        {
          "indexed": false,
          "name": "cancelledQty",
          "type": "int256"
        },
        {
          "indexed": true,
          "name": "orderHash",
          "type": "bytes32"
        }
      ],
      "name": "OrderCancelled",
      "type": "event"
    },
    {
      "anonymous": false,
      "inputs": [
        {
          "indexed": true,
          "name": "currentCreator",
          "type": "address"
        },
        {
          "indexed": true,
          "name": "newCreator",
          "type": "address"
        }
      ],
      "name": "CreatorTransferred",
      "type": "event"
    },
    {
      "constant": false,
      "inputs": [],
      "name": "requestEarlySettlement",
      "outputs": [],
      "payable": true,
      "stateMutability": "payable",
      "type": "function"
    },
    {
      "constant": false,
      "inputs": [
        {
          "name": "myid",
          "type": "bytes32"
        },
        {
          "name": "result",
          "type": "string"
        }
      ],
      "name": "__callback",
      "outputs": [],
      "payable": false,
      "stateMutability": "nonpayable",
      "type": "function"
    },
    {
      "constant": false,
      "inputs": [
        {
          "name": "queryID",
          "type": "bytes32"
        },
        {
          "name": "result",
          "type": "string"
        },
        {
          "name": "proof",
          "type": "bytes"
        }
      ],
      "name": "__callback",
      "outputs": [],
      "payable": false,
      "stateMutability": "nonpayable",
      "type": "function"
    }
  ],
  "bytecode": "0x60806040526000600d60006101000a81548160ff0219169083151502179055506000600d60016101000a81548160ff0219169083151502179055503480156200004757600080fd5b506040516200566b3803806200566b833981018060405281019080805182019291906020018051906020019092919080519060200190929190805190602001909291908051906020019092919091908260a00180518201929190602001805182019291905050506000888888888888336000806101000a81548173ffffffffffffffffffffffffffffffffffffffff021916908373ffffffffffffffffffffffffffffffffffffffff16021790555081600160006101000a81548173ffffffffffffffffffffffffffffffffffffffff021916908373ffffffffffffffffffffffffffffffffffffffff16021790555083600260006101000a81548173ffffffffffffffffffffffffffffffffffffffff021916908373ffffffffffffffffffffffffffffffffffffffff16021790555083600360006101000a81548173ffffffffffffffffffffffffffffffffffffffff021916908373ffffffffffffffffffffffffffffffffffffffff160217905550600360009054906101000a900473ffffffffffffffffffffffffffffffffffffffff1673ffffffffffffffffffffffffffffffffffffffff166384281dcc336040518263ffffffff167c0100000000000000000000000000000000000000000000000000000000028152600401808273ffffffffffffffffffffffffffffffffffffffff1673ffffffffffffffffffffffffffffffffffffffff168152602001915050602060405180830381600087803b1580156200027757600080fd5b505af11580156200028c573d6000803e3d6000fd5b505050506040513d6020811015620002a357600080fd5b81019080805190602001909291905050501515620002c057600080fd5b806000600581101515620002d057fe5b6020020151600781905550806001600581101515620002eb57fe5b60200201516006819055506007546006541115156200030957600080fd5b8060026005811015156200031957fe5b60200201516008819055508060036005811015156200033457fe5b60200201516009819055508060046005811015156200034f57fe5b6020020151600a8190555042600a541115156200036b57600080fd5b856004908051906020019062000383929190620015d0565b5082600560006101000a81548173ffffffffffffffffffffffffffffffffffffffff021916908373ffffffffffffffffffffffffffffffffffffffff160217905550846000806101000a81548173ffffffffffffffffffffffffffffffffffffffff021916908373ffffffffffffffffffffffffffffffffffffffff1602179055505050505050506200046d60017f01000000000000000000000000000000000000000000000000000000000000000260107f01000000000000000000000000000000000000000000000000000000000000000217620004f2640100000000026401000000009004565b826014908051906020019062000485929190620015d0565b5081601590805190602001906200049e929190620015d0565b5042600a54111515620004b057600080fd5b624f1a0090508042600a540311151515620004ca57600080fd5b620004e3620008aa640100000000026401000000009004565b5050505050505050506200167f565b6000601160009054906101000a900473ffffffffffffffffffffffffffffffffffffffff1673ffffffffffffffffffffffffffffffffffffffff161480620005755750600062000573601160009054906101000a900473ffffffffffffffffffffffffffffffffffffffff1662000a5b640100000000026401000000009004565b145b15620005985762000596600062000a66640100000000026401000000009004565b505b601160009054906101000a900473ffffffffffffffffffffffffffffffffffffffff1673ffffffffffffffffffffffffffffffffffffffff166338cc48316040518163ffffffff167c0100000000000000000000000000000000000000000000000000000000028152600401602060405180830381600087803b1580156200061f57600080fd5b505af115801562000634573d6000803e3d6000fd5b505050506040513d60208110156200064b57600080fd5b810190808051906020019092919050505073ffffffffffffffffffffffffffffffffffffffff16601260009054906101000a900473ffffffffffffffffffffffffffffffffffffffff1673ffffffffffffffffffffffffffffffffffffffff16141515620007b857601160009054906101000a900473ffffffffffffffffffffffffffffffffffffffff1673ffffffffffffffffffffffffffffffffffffffff166338cc48316040518163ffffffff167c0100000000000000000000000000000000000000000000000000000000028152600401602060405180830381600087803b1580156200073a57600080fd5b505af11580156200074f573d6000803e3d6000fd5b505050506040513d60208110156200076657600080fd5b8101908080519060200190929190505050601260006101000a81548173ffffffffffffffffffffffffffffffffffffffff021916908373ffffffffffffffffffffffffffffffffffffffff1602179055505b601260009054906101000a900473ffffffffffffffffffffffffffffffffffffffff1673ffffffffffffffffffffffffffffffffffffffff1663688dcfd7826040518263ffffffff167c010000000000000000000000000000000000000000000000000000000002815260040180827effffffffffffffffffffffffffffffffffffffffffffffffffffffffffffff19167effffffffffffffffffffffffffffffffffffffffffffffffffffffffffffff19168152602001915050600060405180830381600087803b1580156200088e57600080fd5b505af1158015620008a3573d6000803e3d6000fd5b5050505050565b600062000a0a600a5460148054600181600116156101000203166002900480601f0160208091040260200160405190810160405280929190818152602001828054600181600116156101000203166002900480156200094d5780601f1062000921576101008083540402835291602001916200094d565b820191906000526020600020905b8154815290600101906020018083116200092f57829003601f168201915b505050505060158054600181600116156101000203166002900480601f016020809104026020016040519081016040528092919081815260200182805460018160011615610100020316600290048015620009ec5780601f10620009c057610100808354040283529160200191620009ec565b820191906000526020600020905b815481529060010190602001808311620009ce57829003601f168201915b5050505050620249f062000a88640100000000026401000000009004565b9050600060010281600019161415151562000a2457600080fd5b600160176000836000191660001916815260200190815260200160002060006101000a81548160ff02191690831515021790555050565b6000813b9050919050565b600062000a8162001055640100000000026401000000009004565b9050919050565b6000806000601160009054906101000a900473ffffffffffffffffffffffffffffffffffffffff1673ffffffffffffffffffffffffffffffffffffffff16148062000b0e5750600062000b0c601160009054906101000a900473ffffffffffffffffffffffffffffffffffffffff1662000a5b640100000000026401000000009004565b145b1562000b315762000b2f600062000a66640100000000026401000000009004565b505b601160009054906101000a900473ffffffffffffffffffffffffffffffffffffffff1673ffffffffffffffffffffffffffffffffffffffff166338cc48316040518163ffffffff167c0100000000000000000000000000000000000000000000000000000000028152600401602060405180830381600087803b15801562000bb857600080fd5b505af115801562000bcd573d6000803e3d6000fd5b505050506040513d602081101562000be457600080fd5b810190808051906020019092919050505073ffffffffffffffffffffffffffffffffffffffff16601260009054906101000a900473ffffffffffffffffffffffffffffffffffffffff1673ffffffffffffffffffffffffffffffffffffffff1614151562000d5157601160009054906101000a900473ffffffffffffffffffffffffffffffffffffffff1673ffffffffffffffffffffffffffffffffffffffff166338cc48316040518163ffffffff167c0100000000000000000000000000000000000000000000000000000000028152600401602060405180830381600087803b15801562000cd357600080fd5b505af115801562000ce8573d6000803e3d6000fd5b505050506040513d602081101562000cff57600080fd5b8101908080519060200190929190505050601260006101000a81548173ffffffffffffffffffffffffffffffffffffffff021916908373ffffffffffffffffffffffffffffffffffffffff1602179055505b601260009054906101000a900473ffffffffffffffffffffffffffffffffffffffff1673ffffffffffffffffffffffffffffffffffffffff16632ef3accc86856040518363ffffffff167c01000000000000000000000000000000000000000000000000000000000281526004018080602001838152602001828103825284818151815260200191508051906020019080838360005b8381101562000e0457808201518184015260208101905062000de7565b50505050905090810190601f16801562000e325780820380516001836020036101000a031916815260200191505b509350505050602060405180830381600087803b15801562000e5357600080fd5b505af115801562000e68573d6000803e3d6000fd5b505050506040513d602081101562000e7f57600080fd5b81019080805190602001909291905050509050601260009054906101000a900473ffffffffffffffffffffffffffffffffffffffff1673ffffffffffffffffffffffffffffffffffffffff1663c51be90f82888888886040518663ffffffff167c0100000000000000000000000000000000000000000000000000000000028152600401808581526020018060200180602001848152602001838103835286818151815260200191508051906020019080838360005b8381101562000f5257808201518184015260208101905062000f35565b50505050905090810190601f16801562000f805780820380516001836020036101000a031916815260200191505b50838103825285818151815260200191508051906020019080838360005b8381101562000fbb57808201518184015260208101905062000f9e565b50505050905090810190601f16801562000fe95780820380516001836020036101000a031916815260200191505b5096505050505050506020604051808303818588803b1580156200100c57600080fd5b505af115801562001021573d6000803e3d6000fd5b50505050506040513d60208110156200103957600080fd5b8101908080519060200190929190505050915050949350505050565b60008062001086731d3b2638a7cc9f2cb3d298a3da7a90b67e5506ed62000a5b640100000000026401000000009004565b11156200113b57731d3b2638a7cc9f2cb3d298a3da7a90b67e5506ed601160006101000a81548173ffffffffffffffffffffffffffffffffffffffff021916908373ffffffffffffffffffffffffffffffffffffffff160217905550620011316040805190810160405280600b81526020017f6574685f6d61696e6e6574000000000000000000000000000000000000000000815250620015b4640100000000026401000000009004565b60019050620015b1565b60006200116b73c03a2615d5efaf5f49f60b7bb6583eaec212fdf162000a5b640100000000026401000000009004565b1115620012205773c03a2615d5efaf5f49f60b7bb6583eaec212fdf1601160006101000a81548173ffffffffffffffffffffffffffffffffffffffff021916908373ffffffffffffffffffffffffffffffffffffffff160217905550620012166040805190810160405280600c81526020017f6574685f726f707374656e330000000000000000000000000000000000000000815250620015b4640100000000026401000000009004565b60019050620015b1565b60006200125073b7a07bcf2ba2f2703b24c0691b5278999c59ac7e62000a5b640100000000026401000000009004565b1115620013055773b7a07bcf2ba2f2703b24c0691b5278999c59ac7e601160006101000a81548173ffffffffffffffffffffffffffffffffffffffff021916908373ffffffffffffffffffffffffffffffffffffffff160217905550620012fb6040805190810160405280600981526020017f6574685f6b6f76616e0000000000000000000000000000000000000000000000815250620015b4640100000000026401000000009004565b60019050620015b1565b60006200133573146500cfd35b22e4a392fe0adc06de1a1368ed4862000a5b640100000000026401000000009004565b1115620013ea5773146500cfd35b22e4a392fe0adc06de1a1368ed48601160006101000a81548173ffffffffffffffffffffffffffffffffffffffff021916908373ffffffffffffffffffffffffffffffffffffffff160217905550620013e06040805190810160405280600b81526020017f6574685f72696e6b656279000000000000000000000000000000000000000000815250620015b4640100000000026401000000009004565b60019050620015b1565b60006200141a736f485c8bf6fc43ea212e93bbf8ce046c7f1cb47562000a5b640100000000026401000000009004565b11156200148057736f485c8bf6fc43ea212e93bbf8ce046c7f1cb475601160006101000a81548173ffffffffffffffffffffffffffffffffffffffff021916908373ffffffffffffffffffffffffffffffffffffffff16021790555060019050620015b1565b6000620014b07320e12a1f859b3feae5fb2a0a32c18f5a65555bbf62000a5b640100000000026401000000009004565b111562001516577320e12a1f859b3feae5fb2a0a32c18f5a65555bbf601160006101000a81548173ffffffffffffffffffffffffffffffffffffffff021916908373ffffffffffffffffffffffffffffffffffffffff16021790555060019050620015b1565b6000620015467351efaf4c8b3c9afbd5ab9f4bbc82784ab6ef8faa62000a5b640100000000026401000000009004565b1115620015ac577351efaf4c8b3c9afbd5ab9f4bbc82784ab6ef8faa601160006101000a81548173ffffffffffffffffffffffffffffffffffffffff021916908373ffffffffffffffffffffffffffffffffffffffff16021790555060019050620015b1565b600090505b90565b8060139080519060200190620015cc929190620015d0565b5050565b828054600181600116156101000203166002900490600052602060002090601f016020900481019282601f106200161357805160ff191683800117855562001644565b8280016001018555821562001644579182015b828111156200164357825182559160200191906001019062001626565b5b50905062001653919062001657565b5090565b6200167c91905b80821115620016785760008160009055506001016200165e565b5090565b90565b613fdc806200168f6000396000f30060806040526004361061015f576000357c0100000000000000000000000000000000000000000000000000000000900463ffffffff16806302d05d3f14610164578063053f14da146101bb5780630c8eb675146101e657806327dc297e146102765780632fed1b00146102ed578063323bb775146103185780633270bb5b1461036f57806338bbfa501461039e5780633b3c4ae91461045b578063411449bb1461048a5780634c258eb1146104b557806356357d91146104fa5780635ea7867a1461058a578063614d08f81461061a5780636db7f77c146106aa578063798ddbc8146106b4578063930a9d921461070b578063a8e77c9a14610793578063b5471dee146107ea578063bb4b573414610815578063c201293b14610840578063c32b1dfa14610883578063ca361d67146108ae578063d514d12c146108d9578063f348e8b214610930578063fa3fa1961461095b578063fc51b9c51461099e575b600080fd5b34801561017057600080fd5b506101796109fd565b604051808273ffffffffffffffffffffffffffffffffffffffff1673ffffffffffffffffffffffffffffffffffffffff16815260200191505060405180910390f35b3480156101c757600080fd5b506101d0610a22565b6040518082815260200191505060405180910390f35b3480156101f257600080fd5b506101fb610a28565b6040518080602001828103825283818151815260200191508051906020019080838360005b8381101561023b578082015181840152602081019050610220565b50505050905090810190601f1680156102685780820380516001836020036101000a031916815260200191505b509250505060405180910390f35b34801561028257600080fd5b506102eb6004803603810190808035600019169060200190929190803590602001908201803590602001908080601f0160208091040260200160405190810160405280939291908181526020018383808284378201915050505050509192919290505050610ac6565b005b3480156102f957600080fd5b50610302610b09565b6040518082815260200191505060405180910390f35b34801561032457600080fd5b5061032d610b0f565b604051808273ffffffffffffffffffffffffffffffffffffffff1673ffffffffffffffffffffffffffffffffffffffff16815260200191505060405180910390f35b34801561037b57600080fd5b50610384610b35565b604051808215151515815260200191505060405180910390f35b3480156103aa57600080fd5b506104596004803603810190808035600019169060200190929190803590602001908201803590602001908080601f0160208091040260200160405190810160405280939291908181526020018383808284378201915050505050509192919290803590602001908201803590602001908080601f0160208091040260200160405190810160405280939291908181526020018383808284378201915050505050509192919290505050610b48565b005b34801561046757600080fd5b50610470610cba565b604051808215151515815260200191505060405180910390f35b34801561049657600080fd5b5061049f610ccd565b6040518082815260200191505060405180910390f35b3480156104c157600080fd5b506104e46004803603810190808035600019169060200190929190505050610cd4565b6040518082815260200191505060405180910390f35b34801561050657600080fd5b5061050f610cf1565b6040518080602001828103825283818151815260200191508051906020019080838360005b8381101561054f578082015181840152602081019050610534565b50505050905090810190601f16801561057c5780820380516001836020036101000a031916815260200191505b509250505060405180910390f35b34801561059657600080fd5b5061059f610d8f565b6040518080602001828103825283818151815260200191508051906020019080838360005b838110156105df5780820151818401526020810190506105c4565b50505050905090810190601f16801561060c5780820380516001836020036101000a031916815260200191505b509250505060405180910390f35b34801561062657600080fd5b5061062f610e2d565b6040518080602001828103825283818151815260200191508051906020019080838360005b8381101561066f578082015181840152602081019050610654565b50505050905090810190601f16801561069c5780820380516001836020036101000a031916815260200191505b509250505060405180910390f35b6106b2610ecb565b005b3480156106c057600080fd5b506106c9611119565b604051808273ffffffffffffffffffffffffffffffffffffffff1673ffffffffffffffffffffffffffffffffffffffff16815260200191505060405180910390f35b34801561071757600080fd5b5061077d600480360381019080806060019091929192908060a0019091929192908035906020019092919080359060200190929190803560ff1690602001909291908035600019169060200190929190803560001916906020019092919050505061113f565b6040518082815260200191505060405180910390f35b34801561079f57600080fd5b506107a8611b03565b604051808273ffffffffffffffffffffffffffffffffffffffff1673ffffffffffffffffffffffffffffffffffffffff16815260200191505060405180910390f35b3480156107f657600080fd5b506107ff611b29565b6040518082815260200191505060405180910390f35b34801561082157600080fd5b5061082a611b2f565b6040518082815260200191505060405180910390f35b34801561084c57600080fd5b50610881600480360381019080803573ffffffffffffffffffffffffffffffffffffffff169060200190929190505050611b35565b005b34801561088f57600080fd5b50610898611d83565b6040518082815260200191505060405180910390f35b3480156108ba57600080fd5b506108c3611d89565b6040518082815260200191505060405180910390f35b3480156108e557600080fd5b506108ee611d8f565b604051808273ffffffffffffffffffffffffffffffffffffffff1673ffffffffffffffffffffffffffffffffffffffff16815260200191505060405180910390f35b34801561093c57600080fd5b50610945611db5565b6040518082815260200191505060405180910390f35b34801561096757600080fd5b5061099c600480360381019080803573ffffffffffffffffffffffffffffffffffffffff169060200190929190505050611dbb565b005b3480156109aa57600080fd5b506109e7600480360381019080806060019091929192908060a0019091929192908035906020019092919080359060200190929190505050611f10565b6040518082815260200191505060405180910390f35b6000809054906101000a900473ffffffffffffffffffffffffffffffffffffffff1681565b600b5481565b60168054600181600116156101000203166002900480601f016020809104026020016040519081016040528092919081815260200182805460018160011615610100020316600290048015610abe5780601f10610a9357610100808354040283529160200191610abe565b820191906000526020600020905b815481529060010190602001808311610aa157829003601f168201915b505050505081565b610b05828260006040519080825280601f01601f191660200182016040528015610aff5781602001602082028038833980820191505090505b50610b48565b5050565b60085481565b600560009054906101000a900473ffffffffffffffffffffffffffffffffffffffff1681565b600d60009054906101000a900460ff1681565b610b50612194565b73ffffffffffffffffffffffffffffffffffffffff163373ffffffffffffffffffffffffffffffffffffffff16141515610b8957600080fd5b60176000846000191660001916815260200190815260200160002060009054906101000a900460ff161515610bbd57600080fd5b8160169080519060200190610bd3929190613e79565b50610be0826008546124f6565b600b819055507f3e19f2256bddc30aeab8054ccbd86723452d07f687b94441de69c05ee212dafa826040518080602001828103825283818151815260200191508051906020019080838360005b83811015610c48578082015181840152602081019050610c2d565b50505050905090810190601f168015610c755780820380516001836020036101000a031916815260200191505b509250505060405180910390a1610c8a6127ea565b60176000846000191660001916815260200190815260200160002060006101000a81549060ff0219169055505050565b600d60019054906101000a900460ff1681565b620249f081565b6000610cea82600f6128ba90919063ffffffff16565b9050919050565b60148054600181600116156101000203166002900480601f016020809104026020016040519081016040528092919081815260200182805460018160011615610100020316600290048015610d875780601f10610d5c57610100808354040283529160200191610d87565b820191906000526020600020905b815481529060010190602001808311610d6a57829003601f168201915b505050505081565b60158054600181600116156101000203166002900480601f016020809104026020016040519081016040528092919081815260200182805460018160011615610100020316600290048015610e255780601f10610dfa57610100808354040283529160200191610e25565b820191906000526020600020905b815481529060010190602001808311610e0857829003601f168201915b505050505081565b60048054600181600116156101000203166002900480601f016020809104026020016040519081016040528092919081815260200182805460018160011615610100020316600290048015610ec35780601f10610e9857610100808354040283529160200191610ec3565b820191906000526020600020905b815481529060010190602001808311610ea657829003601f168201915b505050505081565b600080610f7560148054600181600116156101000203166002900480601f016020809104026020016040519081016040528092919081815260200182805460018160011615610100020316600290048015610f675780601f10610f3c57610100808354040283529160200191610f67565b820191906000526020600020905b815481529060010190602001808311610f4a57829003601f168201915b5050505050620249f0612911565b9150813410151515610f8657600080fd5b6110c860148054600181600116156101000203166002900480601f01602080910402602001604051908101604052809291908181526020018280546001816001161561010002031660029004801561101f5780601f10610ff45761010080835404028352916020019161101f565b820191906000526020600020905b81548152906001019060200180831161100257829003601f168201915b505050505060158054600181600116156101000203166002900480601f0160208091040260200160405190810160405280929190818152602001828054600181600116156101000203166002900480156110ba5780601f1061108f576101008083540402835291602001916110ba565b820191906000526020600020905b81548152906001019060200180831161109d57829003601f168201915b5050505050620249f0612cee565b905060006001028160001916141515156110e157600080fd5b600160176000836000191660001916815260200190815260200160002060006101000a81548160ff0219169083151502179055505050565b600260009054906101000a900473ffffffffffffffffffffffffffffffffffffffff1681565b6000611149613ef9565b6000806000806000600d60019054906101000a900460ff16801561117a5750600d60009054906101000a900460ff16155b151561118557600080fd5b60008c14158015611197575060008b14155b80156111b257506111b18b8d61328190919063ffffffff16565b5b15156111bd57600080fd5b600360009054906101000a900473ffffffffffffffffffffffffffffffffffffffff1673ffffffffffffffffffffffffffffffffffffffff1663cfab472f30336040518363ffffffff167c0100000000000000000000000000000000000000000000000000000000028152600401808373ffffffffffffffffffffffffffffffffffffffff1673ffffffffffffffffffffffffffffffffffffffff1681526020018273ffffffffffffffffffffffffffffffffffffffff1673ffffffffffffffffffffffffffffffffffffffff16815260200192505050602060405180830381600087803b1580156112ae57600080fd5b505af11580156112c2573d6000803e3d6000fd5b505050506040513d60208110156112d857600080fd5b810190808051906020019092919050505015156112f457600080fd5b61136b8e600380602002604051908101604052809291908260036020028082843782019150505050508e600580602002604051908101604052809291908260056020028082843782019150505050508e3073ffffffffffffffffffffffffffffffffffffffff1661329b909392919063ffffffff16565b9550600360009054906101000a900473ffffffffffffffffffffffffffffffffffffffff1673ffffffffffffffffffffffffffffffffffffffff1663cfab472f3088600001516040518363ffffffff167c0100000000000000000000000000000000000000000000000000000000028152600401808373ffffffffffffffffffffffffffffffffffffffff1673ffffffffffffffffffffffffffffffffffffffff1681526020018273ffffffffffffffffffffffffffffffffffffffff1673ffffffffffffffffffffffffffffffffffffffff16815260200192505050602060405180830381600087803b15801561146257600080fd5b505af1158015611476573d6000803e3d6000fd5b505050506040513d602081101561148c57600080fd5b810190808051906020019092919050505015156114a857600080fd5b600073ffffffffffffffffffffffffffffffffffffffff16866020015173ffffffffffffffffffffffffffffffffffffffff16148061151657503373ffffffffffffffffffffffffffffffffffffffff16866020015173ffffffffffffffffffffffffffffffffffffffff16145b151561152157600080fd5b600073ffffffffffffffffffffffffffffffffffffffff16866000015173ffffffffffffffffffffffffffffffffffffffff161415801561159257503373ffffffffffffffffffffffffffffffffffffffff16866000015173ffffffffffffffffffffffffffffffffffffffff1614155b151561159d57600080fd5b856000015173ffffffffffffffffffffffffffffffffffffffff1673__OrderLib______________________________638163681e90918861010001518d8d8d6040518663ffffffff167c0100000000000000000000000000000000000000000000000000000000028152600401808673ffffffffffffffffffffffffffffffffffffffff1673ffffffffffffffffffffffffffffffffffffffff16815260200185600019166000191681526020018460ff1660ff168152602001836000191660001916815260200182600019166000191681526020019550505050505060206040518083038186803b15801561169357600080fd5b505af41580156116a7573d6000803e3d6000fd5b505050506040513d60208110156116bd57600080fd5b810190808051906020019092919050505015156116d957600080fd5b8560c00151421015156117325785610100015160001916600060018111156116fd57fe5b7fe6104340582083fe7674a149f8da127b9d3d7f74a88ccd7610562eb5b61b919360405160405180910390a360009650611af2565b611752611743876101000151610cd4565b8d61342d90919063ffffffff16565b945060008514156117a8578561010001516000191660018081111561177357fe5b7fe6104340582083fe7674a149f8da127b9d3d7f74a88ccd7610562eb5b61b919360405160405180910390a360009650611af2565b6117b2858c613444565b9650600e60009054906101000a900473ffffffffffffffffffffffffffffffffffffffff1673ffffffffffffffffffffffffffffffffffffffff1663eeaba0838760000151338a8a60a001516040518563ffffffff167c0100000000000000000000000000000000000000000000000000000000028152600401808573ffffffffffffffffffffffffffffffffffffffff1673ffffffffffffffffffffffffffffffffffffffff1681526020018473ffffffffffffffffffffffffffffffffffffffff1673ffffffffffffffffffffffffffffffffffffffff168152602001838152602001828152602001945050505050600060405180830381600087803b1580156118bd57600080fd5b505af11580156118d1573d6000803e3d6000fd5b505050506118f086610100015188600f61346d9092919063ffffffff16565b6000935060009250600073ffffffffffffffffffffffffffffffffffffffff16866040015173ffffffffffffffffffffffffffffffffffffffff16141515611a455761193b876134c3565b9150611946876134c3565b90506000866060015111156119c85761196e828288606001516134e19092919063ffffffff16565b93506119c78660000151876040015186600360009054906101000a900473ffffffffffffffffffffffffffffffffffffffff1673ffffffffffffffffffffffffffffffffffffffff16613501909392919063ffffffff16565b5b600086608001511115611a44576119ee828288608001516134e19092919063ffffffff16565b9250611a4333876040015185600360009054906101000a900473ffffffffffffffffffffffffffffffffffffffff1673ffffffffffffffffffffffffffffffffffffffff16613501909392919063ffffffff16565b5b5b856040015173ffffffffffffffffffffffffffffffffffffffff163373ffffffffffffffffffffffffffffffffffffffff16876000015173ffffffffffffffffffffffffffffffffffffffff167f75cbdb818111666ee7e206d94dfeb2d679055e8bc6f34b6f5d30272edd4099908a88888c610100015160405180858152602001848152602001838152602001826000191660001916815260200194505050505060405180910390a48696505b505050505050979650505050505050565b600d60029054906101000a900473ffffffffffffffffffffffffffffffffffffffff1681565b60065481565b600a5481565b600160009054906101000a900473ffffffffffffffffffffffffffffffffffffffff1673ffffffffffffffffffffffffffffffffffffffff163373ffffffffffffffffffffffffffffffffffffffff16141515611b9157600080fd5b600d60019054906101000a900460ff16151515611bad57600080fd5b600073ffffffffffffffffffffffffffffffffffffffff168173ffffffffffffffffffffffffffffffffffffffff1614151515611be957600080fd5b80600e60006101000a81548173ffffffffffffffffffffffffffffffffffffffff021916908373ffffffffffffffffffffffffffffffffffffffff1602179055503073ffffffffffffffffffffffffffffffffffffffff16600e60009054906101000a900473ffffffffffffffffffffffffffffffffffffffff1673ffffffffffffffffffffffffffffffffffffffff16637bb55cd26040518163ffffffff167c0100000000000000000000000000000000000000000000000000000000028152600401602060405180830381600087803b158015611cc757600080fd5b505af1158015611cdb573d6000803e3d6000fd5b505050506040513d6020811015611cf157600080fd5b810190808051906020019092919050505073ffffffffffffffffffffffffffffffffffffffff16141515611d2457600080fd5b80600d60026101000a81548173ffffffffffffffffffffffffffffffffffffffff021916908373ffffffffffffffffffffffffffffffffffffffff1602179055506001600d60016101000a81548160ff02191690831515021790555050565b60075481565b60095481565b600160009054906101000a900473ffffffffffffffffffffffffffffffffffffffff1681565b600c5481565b6000809054906101000a900473ffffffffffffffffffffffffffffffffffffffff1673ffffffffffffffffffffffffffffffffffffffff163373ffffffffffffffffffffffffffffffffffffffff16141515611e1657600080fd5b600073ffffffffffffffffffffffffffffffffffffffff168173ffffffffffffffffffffffffffffffffffffffff1614151515611e5257600080fd5b8073ffffffffffffffffffffffffffffffffffffffff166000809054906101000a900473ffffffffffffffffffffffffffffffffffffffff1673ffffffffffffffffffffffffffffffffffffffff167f7f11fe0c7098e1a76afcc68f35abaa07ef156fa7d6dd2d39664812fe37348d1660405160405180910390a3806000806101000a81548173ffffffffffffffffffffffffffffffffffffffff021916908373ffffffffffffffffffffffffffffffffffffffff16021790555050565b6000611f1a613ef9565b6000808414158015611f3b5750611f3a858561328190919063ffffffff16565b5b1515611f4657600080fd5b600d60009054906101000a900460ff16151515611f6257600080fd5b611fd987600380602002604051908101604052809291908260036020028082843782019150505050508760058060200260405190810160405280929190826005602002808284378201915050505050873073ffffffffffffffffffffffffffffffffffffffff1661329b909392919063ffffffff16565b91503373ffffffffffffffffffffffffffffffffffffffff16826000015173ffffffffffffffffffffffffffffffffffffffff1614151561201957600080fd5b8160c001514210151561207257816101000151600019166000600181111561203d57fe5b7fe6104340582083fe7674a149f8da127b9d3d7f74a88ccd7610562eb5b61b919360405160405180910390a36000925061218a565b612092612083836101000151610cd4565b8661342d90919063ffffffff16565b905060008114156120e857816101000151600019166001808111156120b357fe5b7fe6104340582083fe7674a149f8da127b9d3d7f74a88ccd7610562eb5b61b919360405160405180910390a36000925061218a565b6120f28482613444565b925061210f82610100015184600f6136219092919063ffffffff16565b81610100015160001916826040015173ffffffffffffffffffffffffffffffffffffffff16836000015173ffffffffffffffffffffffffffffffffffffffff167f7de4479e80e82e22edb1e0010433c8befc804c34988024fa0b0234715102cd8f866040518082815260200191505060405180910390a48292505b5050949350505050565b600080601160009054906101000a900473ffffffffffffffffffffffffffffffffffffffff1673ffffffffffffffffffffffffffffffffffffffff16148061220657506000612204601160009054906101000a900473ffffffffffffffffffffffffffffffffffffffff16613677565b145b15612217576122156000613682565b505b601160009054906101000a900473ffffffffffffffffffffffffffffffffffffffff1673ffffffffffffffffffffffffffffffffffffffff166338cc48316040518163ffffffff167c0100000000000000000000000000000000000000000000000000000000028152600401602060405180830381600087803b15801561229d57600080fd5b505af11580156122b1573d6000803e3d6000fd5b505050506040513d60208110156122c757600080fd5b810190808051906020019092919050505073ffffffffffffffffffffffffffffffffffffffff16601260009054906101000a900473ffffffffffffffffffffffffffffffffffffffff1673ffffffffffffffffffffffffffffffffffffffff1614151561243057601160009054906101000a900473ffffffffffffffffffffffffffffffffffffffff1673ffffffffffffffffffffffffffffffffffffffff166338cc48316040518163ffffffff167c0100000000000000000000000000000000000000000000000000000000028152600401602060405180830381600087803b1580156123b457600080fd5b505af11580156123c8573d6000803e3d6000fd5b505050506040513d60208110156123de57600080fd5b8101908080519060200190929190505050601260006101000a81548173ffffffffffffffffffffffffffffffffffffffff021916908373ffffffffffffffffffffffffffffffffffffffff1602179055505b601260009054906101000a900473ffffffffffffffffffffffffffffffffffffffff1673ffffffffffffffffffffffffffffffffffffffff1663c281d19e6040518163ffffffff167c0100000000000000000000000000000000000000000000000000000000028152600401602060405180830381600087803b1580156124b657600080fd5b505af11580156124ca573d6000803e3d6000fd5b505050506040513d60208110156124e057600080fd5b8101908080519060200190929190505050905090565b6000606060008060008693506000925060009150600090505b83518110156127cb5760307f010000000000000000000000000000000000000000000000000000000000000002848281518110151561254a57fe5b9060200101517f010000000000000000000000000000000000000000000000000000000000000090047f0100000000000000000000000000000000000000000000000000000000000000027effffffffffffffffffffffffffffffffffffffffffffffffffffffffffffff191610158015612662575060397f01000000000000000000000000000000000000000000000000000000000000000284828151811015156125f257fe5b9060200101517f010000000000000000000000000000000000000000000000000000000000000090047f0100000000000000000000000000000000000000000000000000000000000000027effffffffffffffffffffffffffffffffffffffffffffffffffffffffffffff191611155b1561271357811561268557600086141561267b576127cb565b8580600190039650505b600a830292506030848281518110151561269b57fe5b9060200101517f010000000000000000000000000000000000000000000000000000000000000090047f0100000000000000000000000000000000000000000000000000000000000000027f0100000000000000000000000000000000000000000000000000000000000000900403830192506127be565b602e7f010000000000000000000000000000000000000000000000000000000000000002848281518110151561274557fe5b9060200101517f010000000000000000000000000000000000000000000000000000000000000090047f0100000000000000000000000000000000000000000000000000000000000000027effffffffffffffffffffffffffffffffffffffffffffffffffffffffffffff191614156127bd57600191505b5b808060010191505061250f565b60008611156127dd5785600a0a830292505b8294505050505092915050565b6000600d60009054906101000a900460ff1615612806576128b7565b600a54421115612835576001600d60006101000a81548160ff021916908315150217905550600b549050612897565b600654600b54101515612867576001600d60006101000a81548160ff0219169083151502179055506006549050612896565b600754600b54111515612895576001600d60006101000a81548160ff02191690831515021790555060075490505b5b5b600d60009054906101000a900460ff16156128b6576128b581613693565b5b5b50565b60006129098360010160008460001916600019168152602001908152602001600020548460000160008560001916600019168152602001908152602001600020546136d490919063ffffffff16565b905092915050565b600080601160009054906101000a900473ffffffffffffffffffffffffffffffffffffffff1673ffffffffffffffffffffffffffffffffffffffff16148061298357506000612981601160009054906101000a900473ffffffffffffffffffffffffffffffffffffffff16613677565b145b15612994576129926000613682565b505b601160009054906101000a900473ffffffffffffffffffffffffffffffffffffffff1673ffffffffffffffffffffffffffffffffffffffff166338cc48316040518163ffffffff167c0100000000000000000000000000000000000000000000000000000000028152600401602060405180830381600087803b158015612a1a57600080fd5b505af1158015612a2e573d6000803e3d6000fd5b505050506040513d6020811015612a4457600080fd5b810190808051906020019092919050505073ffffffffffffffffffffffffffffffffffffffff16601260009054906101000a900473ffffffffffffffffffffffffffffffffffffffff1673ffffffffffffffffffffffffffffffffffffffff16141515612bad57601160009054906101000a900473ffffffffffffffffffffffffffffffffffffffff1673ffffffffffffffffffffffffffffffffffffffff166338cc48316040518163ffffffff167c0100000000000000000000000000000000000000000000000000000000028152600401602060405180830381600087803b158015612b3157600080fd5b505af1158015612b45573d6000803e3d6000fd5b505050506040513d6020811015612b5b57600080fd5b8101908080519060200190929190505050601260006101000a81548173ffffffffffffffffffffffffffffffffffffffff021916908373ffffffffffffffffffffffffffffffffffffffff1602179055505b601260009054906101000a900473ffffffffffffffffffffffffffffffffffffffff1673ffffffffffffffffffffffffffffffffffffffff16632ef3accc84846040518363ffffffff167c01000000000000000000000000000000000000000000000000000000000281526004018080602001838152602001828103825284818151815260200191508051906020019080838360005b83811015612c5e578082015181840152602081019050612c43565b50505050905090810190601f168015612c8b5780820380516001836020036101000a031916815260200191505b509350505050602060405180830381600087803b158015612cab57600080fd5b505af1158015612cbf573d6000803e3d6000fd5b505050506040513d6020811015612cd557600080fd5b8101908080519060200190929190505050905092915050565b6000806000601160009054906101000a900473ffffffffffffffffffffffffffffffffffffffff1673ffffffffffffffffffffffffffffffffffffffff161480612d6257506000612d60601160009054906101000a900473ffffffffffffffffffffffffffffffffffffffff16613677565b145b15612d7357612d716000613682565b505b601160009054906101000a900473ffffffffffffffffffffffffffffffffffffffff1673ffffffffffffffffffffffffffffffffffffffff166338cc48316040518163ffffffff167c0100000000000000000000000000000000000000000000000000000000028152600401602060405180830381600087803b158015612df957600080fd5b505af1158015612e0d573d6000803e3d6000fd5b505050506040513d6020811015612e2357600080fd5b810190808051906020019092919050505073ffffffffffffffffffffffffffffffffffffffff16601260009054906101000a900473ffffffffffffffffffffffffffffffffffffffff1673ffffffffffffffffffffffffffffffffffffffff16141515612f8c57601160009054906101000a900473ffffffffffffffffffffffffffffffffffffffff1673ffffffffffffffffffffffffffffffffffffffff166338cc48316040518163ffffffff167c0100000000000000000000000000000000000000000000000000000000028152600401602060405180830381600087803b158015612f1057600080fd5b505af1158015612f24573d6000803e3d6000fd5b505050506040513d6020811015612f3a57600080fd5b8101908080519060200190929190505050601260006101000a81548173ffffffffffffffffffffffffffffffffffffffff021916908373ffffffffffffffffffffffffffffffffffffffff1602179055505b601260009054906101000a900473ffffffffffffffffffffffffffffffffffffffff1673ffffffffffffffffffffffffffffffffffffffff16632ef3accc86856040518363ffffffff167c01000000000000000000000000000000000000000000000000000000000281526004018080602001838152602001828103825284818151815260200191508051906020019080838360005b8381101561303d578082015181840152602081019050613022565b50505050905090810190601f16801561306a5780820380516001836020036101000a031916815260200191505b509350505050602060405180830381600087803b15801561308a57600080fd5b505af115801561309e573d6000803e3d6000fd5b505050506040513d60208110156130b457600080fd5b81019080805190602001909291905050509050601260009054906101000a900473ffffffffffffffffffffffffffffffffffffffff1673ffffffffffffffffffffffffffffffffffffffff1663c51be90f8260008888886040518663ffffffff167c0100000000000000000000000000000000000000000000000000000000028152600401808581526020018060200180602001848152602001838103835286818151815260200191508051906020019080838360005b8381101561318657808201518184015260208101905061316b565b50505050905090810190601f1680156131b35780820380516001836020036101000a031916815260200191505b50838103825285818151815260200191508051906020019080838360005b838110156131ec5780820151818401526020810190506131d1565b50505050905090810190601f1680156132195780820380516001836020036101000a031916815260200191505b5096505050505050506020604051808303818588803b15801561323b57600080fd5b505af115801561324f573d6000803e3d6000fd5b50505050506040513d602081101561326657600080fd5b81019080805190602001909291905050509150509392505050565b60008183148061329357506000828402135b905092915050565b6132a3613ef9565b8360006003811015156132b257fe5b6020020151816000019073ffffffffffffffffffffffffffffffffffffffff16908173ffffffffffffffffffffffffffffffffffffffff16815250508360016003811015156132fd57fe5b6020020151816020019073ffffffffffffffffffffffffffffffffffffffff16908173ffffffffffffffffffffffffffffffffffffffff168152505083600260038110151561334857fe5b6020020151816040019073ffffffffffffffffffffffffffffffffffffffff16908173ffffffffffffffffffffffffffffffffffffffff168152505082600060058110151561339357fe5b60200201518160600181815250508260016005811015156133b057fe5b60200201518160800181815250508260026005811015156133cd57fe5b60200201518160a00181815250508260036005811015156133ea57fe5b60200201518160c0018181525050818160e001818152505061340e8585858561373c565b8161010001906000191690816000191681525050809050949350505050565b600061343c83836000036136d4565b905092915050565b600061344f826134c3565b613458846134c3565b106134635781613465565b825b905092915050565b61349d818460000160008560001916600019168152602001908152602001600020546136d490919063ffffffff16565b836000016000846000191660001916815260200190815260200160002081905550505050565b6000808212156134d8578160000390506134dc565b8190505b919050565b6000816134ee8585613996565b8115156134f757fe5b0490509392505050565b8373ffffffffffffffffffffffffffffffffffffffff166323b872dd8484846040518463ffffffff167c0100000000000000000000000000000000000000000000000000000000028152600401808473ffffffffffffffffffffffffffffffffffffffff1673ffffffffffffffffffffffffffffffffffffffff1681526020018373ffffffffffffffffffffffffffffffffffffffff1673ffffffffffffffffffffffffffffffffffffffff1681526020018281526020019350505050602060405180830381600087803b1580156135d857600080fd5b505af11580156135ec573d6000803e3d6000fd5b505050506040513d602081101561360257600080fd5b8101908080519060200190929190505050151561361b57fe5b50505050565b613651818460010160008560001916600019168152602001908152602001600020546136d490919063ffffffff16565b836001016000846000191660001916815260200190815260200160002081905550505050565b6000813b9050919050565b600061368c6139c9565b9050919050565b80600c819055507f68170b705528d3ff1d324cda28eb28cc3d11ce81207f157c05e11c18411a013c816040518082815260200191505060405180910390a150565b60008082840190506136e68484613281565b15156136f457809150613735565b60008412151561371a578360ff60019060020a021903831315151561371557fe5b613731565b8360ff60019060020a0203831215151561373057fe5b5b8091505b5092915050565b60008484600060038110151561374e57fe5b602002015185600160038110151561376257fe5b602002015186600260038110151561377657fe5b602002015186600060058110151561378a57fe5b602002015187600160058110151561379e57fe5b60200201518860026005811015156137b257fe5b60200201518960036005811015156137c657fe5b60200201518a60046005811015156137da57fe5b60200201518a604051602001808b73ffffffffffffffffffffffffffffffffffffffff1673ffffffffffffffffffffffffffffffffffffffff166c010000000000000000000000000281526014018a73ffffffffffffffffffffffffffffffffffffffff1673ffffffffffffffffffffffffffffffffffffffff166c010000000000000000000000000281526014018973ffffffffffffffffffffffffffffffffffffffff1673ffffffffffffffffffffffffffffffffffffffff166c010000000000000000000000000281526014018873ffffffffffffffffffffffffffffffffffffffff1673ffffffffffffffffffffffffffffffffffffffff166c010000000000000000000000000281526014018781526020018681526020018581526020018481526020018381526020018281526020019a50505050505050505050506040516020818303038152906040526040518082805190602001908083835b60208310151561395f578051825260208201915060208101905060208303925061393a565b6001836020036101000a03801982511681845116808217855250505050505090500191505060405180910390209050949350505050565b600080828402905060008414806139b757508284828115156139b457fe5b04145b15156139bf57fe5b8091505092915050565b6000806139e9731d3b2638a7cc9f2cb3d298a3da7a90b67e5506ed613677565b1115613a8b57731d3b2638a7cc9f2cb3d298a3da7a90b67e5506ed601160006101000a81548173ffffffffffffffffffffffffffffffffffffffff021916908373ffffffffffffffffffffffffffffffffffffffff160217905550613a826040805190810160405280600b81526020017f6574685f6d61696e6e6574000000000000000000000000000000000000000000815250613e5f565b60019050613e5c565b6000613aaa73c03a2615d5efaf5f49f60b7bb6583eaec212fdf1613677565b1115613b4c5773c03a2615d5efaf5f49f60b7bb6583eaec212fdf1601160006101000a81548173ffffffffffffffffffffffffffffffffffffffff021916908373ffffffffffffffffffffffffffffffffffffffff160217905550613b436040805190810160405280600c81526020017f6574685f726f707374656e330000000000000000000000000000000000000000815250613e5f565b60019050613e5c565b6000613b6b73b7a07bcf2ba2f2703b24c0691b5278999c59ac7e613677565b1115613c0d5773b7a07bcf2ba2f2703b24c0691b5278999c59ac7e601160006101000a81548173ffffffffffffffffffffffffffffffffffffffff021916908373ffffffffffffffffffffffffffffffffffffffff160217905550613c046040805190810160405280600981526020017f6574685f6b6f76616e0000000000000000000000000000000000000000000000815250613e5f565b60019050613e5c565b6000613c2c73146500cfd35b22e4a392fe0adc06de1a1368ed48613677565b1115613cce5773146500cfd35b22e4a392fe0adc06de1a1368ed48601160006101000a81548173ffffffffffffffffffffffffffffffffffffffff021916908373ffffffffffffffffffffffffffffffffffffffff160217905550613cc56040805190810160405280600b81526020017f6574685f72696e6b656279000000000000000000000000000000000000000000815250613e5f565b60019050613e5c565b6000613ced736f485c8bf6fc43ea212e93bbf8ce046c7f1cb475613677565b1115613d5157736f485c8bf6fc43ea212e93bbf8ce046c7f1cb475601160006101000a81548173ffffffffffffffffffffffffffffffffffffffff021916908373ffffffffffffffffffffffffffffffffffffffff16021790555060019050613e5c565b6000613d707320e12a1f859b3feae5fb2a0a32c18f5a65555bbf613677565b1115613dd4577320e12a1f859b3feae5fb2a0a32c18f5a65555bbf601160006101000a81548173ffffffffffffffffffffffffffffffffffffffff021916908373ffffffffffffffffffffffffffffffffffffffff16021790555060019050613e5c565b6000613df37351efaf4c8b3c9afbd5ab9f4bbc82784ab6ef8faa613677565b1115613e57577351efaf4c8b3c9afbd5ab9f4bbc82784ab6ef8faa601160006101000a81548173ffffffffffffffffffffffffffffffffffffffff021916908373ffffffffffffffffffffffffffffffffffffffff16021790555060019050613e5c565b600090505b90565b8060139080519060200190613e75929190613e79565b5050565b828054600181600116156101000203166002900490600052602060002090601f016020900481019282601f10613eba57805160ff1916838001178555613ee8565b82800160010185558215613ee8579182015b82811115613ee7578251825591602001919060010190613ecc565b5b509050613ef59190613f8b565b5090565b61012060405190810160405280600073ffffffffffffffffffffffffffffffffffffffff168152602001600073ffffffffffffffffffffffffffffffffffffffff168152602001600073ffffffffffffffffffffffffffffffffffffffff1681526020016000815260200160008152602001600081526020016000815260200160008152602001600080191681525090565b613fad91905b80821115613fa9576000816000905550600101613f91565b5090565b905600a165627a7a723058200713f835938e6cef4ee919b8331831bc35dc93d4fb71d5c3770275471cc8fa3c0029",
  "source": "/*\n    Copyright 2017-2018 Phillip A. Elsasser\n\n    Licensed under the Apache License, Version 2.0 (the \"License\");\n    you may not use this file except in compliance with the License.\n    You may obtain a copy of the License at\n\n    http://www.apache.org/licenses/LICENSE-2.0\n\n    Unless required by applicable law or agreed to in writing, software\n    distributed under the License is distributed on an \"AS IS\" BASIS,\n    WITHOUT WARRANTIES OR CONDITIONS OF ANY KIND, either express or implied.\n    See the License for the specific language governing permissions and\n    limitations under the License.\n*/\n\npragma solidity ^0.4.24;\n\nimport \"./oraclizeAPI.sol\";\nimport \"../libraries/MathLib.sol\";\nimport \"../MarketContract.sol\";\n\n\n/// @title MarketContract first example of a MarketProtocol contract using Oraclize services\n/// @author Phil Elsasser <phil@marketprotocol.io>\ncontract MarketContractOraclize is MarketContract, usingOraclize {\n    using MathLib for uint;\n\n    // constants\n    string public ORACLE_DATA_SOURCE;\n    string public ORACLE_QUERY;\n    uint constant public QUERY_CALLBACK_GAS = 150000;\n    //uint constant public QUERY_CALLBACK_GAS_PRICE = 20000000000 wei; // 20 gwei - need to make this dynamic!\n\n    // state variables\n    string public lastPriceQueryResult;\n    mapping(bytes32 => bool) validQueryIDs;\n\n    /// @param contractName viewable name of this contract (BTC/ETH, LTC/ETH, etc)\n    /// @param creatorAddress address of the person creating the contract\n    /// @param marketTokenAddress address of our member token\n    /// @param collateralTokenAddress address of the ERC20 token that will be used for collateral and pricing\n    /// @param collateralPoolFactoryAddress address of the factory creating the collateral pools\n    /// @param contractSpecs array of unsigned integers including:\n    /// floorPrice minimum tradeable price of this contract, contract enters settlement if breached\n    /// capPrice maximum tradeable price of this contract, contract enters settlement if breached\n    /// priceDecimalPlaces number of decimal places to convert our queried price from a floating point to\n    /// an integer\n    /// qtyMultiplier multiply traded qty by this value from base units of collateral token.\n    /// expirationTimeStamp - seconds from epoch that this contract expires and enters settlement\n    /// @param oracleDataSource a data-source such as \"URL\", \"WolframAlpha\", \"IPFS\"\n    /// see http://docs.oraclize.it/#ethereum-quick-start-simple-query\n    /// @param oracleQuery see http://docs.oraclize.it/#ethereum-quick-start-simple-query for examples\n    constructor(\n        string contractName,\n        address creatorAddress,\n        address marketTokenAddress,\n        address collateralTokenAddress,\n        address collateralPoolFactoryAddress,\n        uint[5] contractSpecs,\n        string oracleDataSource,\n        string oracleQuery\n    ) MarketContract(\n        contractName,\n        creatorAddress,\n        marketTokenAddress,\n        collateralTokenAddress,\n        collateralPoolFactoryAddress,\n        contractSpecs\n    )  public\n    {\n        oraclize_setProof(proofType_TLSNotary | proofStorage_IPFS);\n        //oraclize_setCustomGasPrice(QUERY_CALLBACK_GAS_PRICE);  //TODO: allow this to be changed by creator.\n        ORACLE_DATA_SOURCE = oracleDataSource;\n        ORACLE_QUERY = oracleQuery;\n        require(EXPIRATION > now);         // Require expiration time in the future.\n\n        // Future timestamp must be within 60 days from now.\n        // https://docs.oraclize.it/#ethereum-quick-start-schedule-a-query-in-the-future\n        uint secondsPerSixtyDays = 60 * 60 * 24 * 60;\n        require(EXPIRATION - now <= secondsPerSixtyDays);\n        queryOracle();                      // Schedule a call to oracle at contract expiration time.\n    }\n\n    /// @notice allows a user to request an extra query to oracle in order to push the contract into\n    /// settlement.  A user may call this as many times as they like, since they are the ones paying for\n    /// the call to our oracle and post processing. This is useful for both a failsafe and as a way to\n    /// settle a contract early if a price cap or floor has been breached.\n    function requestEarlySettlement() external payable {\n        uint cost = oraclize_getPrice(ORACLE_DATA_SOURCE, QUERY_CALLBACK_GAS);\n        require(msg.value >= cost); // user must pay enough to cover query and callback\n        // create immediate query, we must make sure to store this one separately, so\n        // we do not schedule recursive callbacks when the query completes.\n        bytes32 queryId = oraclize_query(\n            ORACLE_DATA_SOURCE,\n            ORACLE_QUERY,\n            QUERY_CALLBACK_GAS\n        );\n        require(queryId != 0);\n        validQueryIDs[queryId] = true;\n    }\n\n    /*\n    // PUBLIC METHODS\n    */\n\n    /// @notice only public for callbacks from oraclize, do not call\n    /// @param queryID of the returning query, this should match our own internal mapping\n    /// @param result query to be processed\n    /// @param proof result proof\n    function __callback(bytes32 queryID, string result, bytes proof) public {\n        require(msg.sender == oraclize_cbAddress());\n        require(validQueryIDs[queryID]);  // At expiration or early settlement.\n        lastPriceQueryResult = result;\n        lastPrice = parseInt(result, PRICE_DECIMAL_PLACES);\n        emit UpdatedLastPrice(result);\n        checkSettlement();  // Verify settlement at expiration or requested early settlement.\n        delete validQueryIDs[queryID];\n        proof;  // silence compiler warnings\n    }\n\n    /*\n    // PRIVATE METHODS\n    */\n\n    /// @dev call to oraclize to set up our query and record its hash.\n    function queryOracle() private {\n        // Require that sufficient funds are available to pay for the query.\n        // require(oraclize_getPrice(ORACLE_DATA_SOURCE, QUERY_CALLBACK_GAS) < this.balance);\n        // NOTE: Currently the first oracle query call to oraclize.it is free. Since our\n        // expiration query will always be the first, there is no needed pre-funding amount\n        // to create this query.  When we go to the centralized query hub - this will change\n        // due to the fact that the address creating the query will always be the query hub.\n        // will have to do the analysis to see which is cheaper, free queries, or lower deployment\n        // gas costs\n        bytes32 queryId = oraclize_query(\n            EXPIRATION,\n            ORACLE_DATA_SOURCE,\n            ORACLE_QUERY,\n            QUERY_CALLBACK_GAS\n        );\n        require(queryId != 0);\n        validQueryIDs[queryId] = true;\n    }\n}",
  "sourcePath": "/home/pelsasser/MARKETProtocol/contracts/oraclize/MarketContractOraclize.sol",
  "compiler": {
    "name": "solc",
    "version": "0.4.24+commit.e67f0147.Emscripten.clang"
  },
  "schemaVersion": "2.0.0",
  "updatedAt": "2018-06-07T23:57:55.081Z"
}