{
  "contractName": "OraclizeQueryTest",
  "abi": [
    {
      "constant": true,
      "inputs": [],
      "name": "QUERY_CALLBACK_GAS",
      "outputs": [
        {
          "name": "",
          "type": "uint256"
        }
      ],
      "payable": false,
      "stateMutability": "view",
      "type": "function"
    },
    {
      "inputs": [],
      "payable": false,
      "stateMutability": "nonpayable",
      "type": "constructor"
    },
    {
      "anonymous": false,
      "inputs": [
        {
          "indexed": true,
          "name": "queryIDCompleted",
          "type": "bytes32"
        }
      ],
      "name": "QueryCompleted",
      "type": "event"
    },
    {
      "anonymous": false,
      "inputs": [
        {
          "indexed": true,
          "name": "queryIDScheduled",
          "type": "bytes32"
        }
      ],
      "name": "QueryScheduled",
      "type": "event"
    },
    {
      "anonymous": false,
      "inputs": [
        {
          "indexed": false,
          "name": "value",
          "type": "uint256"
        }
      ],
      "name": "QueryPrice",
      "type": "event"
    },
    {
      "constant": false,
      "inputs": [
        {
          "name": "oracleDataSource",
          "type": "string"
        },
        {
          "name": "oracleQuery",
          "type": "string"
        }
      ],
      "name": "testOracleQuery",
      "outputs": [
        {
          "name": "",
          "type": "bytes32"
        }
      ],
      "payable": true,
      "stateMutability": "payable",
      "type": "function"
    },
    {
      "constant": true,
      "inputs": [
        {
          "name": "queryID",
          "type": "bytes32"
        }
      ],
      "name": "getQueryResults",
      "outputs": [
        {
          "name": "",
          "type": "string"
        }
      ],
      "payable": false,
      "stateMutability": "view",
      "type": "function"
    },
    {
      "constant": false,
      "inputs": [
        {
          "name": "oracleDataSource",
          "type": "string"
        }
      ],
      "name": "getQueryCost",
      "outputs": [
        {
          "name": "",
          "type": "uint256"
        }
      ],
      "payable": false,
      "stateMutability": "nonpayable",
      "type": "function"
    },
    {
      "constant": false,
      "inputs": [
        {
          "name": "myid",
          "type": "bytes32"
        },
        {
          "name": "result",
          "type": "string"
        }
      ],
      "name": "__callback",
      "outputs": [],
      "payable": false,
      "stateMutability": "nonpayable",
      "type": "function"
    },
    {
      "constant": false,
      "inputs": [
        {
          "name": "queryID",
          "type": "bytes32"
        },
        {
          "name": "result",
          "type": "string"
        },
        {
          "name": "proof",
          "type": "bytes"
        }
      ],
      "name": "__callback",
      "outputs": [],
      "payable": false,
      "stateMutability": "nonpayable",
      "type": "function"
    }
  ],
  "bytecode": "0x606060405234156200001057600080fd5b6200007760017f01000000000000000000000000000000000000000000000000000000000000000260107f010000000000000000000000000000000000000000000000000000000000000002176200007d64010000000002620017de176401000000009004565b62000a6b565b60008060009054906101000a900473ffffffffffffffffffffffffffffffffffffffff1673ffffffffffffffffffffffffffffffffffffffff1614806200010357506000620001016000809054906101000a900473ffffffffffffffffffffffffffffffffffffffff1662000404640100000000026200126f176401000000009004565b145b156200012b576200012960006200040f640100000000026200127a176401000000009004565b505b6000809054906101000a900473ffffffffffffffffffffffffffffffffffffffff1673ffffffffffffffffffffffffffffffffffffffff166338cc48316000604051602001526040518163ffffffff167c0100000000000000000000000000000000000000000000000000000000028152600401602060405180830381600087803b1515620001b957600080fd5b6102c65a03f11515620001cb57600080fd5b5050506040518051905073ffffffffffffffffffffffffffffffffffffffff16600160009054906101000a900473ffffffffffffffffffffffffffffffffffffffff1673ffffffffffffffffffffffffffffffffffffffff1614151562000317576000809054906101000a900473ffffffffffffffffffffffffffffffffffffffff1673ffffffffffffffffffffffffffffffffffffffff166338cc48316000604051602001526040518163ffffffff167c0100000000000000000000000000000000000000000000000000000000028152600401602060405180830381600087803b1515620002ba57600080fd5b6102c65a03f11515620002cc57600080fd5b50505060405180519050600160006101000a81548173ffffffffffffffffffffffffffffffffffffffff021916908373ffffffffffffffffffffffffffffffffffffffff1602179055505b600160009054906101000a900473ffffffffffffffffffffffffffffffffffffffff1673ffffffffffffffffffffffffffffffffffffffff1663688dcfd7826040518263ffffffff167c010000000000000000000000000000000000000000000000000000000002815260040180827effffffffffffffffffffffffffffffffffffffffffffffffffffffffffffff19167effffffffffffffffffffffffffffffffffffffffffffffffffffffffffffff19168152602001915050600060405180830381600087803b1515620003ec57600080fd5b6102c65a03f11515620003fe57600080fd5b50505050565b6000813b9050919050565b60008062000445731d3b2638a7cc9f2cb3d298a3da7a90b67e5506ed62000404640100000000026200126f176401000000009004565b1115620004fe57731d3b2638a7cc9f2cb3d298a3da7a90b67e5506ed6000806101000a81548173ffffffffffffffffffffffffffffffffffffffff021916908373ffffffffffffffffffffffffffffffffffffffff160217905550620004f46040805190810160405280600b81526020017f6574685f6d61696e6e6574000000000000000000000000000000000000000000815250620009a0640100000000026200170b176401000000009004565b600190506200099b565b60006200053373c03a2615d5efaf5f49f60b7bb6583eaec212fdf162000404640100000000026200126f176401000000009004565b1115620005ec5773c03a2615d5efaf5f49f60b7bb6583eaec212fdf16000806101000a81548173ffffffffffffffffffffffffffffffffffffffff021916908373ffffffffffffffffffffffffffffffffffffffff160217905550620005e26040805190810160405280600c81526020017f6574685f726f707374656e330000000000000000000000000000000000000000815250620009a0640100000000026200170b176401000000009004565b600190506200099b565b60006200062173b7a07bcf2ba2f2703b24c0691b5278999c59ac7e62000404640100000000026200126f176401000000009004565b1115620006da5773b7a07bcf2ba2f2703b24c0691b5278999c59ac7e6000806101000a81548173ffffffffffffffffffffffffffffffffffffffff021916908373ffffffffffffffffffffffffffffffffffffffff160217905550620006d06040805190810160405280600981526020017f6574685f6b6f76616e0000000000000000000000000000000000000000000000815250620009a0640100000000026200170b176401000000009004565b600190506200099b565b60006200070f73146500cfd35b22e4a392fe0adc06de1a1368ed4862000404640100000000026200126f176401000000009004565b1115620007c85773146500cfd35b22e4a392fe0adc06de1a1368ed486000806101000a81548173ffffffffffffffffffffffffffffffffffffffff021916908373ffffffffffffffffffffffffffffffffffffffff160217905550620007be6040805190810160405280600b81526020017f6574685f72696e6b656279000000000000000000000000000000000000000000815250620009a0640100000000026200170b176401000000009004565b600190506200099b565b6000620007fd736f485c8bf6fc43ea212e93bbf8ce046c7f1cb47562000404640100000000026200126f176401000000009004565b11156200086257736f485c8bf6fc43ea212e93bbf8ce046c7f1cb4756000806101000a81548173ffffffffffffffffffffffffffffffffffffffff021916908373ffffffffffffffffffffffffffffffffffffffff160217905550600190506200099b565b6000620008977320e12a1f859b3feae5fb2a0a32c18f5a65555bbf62000404640100000000026200126f176401000000009004565b1115620008fc577320e12a1f859b3feae5fb2a0a32c18f5a65555bbf6000806101000a81548173ffffffffffffffffffffffffffffffffffffffff021916908373ffffffffffffffffffffffffffffffffffffffff160217905550600190506200099b565b6000620009317351efaf4c8b3c9afbd5ab9f4bbc82784ab6ef8faa62000404640100000000026200126f176401000000009004565b111562000996577351efaf4c8b3c9afbd5ab9f4bbc82784ab6ef8faa6000806101000a81548173ffffffffffffffffffffffffffffffffffffffff021916908373ffffffffffffffffffffffffffffffffffffffff160217905550600190506200099b565b600090505b919050565b8060029080519060200190620009b8929190620009bc565b5050565b828054600181600116156101000203166002900490600052602060002090601f016020900481019282601f10620009ff57805160ff191683800117855562000a30565b8280016001018555821562000a30579182015b8281111562000a2f57825182559160200191906001019062000a12565b5b50905062000a3f919062000a43565b5090565b62000a6891905b8082111562000a6457600081600090555060010162000a4a565b5090565b90565b611b5c8062000a7b6000396000f300606060405260043610610078576000357c0100000000000000000000000000000000000000000000000000000000900463ffffffff168063191be7b71461007d57806327dc297e1461011d578063340a247c1461018757806338bbfa50146101c9578063411449bb14610276578063416851a01461029f575b600080fd5b341561008857600080fd5b6100a26004808035600019169060200190919050506102f2565b6040518080602001828103825283818151815260200191508051906020019080838360005b838110156100e25780820151818401526020810190506100c7565b50505050905090810190601f16801561010f5780820380516001836020036101000a031916815260200191505b509250505060405180910390f35b341561012857600080fd5b61018560048080356000191690602001909190803590602001908201803590602001908080601f016020809104026020016040519081016040528093929190818152602001838380828437820191505050505050919050506103b5565b005b341561019257600080fd5b6101b3600480803590602001908201803590602001919091929050506103e7565b6040518082815260200191505060405180910390f35b34156101d457600080fd5b61027460048080356000191690602001909190803590602001908201803590602001908080601f0160208091040260200160405190810160405280939291908181526020018383808284378201915050505050509190803590602001908201803590602001908080601f01602080910402602001604051908101604052809392919081815260200183838082843782019150505050505091905050610430565b005b341561028157600080fd5b610289610536565b6040518082815260200191505060405180910390f35b6102d460048080359060200190820180359060200191909192908035906020019082018035906020019190919290505061053d565b60405180826000191660001916815260200191505060405180910390f35b6102fa611725565b6004600083600019166000191681526020019081526020016000208054600181600116156101000203166002900480601f0160208091040260200160405190810160405280929190818152602001828054600181600116156101000203166002900480156103a95780601f1061037e576101008083540402835291602001916103a9565b820191906000526020600020905b81548152906001019060200180831161038c57829003601f168201915b50505050509050919050565b6103e3828260006040518059106103c95750595b9080825280601f01601f1916602001820160405250610430565b5050565b600061042883838080601f016020809104026020016040519081016040528093929190818152602001838380828437820191505050505050620249f0610678565b905092915050565b610438610a09565b73ffffffffffffffffffffffffffffffffffffffff163373ffffffffffffffffffffffffffffffffffffffff1614151561047157600080fd5b60036000846000191660001916815260200190815260200160002060009054906101000a900460ff1615156104a557600080fd5b60036000846000191660001916815260200190815260200160002060006101000a81549060ff02191690558160046000856000191660001916815260200190815260200160002090805190602001906104ff929190611739565b5082600019167ffe22fe2071137d4bfe7c9151e4e911d37f4cfce6830f1cb8e7e81fcdbff3190f60405160405180910390a2505050565b620249f081565b600080600061058187878080601f016020809104026020016040519081016040528093929190818152602001838380828437820191505050505050620249f0610678565b915081341015151561059257600080fd5b61060487878080601f01602080910402602001604051908101604052809392919081815260200183838082843782019150505050505086868080601f016020809104026020016040519081016040528093929190818152602001838380828437820191505050505050620249f0610d1f565b9050600160036000836000191660001916815260200190815260200160002060006101000a81548160ff02191690831515021790555080600019167fe867c17b0c834e11265ca2f58a0c66869209d8333bf38fb4735b02468bee3c9460405160405180910390a28092505050949350505050565b6000806000809054906101000a900473ffffffffffffffffffffffffffffffffffffffff1673ffffffffffffffffffffffffffffffffffffffff1614806106e8575060006106e66000809054906101000a900473ffffffffffffffffffffffffffffffffffffffff1661126f565b145b156106f9576106f7600061127a565b505b6000809054906101000a900473ffffffffffffffffffffffffffffffffffffffff1673ffffffffffffffffffffffffffffffffffffffff166338cc48316000604051602001526040518163ffffffff167c0100000000000000000000000000000000000000000000000000000000028152600401602060405180830381600087803b151561078657600080fd5b6102c65a03f1151561079757600080fd5b5050506040518051905073ffffffffffffffffffffffffffffffffffffffff16600160009054906101000a900473ffffffffffffffffffffffffffffffffffffffff1673ffffffffffffffffffffffffffffffffffffffff161415156108e0576000809054906101000a900473ffffffffffffffffffffffffffffffffffffffff1673ffffffffffffffffffffffffffffffffffffffff166338cc48316000604051602001526040518163ffffffff167c0100000000000000000000000000000000000000000000000000000000028152600401602060405180830381600087803b151561088457600080fd5b6102c65a03f1151561089557600080fd5b50505060405180519050600160006101000a81548173ffffffffffffffffffffffffffffffffffffffff021916908373ffffffffffffffffffffffffffffffffffffffff1602179055505b600160009054906101000a900473ffffffffffffffffffffffffffffffffffffffff1673ffffffffffffffffffffffffffffffffffffffff16632ef3accc84846000604051602001526040518363ffffffff167c01000000000000000000000000000000000000000000000000000000000281526004018080602001838152602001828103825284818151815260200191508051906020019080838360005b8381101561099a57808201518184015260208101905061097f565b50505050905090810190601f1680156109c75780820380516001836020036101000a031916815260200191505b509350505050602060405180830381600087803b15156109e657600080fd5b6102c65a03f115156109f757600080fd5b50505060405180519050905092915050565b6000806000809054906101000a900473ffffffffffffffffffffffffffffffffffffffff1673ffffffffffffffffffffffffffffffffffffffff161480610a7957506000610a776000809054906101000a900473ffffffffffffffffffffffffffffffffffffffff1661126f565b145b15610a8a57610a88600061127a565b505b6000809054906101000a900473ffffffffffffffffffffffffffffffffffffffff1673ffffffffffffffffffffffffffffffffffffffff166338cc48316000604051602001526040518163ffffffff167c0100000000000000000000000000000000000000000000000000000000028152600401602060405180830381600087803b1515610b1757600080fd5b6102c65a03f11515610b2857600080fd5b5050506040518051905073ffffffffffffffffffffffffffffffffffffffff16600160009054906101000a900473ffffffffffffffffffffffffffffffffffffffff1673ffffffffffffffffffffffffffffffffffffffff16141515610c71576000809054906101000a900473ffffffffffffffffffffffffffffffffffffffff1673ffffffffffffffffffffffffffffffffffffffff166338cc48316000604051602001526040518163ffffffff167c0100000000000000000000000000000000000000000000000000000000028152600401602060405180830381600087803b1515610c1557600080fd5b6102c65a03f11515610c2657600080fd5b50505060405180519050600160006101000a81548173ffffffffffffffffffffffffffffffffffffffff021916908373ffffffffffffffffffffffffffffffffffffffff1602179055505b600160009054906101000a900473ffffffffffffffffffffffffffffffffffffffff1673ffffffffffffffffffffffffffffffffffffffff1663c281d19e6000604051602001526040518163ffffffff167c0100000000000000000000000000000000000000000000000000000000028152600401602060405180830381600087803b1515610cff57600080fd5b6102c65a03f11515610d1057600080fd5b50505060405180519050905090565b60008060008060009054906101000a900473ffffffffffffffffffffffffffffffffffffffff1673ffffffffffffffffffffffffffffffffffffffff161480610d9157506000610d8f6000809054906101000a900473ffffffffffffffffffffffffffffffffffffffff1661126f565b145b15610da257610da0600061127a565b505b6000809054906101000a900473ffffffffffffffffffffffffffffffffffffffff1673ffffffffffffffffffffffffffffffffffffffff166338cc48316000604051602001526040518163ffffffff167c0100000000000000000000000000000000000000000000000000000000028152600401602060405180830381600087803b1515610e2f57600080fd5b6102c65a03f11515610e4057600080fd5b5050506040518051905073ffffffffffffffffffffffffffffffffffffffff16600160009054906101000a900473ffffffffffffffffffffffffffffffffffffffff1673ffffffffffffffffffffffffffffffffffffffff16141515610f89576000809054906101000a900473ffffffffffffffffffffffffffffffffffffffff1673ffffffffffffffffffffffffffffffffffffffff166338cc48316000604051602001526040518163ffffffff167c0100000000000000000000000000000000000000000000000000000000028152600401602060405180830381600087803b1515610f2d57600080fd5b6102c65a03f11515610f3e57600080fd5b50505060405180519050600160006101000a81548173ffffffffffffffffffffffffffffffffffffffff021916908373ffffffffffffffffffffffffffffffffffffffff1602179055505b600160009054906101000a900473ffffffffffffffffffffffffffffffffffffffff1673ffffffffffffffffffffffffffffffffffffffff16632ef3accc86856000604051602001526040518363ffffffff167c01000000000000000000000000000000000000000000000000000000000281526004018080602001838152602001828103825284818151815260200191508051906020019080838360005b83811015611043578082015181840152602081019050611028565b50505050905090810190601f1680156110705780820380516001836020036101000a031916815260200191505b509350505050602060405180830381600087803b151561108f57600080fd5b6102c65a03f115156110a057600080fd5b505050604051805190509050823a02670de0b6b3a7640000018111156110cc5760006001029150611267565b600160009054906101000a900473ffffffffffffffffffffffffffffffffffffffff1673ffffffffffffffffffffffffffffffffffffffff1663c51be90f8260008888886000604051602001526040518663ffffffff167c0100000000000000000000000000000000000000000000000000000000028152600401808581526020018060200180602001848152602001838103835286818151815260200191508051906020019080838360005b83811015611194578082015181840152602081019050611179565b50505050905090810190601f1680156111c15780820380516001836020036101000a031916815260200191505b50838103825285818151815260200191508051906020019080838360005b838110156111fa5780820151818401526020810190506111df565b50505050905090810190601f1680156112275780820380516001836020036101000a031916815260200191505b5096505050505050506020604051808303818588803b151561124857600080fd5b6125ee5a03f1151561125957600080fd5b505050506040518051905091505b509392505050565b6000813b9050919050565b60008061129a731d3b2638a7cc9f2cb3d298a3da7a90b67e5506ed61126f565b111561133b57731d3b2638a7cc9f2cb3d298a3da7a90b67e5506ed6000806101000a81548173ffffffffffffffffffffffffffffffffffffffff021916908373ffffffffffffffffffffffffffffffffffffffff1602179055506113326040805190810160405280600b81526020017f6574685f6d61696e6e657400000000000000000000000000000000000000000081525061170b565b60019050611706565b600061135a73c03a2615d5efaf5f49f60b7bb6583eaec212fdf161126f565b11156113fb5773c03a2615d5efaf5f49f60b7bb6583eaec212fdf16000806101000a81548173ffffffffffffffffffffffffffffffffffffffff021916908373ffffffffffffffffffffffffffffffffffffffff1602179055506113f26040805190810160405280600c81526020017f6574685f726f707374656e33000000000000000000000000000000000000000081525061170b565b60019050611706565b600061141a73b7a07bcf2ba2f2703b24c0691b5278999c59ac7e61126f565b11156114bb5773b7a07bcf2ba2f2703b24c0691b5278999c59ac7e6000806101000a81548173ffffffffffffffffffffffffffffffffffffffff021916908373ffffffffffffffffffffffffffffffffffffffff1602179055506114b26040805190810160405280600981526020017f6574685f6b6f76616e000000000000000000000000000000000000000000000081525061170b565b60019050611706565b60006114da73146500cfd35b22e4a392fe0adc06de1a1368ed4861126f565b111561157b5773146500cfd35b22e4a392fe0adc06de1a1368ed486000806101000a81548173ffffffffffffffffffffffffffffffffffffffff021916908373ffffffffffffffffffffffffffffffffffffffff1602179055506115726040805190810160405280600b81526020017f6574685f72696e6b65627900000000000000000000000000000000000000000081525061170b565b60019050611706565b600061159a736f485c8bf6fc43ea212e93bbf8ce046c7f1cb47561126f565b11156115fd57736f485c8bf6fc43ea212e93bbf8ce046c7f1cb4756000806101000a81548173ffffffffffffffffffffffffffffffffffffffff021916908373ffffffffffffffffffffffffffffffffffffffff16021790555060019050611706565b600061161c7320e12a1f859b3feae5fb2a0a32c18f5a65555bbf61126f565b111561167f577320e12a1f859b3feae5fb2a0a32c18f5a65555bbf6000806101000a81548173ffffffffffffffffffffffffffffffffffffffff021916908373ffffffffffffffffffffffffffffffffffffffff16021790555060019050611706565b600061169e7351efaf4c8b3c9afbd5ab9f4bbc82784ab6ef8faa61126f565b1115611701577351efaf4c8b3c9afbd5ab9f4bbc82784ab6ef8faa6000806101000a81548173ffffffffffffffffffffffffffffffffffffffff021916908373ffffffffffffffffffffffffffffffffffffffff16021790555060019050611706565b600090505b919050565b8060029080519060200190611721929190611739565b5050565b602060405190810160405280600081525090565b828054600181600116156101000203166002900490600052602060002090601f016020900481019282601f1061177a57805160ff19168380011785556117a8565b828001600101855582156117a8579182015b828111156117a757825182559160200191906001019061178c565b5b5090506117b591906117b9565b5090565b6117db91905b808211156117d75760008160009055506001016117bf565b5090565b90565b60008060009054906101000a900473ffffffffffffffffffffffffffffffffffffffff1673ffffffffffffffffffffffffffffffffffffffff16148061184d5750600061184b6000809054906101000a900473ffffffffffffffffffffffffffffffffffffffff1661126f565b145b1561185e5761185c600061127a565b505b6000809054906101000a900473ffffffffffffffffffffffffffffffffffffffff1673ffffffffffffffffffffffffffffffffffffffff166338cc48316000604051602001526040518163ffffffff167c0100000000000000000000000000000000000000000000000000000000028152600401602060405180830381600087803b15156118eb57600080fd5b6102c65a03f115156118fc57600080fd5b5050506040518051905073ffffffffffffffffffffffffffffffffffffffff16600160009054906101000a900473ffffffffffffffffffffffffffffffffffffffff1673ffffffffffffffffffffffffffffffffffffffff16141515611a45576000809054906101000a900473ffffffffffffffffffffffffffffffffffffffff1673ffffffffffffffffffffffffffffffffffffffff166338cc48316000604051602001526040518163ffffffff167c0100000000000000000000000000000000000000000000000000000000028152600401602060405180830381600087803b15156119e957600080fd5b6102c65a03f115156119fa57600080fd5b50505060405180519050600160006101000a81548173ffffffffffffffffffffffffffffffffffffffff021916908373ffffffffffffffffffffffffffffffffffffffff1602179055505b600160009054906101000a900473ffffffffffffffffffffffffffffffffffffffff1673ffffffffffffffffffffffffffffffffffffffff1663688dcfd7826040518263ffffffff167c010000000000000000000000000000000000000000000000000000000002815260040180827effffffffffffffffffffffffffffffffffffffffffffffffffffffffffffff19167effffffffffffffffffffffffffffffffffffffffffffffffffffffffffffff19168152602001915050600060405180830381600087803b1515611b1957600080fd5b6102c65a03f11515611b2a57600080fd5b505050505600a165627a7a72305820f251221e482f009542584605314c487bafede485aedbe0978ebcc60a32379dc00029",
  "source": "/*\n    Copyright 2017-2018 Phillip A. Elsasser\n\n    Licensed under the Apache License, Version 2.0 (the \"License\");\n    you may not use this file except in compliance with the License.\n    You may obtain a copy of the License at\n\n    http://www.apache.org/licenses/LICENSE-2.0\n\n    Unless required by applicable law or agreed to in writing, software\n    distributed under the License is distributed on an \"AS IS\" BASIS,\n    WITHOUT WARRANTIES OR CONDITIONS OF ANY KIND, either express or implied.\n    See the License for the specific language governing permissions and\n    limitations under the License.\n*/\n\npragma solidity ^0.4.18;\n\nimport \"./oraclizeAPI.sol\";\nimport \"../libraries/MathLib.sol\";\n\n\n/// @title QueryTest small contract to allow users to test query structure prior to contract deployment\n/// @author Phil Elsasser <phil@marketprotocol.io>\ncontract OraclizeQueryTest is usingOraclize {\n    using MathLib for uint;\n\n    // constants\n    uint constant public QUERY_CALLBACK_GAS = 150000;\n\n    // state variables\n    mapping(bytes32 => bool) validScheduledQueryIDs;\n    mapping(bytes32 => string) queryResults;\n\n    // events\n    event QueryCompleted(bytes32 indexed queryIDCompleted);\n    event QueryScheduled(bytes32 indexed queryIDScheduled);\n    event QueryPrice(uint value);\n\n    function OraclizeQueryTest() public {\n        oraclize_setProof(proofType_TLSNotary | proofStorage_IPFS); //set proof to match main contracts\n    }\n\n    /*\n    // PUBLIC METHODS\n    */\n\n    /// @notice allows a user to create a query and get a callback asap as to the result to ensure their query\n    /// is structured as expected\n    /// @param oracleDataSource a data-source such as \"URL\", \"WolframAlpha\", \"IPFS\"\n    /// see http://docs.oraclize.it/#ethereum-quick-start-simple-query\n    /// @param oracleQuery see http://docs.oraclize.it/#ethereum-quick-start-simple-query for examples\n    /// @return unique identifier to allow them to retrieve the query results once completed.\n    function testOracleQuery(string oracleDataSource, string oracleQuery) external payable returns (bytes32) {\n        uint cost = oraclize_getPrice(oracleDataSource, QUERY_CALLBACK_GAS);\n        require(msg.value >= cost); // user must pay enough to cover query and callback\n        bytes32 queryId = oraclize_query(\n            oracleDataSource,\n            oracleQuery,\n            QUERY_CALLBACK_GAS\n        );\n        validScheduledQueryIDs[queryId] = true;\n        QueryScheduled(queryId);\n        return queryId;\n    }\n\n    /// @notice allows a user to retrieve results from their test query.\n    /// @param queryID unique identifier for the query.\n    /// @return results (if any) from the query\n    function getQueryResults(bytes32 queryID) external view returns (string) {\n        return queryResults[queryID];\n    }\n\n    /// @notice allows a user to retrieve current pricing from oraclize API\n    /// @param oracleDataSource a data-source such as \"URL\", \"WolframAlpha\", \"IPFS\"\n    /// see http://docs.oraclize.it/#ethereum-quick-start-simple-query\n    /// @return cost in wei of query\n    function getQueryCost(string oracleDataSource) external returns (uint) {\n        return oraclize_getPrice(oracleDataSource, QUERY_CALLBACK_GAS);\n    }\n\n    /// @notice only public for callbacks from oraclize, do not call\n    /// @param queryID of the returning query, this should match our own internal mapping\n    /// @param result query to be processed\n    /// @param proof result proof\n    function __callback(bytes32 queryID, string result, bytes proof) public {\n        require(msg.sender == oraclize_cbAddress());\n        require(validScheduledQueryIDs[queryID]);\n        delete validScheduledQueryIDs[queryID];\n        queryResults[queryID] = result; //save result\n        QueryCompleted(queryID);    // fire event so user can retrieve the result.\n    }\n}\n",
  "sourcePath": "/home/pelsasser/MARKETProtocol/contracts/oraclize/OraclizeQueryTest.sol",
  "compiler": {
    "name": "solc",
    "version": "0.4.19+commit.c4cbbb05.Emscripten.clang"
  },
  "schemaVersion": "2.0.0",
  "updatedAt": "2018-04-11T18:55:19.664Z"
}